:020000041A00E0
:10000000008000104D07001AA501001AAB01001A6C
:10001000B101001AB701001ABD01001A000000006A
:10002000000000000000000000000000C301001AF2
:10003000C901001A00000000CF01001AD501001A02
:10004000DB01001ADB01001ADB01001A00000000CE
:10005000DB01001ADB01001ADB01001ADB01001AC8
:10006000DB01001ADB01001ADB01001ADB01001AB8
:10007000DB01001ADB01001ADB01001ADB01001AA8
:10008000DB01001ADB01001ADB01001ADB01001A98
:10009000DB01001ADB01001ADB01001ADB01001A88
:1000A000DB01001ADB01001A2D07001ADB01001A20
:1000B000DB01001ADB01001ADB01001ADB01001A68
:1000C000DB01001ADB01001ADB01001ADB01001A58
:1000D000DB01001ADB01001ADB01001ADB01001A48
:1000E000DB01001ADB01001ADB01001ADB01001A38
:1000F00000000000DB01001ADB01001ADB01001A1E
:1001000000000000DB01001ADB01001ADB01001A0D
:10011000DB01001A301E001A000000100000000071
:10012000000000104404000080B489B000AFF86003
:10013000B9607A60BB68FB61FB68BB6100237B61CF
:100140000AE0BA69131DBB61FB69191DF9611268E8
:100150001A607B6904337B617A697B689A42F0D3C9
:1001600000BF2437BD465DF8047B704780B485B07E
:1001700000AF786039607B68FB600023BB6007E0FC
:10018000FB681A1DFA6000221A60BB680433BB606A
:10019000BA683B689A42F3D300BF1437BD465DF896
:1001A000047B704780B400AFFEE780B400AFFEE789
:1001B00080B400AFFEE780B400AFFEE780B400AFCC
:1001C000FEE780B400AFFEE780B400AFFEE780B486
:1001D00000AFFEE780B400AFFEE780B400AFFEE7FB
:1001E000FFFFFFFFFFFFFFFFFFFFFFFFFFFFFFFF1F
:1001F000FFFFFFFFFFFFFFFFFFFFFFFFFFFFFFFF0F
:10020000FFFFFFFFFFFFFFFFFFFFFFFFFFFFFFFFFE
:10021000FFFFFFFFFFFFFFFFFFFFFFFFFFFFFFFFEE
:10022000FFFFFFFFFFFFFFFFFFFFFFFFFFFFFFFFDE
:10023000FFFFFFFFFFFFFFFFFFFFFFFFFFFFFFFFCE
:10024000FFFFFFFFFFFFFFFFFFFFFFFFFFFFFFFFBE
:10025000FFFFFFFFFFFFFFFFFFFFFFFFFFFFFFFFAE
:10026000FFFFFFFFFFFFFFFFFFFFFFFFFFFFFFFF9E
:10027000FFFFFFFFFFFFFFFFFFFFFFFFFFFFFFFF8E
:10028000FFFFFFFFFFFFFFFFFFFFFFFFFFFFFFFF7E
:10029000FFFFFFFFFFFFFFFFFFFFFFFFFFFFFFFF6E
:1002A000FFFFFFFFFFFFFFFFFFFFFFFFFFFFFFFF5E
:1002B000FFFFFFFFFFFFFFFFFFFFFFFFFFFFFFFF4E
:1002C000FFFFFFFFFFFFFFFFFFFFFFFFFFFFFFFF3E
:1002D000FFFFFFFFFFFFFFFFFFFFFFFFFFFFFFFF2E
:1002E000FFFFFFFFFFFFFFFFFFFFFFFFFFFFFFFF1E
:1002F000FFFFFFFFFFFFFFFFFFFFFFFFFFFFFFFF0E
:10030000F0B4860743D0541E002A3ED0CAB203463A
:1003100002E014F1FF3438D303F8012B9D07F8D124
:10032000032C2BD9CDB245EA05250F2C45EA05450E
:1003300016D9A4F110073F0903F1200606EB0716B2
:1003400003F1100242E9045542E902551032B2426B
:10035000F8D104F00F040137032C03EB07130DD978
:100360001E462246043A032A46F8045BFAD8221FA6
:1003700022F003020432134404F003042CB1C9B286
:100380001C4403F8011B9C42FBD1F0BC704714468F
:100390000346C5E780B483B000AF0346FB71FB7929
:1003A00003F01F03012202FA03F1064A97F907300E
:1003B0005B0942F8231000BF0C37BD465DF8047B93
:1003C000704700BF00E100E080B483B000AF034697
:1003D000FB710B46BB711346BB800748F979BB79AB
:1003E000BA8849010B4440F8232000BF0C37BD46B2
:1003F0005DF8047B704700BF0060084090B583B093
:1004000000AF0446084611461A462346FB710346D0
:10041000BB710B46BB801346FB70FB789AB2BB885E
:1004200013439AB2B979FB791846FFF7CDFF00BFA5
:100430000C37BD4690BD80B483B000AF78600846ED
:1004400011461A460346FB700B46BB7013467B7081
:10045000FA78BB787878796852010A4413440246E6
:100460001A7000BF0C37BD465DF8047B704780B43E
:1004700083B000AF78600B46FB701346BB70FA7810
:100480007B6802F5006253F82210BB78012202FA61
:1004900003F3FA7819437B6802F5006243F82210EF
:1004A00000BF0C37BD465DF8047B704780B483B055
:1004B00000AF78600B46FB701346BB70FA787B6820
:1004C00002F5006253F82210BB78012202FA03F30E
:1004D000DB43FA7819407B6802F5006243F822108A
:1004E00000BF0C37BD465DF8047B704780B483B015
:1004F00000AF78607B680122DA6500BF0C37BD462B
:100500005DF8047B704780B483B000AF78603960D9
:100510007B685A683B681A437B685A6000BF0C3797
:10052000BD465DF8047B704780B483B000AF78604F
:1005300039607B683A689A6000BF0C37BD465DF849
:10054000047B704780B483B000AF786039607B680B
:100550003A68DA6000BF0C37BD465DF8047B70472F
:1005600080B500AF00F0D2FA01F00AFB00F0AAF962
:10057000684801F011FB0423002200210220FFF74C
:100580003DFF0423002201210220FFF737FF04234F
:10059000002202210220FFF731FF002300220A215E
:1005A0000220FFF72BFF002300220B210220FFF780
:1005B00025FF002300220C210220FFF71FFF0E223F
:1005C00000215448FFF753FF0B2201215148FFF748
:1005D0004EFF0C2201214F48FFF749FF0022052161
:1005E0004C48FFF744FF012205214A48FFF73FFF2F
:1005F000022205214748FFF73AFF00230E2200217F
:100600004448FFF718FF00230B2200214148FFF761
:1006100012FF00230C2200213E48FFF70CFF0023AD
:10062000002205213B48FFF706FF00230122052198
:100630003848FFF700FF0023022205213548FFF765
:10064000FAFE0023C02200210120FFF7D7FE00237D
:10065000C02201210120FFF7D1FE0023C022022188
:100660000120FFF7CBFE0023C02206210120FFF767
:10067000C5FE042200212748FFF718FF08220021A9
:100680002448FFF713FF092200212248FFF70EFF3D
:10069000092201211F48FFF709FF1F4800F072FBE4
:1006A00003211D48FFF74EFF4FF4E1311A4800F0D7
:1006B000ADFBC1211848FFF737FF0623182201219F
:1006C0000720FFF79BFE0623D02202210720FFF719
:1006D00095FE4FF4007301221049114800F0F3FC1D
:1006E0004FF4007301220F490F4800F0ECFCC721C2
:1006F0000948FFF719FF05210748FFF704FF1A20F3
:10070000FFF748FE0448FFF7F1FE00F04DFC00BF84
:1007100080BD00BF00400F4000100C4000000010E2
:1007200014040010000200100004001080B500AF97
:10073000034A0449044800F0E8FB00BF80BD00BF45
:10074000000400101404001000100C4080B588B0A4
:1007500000AF72B6264B7B617B69264A1A607B69C3
:100760000433254A1A60254B3B610023FB6109E0F5
:10077000FB699B003A6913444FF0FF321A60FB6932
:100780000133FB61FB69072BF2D962B61C4BBB61DD
:1007900013E0BB691A1DBA611B687B60BB691A1D37
:1007A000BA611B68FB60BB691A1DBA611B68BB603C
:1007B000BA68F9687868FFF7B7FCBB69114A9342D9
:1007C000E7D30DE0BB691A1DBA611B68FB60BB690A
:1007D0001A1DBA611B68BB60B968F868FFF7C6FCF0
:1007E000BB69094A9342EDD300F050F8FEE700BF21
:1007F000003105400010DF10FFF7DF0180E200E06C
:100800001401001A2001001A2801001A80B483B0D4
:1008100000AF7860084611461A460346FB700B4647
:10082000BB7013467B70FA78BB7878787968520190
:100830000A44134402461A7000BF0C37BD465DF8E7
:10084000047B704780B582B000AF786000F0E6FBB3
:1008500002467B68D31A18460837BD4680BD80B56E
:1008600084B000AF7860786800F0E2FBF86000F0D8
:10087000D5FBB86000BFB868FFF7E4FF0246FB682D
:100880009342F8D800BF1037BD4680BD80B500AF99
:10089000FFF766FE01230E2200210948FFF7B6FF8D
:1008A0004FF47A70FFF7DBFF00230E22002104488B
:1008B000FFF7ACFF4FF47A70FFF7D1FFEAE700BF14
:1008C00000400F4080B489B000AF164BFB61164B5F
:1008D000BB61164B7B610023FB74BB691B68BB606B
:1008E0007B691B687B60BB68114A934205D17B68BA
:1008F000104A934201D1012300E00023FB74FB7CEA
:10090000002B09D0FB691B68FB60FB6843F4700394
:10091000FB60FA68FB691A6000BF2437BD465DF8CA
:10092000047B704788ED00E040EF00E044EF00E01A
:10093000210011101100001180B400AF054B5B6C59
:10094000044A43F00103536400BFBD465DF8047BD5
:10095000704700BF0000054080B483B000AF7860EE
:100960007B681B681A467B681B791B0613437A68F1
:100970001269120413437A689268120313437A6867
:10098000D26812021343054A43F40063536400BF64
:100990000C37BD465DF8047B704700BF0000054082
:1009A00080B400AF064B1B6C03F00103002B14BF97
:1009B00001230023DBB21846BD465DF8047B704777
:1009C0000000054090B58FB000AF03463960FB7161
:1009D0001346BB714FF4FA73BB6200233B630023E1
:1009E000FB62FB79062B01D100F0B2FDF9790023FF
:1009F0000122042000F09EFFFFF79EFFFB793B736E
:100A000007F108031946386800F0DAFD3B683D4AF3
:100A1000934216D9BB6803F04003002B00D0FEE7D9
:100A2000BB6803F08003002B06D001233B63BB6847
:100A300023F08003BB6004E00123FB627B69013388
:100A40007B6107F108031846FFF786FF00BFFFF739
:100A5000A7FF0346002BFAD000230122092104201E
:100A600000F068FF3B6B002B12D041F65833BB629D
:100A700000BFBB6A5A1EBA62002BFAD1BB6843F0B2
:100A80008003BB6007F108031846FFF765FF13E01A
:100A9000FB6A002B10D04FF47A73BB6200BFBB6AB5
:100AA0005A1EBA62002BFAD17B69013B7B6107F1C8
:100AB00008031846FFF750FFBB79002B1ED0002318
:100AC0007B6318E0104A7B6B12F823000E4A7B6BA5
:100AD0009B00134459780C4A7B6B9B0013449C7811
:100AE000094A7B6B9B001344DB78224600F022FF0F
:100AF0007B6B01337B637B6B112BE3D900BF3C37EE
:100B0000BD4690BD80778E06581D001A80B500AF97
:100B1000012203490620FFF755FF00BF80BD00BF3B
:100B200000CB280C80B483B000AF78607B680C33B6
:100B30001A687B6810331B689A420CBF012300239C
:100B4000DBB218460C37BD465DF8047B704780B4B5
:100B500083B000AF78607B680022DA6500BF0C3795
:100B6000BD465DF8047B704780B483B000AF786009
:100B70000B46FB70FA787B681A6000BF0C37BD46E5
:100B80005DF8047B704780B483B000AF78607B6809
:100B90001B68DBB218460C37BD465DF8047B704716
:100BA00080B483B000AF786039607B685A683B6876
:100BB000DB431A407B685A6000BF0C37BD465DF8C6
:100BC000047B704780B483B000AF78607B689B681B
:100BD00018460C37BD465DF8047B704780B483B07F
:100BE00000AF786039607B683A689A6000BF0C3764
:100BF000BD465DF8047B704780B483B000AF786079
:100C000039607B683A68DA6000BF0C37BD465DF832
:100C1000047B704780B483B000AF78607B68DB688A
:100C200043F080027B68DA6000BF0C37BD465DF898
:100C3000047B704780B483B000AF78607B68DB686A
:100C400023F080027B68DA6000BF0C37BD465DF898
:100C5000047B704780B483B000AF78600B46FB70B4
:100C60001346BB70FA787B681A60BA787B685A6062
:100C700000BF0C37BD465DF8047B704780B483B07D
:100C800000AF78607B685B6918460C37BD465DF83D
:100C9000047B704780B483B000AF786039607B68B4
:100CA0001A6A3B681A437B681A6200BF0C37BD465C
:100CB0005DF8047B7047FFFF80B485B000AF7860BB
:100CC0007B68FB60FB68104A93420FD00E4A934248
:100CD00003D80E4A934207D00EE00D4A934207D044
:100CE0000C4A934206D007E0002306E0012304E00B
:100CF000022302E0032300E0002318461437BD4618
:100D00005DF8047B704700BF0020084000100840D9
:100D100000100C4000200C4080B582B000AF78601D
:100D20007868FFF74FFF034603F48073002B11D060
:100D30004FF480717868FFF7ADFF4FF480717868E9
:100D4000FFF72EFF0E4B1B78DBB2002B02D10C4BB2
:100D500001221A707868FFF735FF034603F4007329
:100D6000002B09D04FF400717868FFF793FF4FF420
:100D700000717868FFF714FF00BF0837BD4680BDDB
:100D80002804001080B584B000AF7860FB687868F4
:100D9000FFF792FF02461B4B33F81200012301229A
:100DA000012100F03BFE07217868FFF717FF786804
:100DB000FFF7CDFE7B6800225A607B680022DA6074
:100DC0007B6800221A627B680022DA647B6800225A
:100DD0005A657B6800221A657B680B4A934205D1ED
:100DE0007B6800221A617B689B69FB60032178683D
:100DF000FFF702FF7B6810229A6200BF1037BD46E2
:100E000080BD00BFA01D001A0020084080B586B03C
:100E100000AF786039607868FFF74EFF0246164BE6
:100E200033F81230184600F067FE78613B681B010A
:100E30007A69B2FBF3F33B613B691B0AFB60FB6819
:100E40001B023A69D31ABB607868FFF7E3FEBB6800
:100E5000DBB2FA68D2B219467868FFF7FBFE786811
:100E6000FFF7E8FE7A693B69B2FBF3F31B0918460A
:100E70001837BD4680BD00BFA81D001A80B584B0DC
:100E800000AF786039600AE07868FFF77CFE0346BF
:100E9000FB7307F10F031946386800F032F97868E0
:100EA000FFF7ECFE034603F00103002BECD100BF7B
:100EB0001037BD4680BD80B584B000AF7860396022
:100EC00004E0FB7B19467868FFF74EFE7868FFF771
:100ED000D5FE034603F02003002B08D007F10F03D3
:100EE0001946386800F03BF90346002BE9D1386811
:100EF000FFF718FE0346002B03D002217868FFF7A6
:100F00004FFE00BF1037BD4680BD80B584B000AF36
:100F1000F860B9607A60FB685B6803F00203002B3D
:100F20000DD07968F868FFF7C6FF7868FFF7FAFD1B
:100F30000346002B03D00221F868FFF731FEB968A1
:100F4000F868FFF79BFFF868FFF7E6FE00BF103771
:100F5000BD4680BD80B483B000AF78607B685B68BD
:100F600043F001027B685A6000BF0C37BD465DF854
:100F7000047B704780B483B000AF78607B689B6867
:100F800018460C37BD465DF8047B704780B483B0CB
:100F900000AF786039607B683A68DA6000BF0C3770
:100FA000BD465DF8047B704780B582B000AF082372
:100FB0007B60144800F022FE7B68013B1946114813
:100FC000FFF7E4FF0F48FFF7C5FF842000F094FD12
:100FD00002467B68B2FBF3F30B4A13600A4B1B68B3
:100FE0000A4AA2FB03239B09094A1360064B1B68AC
:100FF000084AA2FB03239B0C074A136000BF083773
:10100000BD4680BD004008402C040010D34D621046
:101010003004001083DE1B433404001080B500AFA1
:101020000248FFF7A7FF0346184680BD004008406E
:1010300080B483B000AF7860054B1B687A6802FB10
:1010400003F318460C37BD465DF8047B704700BFBC
:101050003004001080B483B000AF78607B680C333C
:101060001A687B6810331B68D31A18460C37BD46C4
:101070005DF8047B704780B582B000AF7860786817
:10108000FFF7E8FF02467B685B689A42ACBF01232A
:101090000023DBB218460837BD4680BD80B483B05C
:1010A00000AF78607B680C331A687B6810331B686C
:1010B0009A420CBF01230023DBB218460C37BD4611
:1010C0005DF8047B704780B485B000AFF860B9600C
:1010D0007A603B60FB68BA681A60FB683A685A60DD
:1010E000FB687A689A60FB6800221A61FB681A69DB
:1010F000FB68DA60012318461437BD465DF8047BAF
:10110000704780B584B000AF786039607B681B6839
:10111000FB607868FFF7AFFF0346002B01D0002388
:1011200019E07B68DB687A685268013A13407A6894
:10113000926802FB03F3FA681344FB607B689B68C8
:101140001A463968F86800F069FD7B68DB685A1C4C
:101150007B68DA60012318461037BD4680BD80B534
:1011600084B000AF786039607B681B68FB6078688A
:10117000FFF794FF0346002B01D0002319E07B68A2
:101180001B697A685268013A13407A68926802FBD8
:1011900003F3FA681344FB607B689B681A46F9689E
:1011A000386800F03BFD7B681B695A1C7B681A613C
:1011B000012318461037BD4680BD80B483B000AF10
:1011C00078607B68002B02DA7B685B4200E07B681A
:1011D00018460C37BD465DF8047B704780B588B073
:1011E00000AF786039607B68FB613B681B6803F087
:1011F0008003002B05D03B681B6823F040023B684E
:101200001A600123BB616FE000233B6166E00123AC
:101210007B615AE03B681B6803F04003002B0ED053
:101220003B6901337A6902FA03F31A463B685B694A
:1012300003FB02F2BB69B2FBF3F3FB6008E03B681F
:101240005B697A6902FB03F2BB69B2FBF3F3FB60F3
:10125000FB68294A934234D9FB68284A934239D81B
:101260003B681B6803F08003002B02D0FB68BB6067
:1012700005E03B690133FA6822FA03F3BB607A6840
:10128000BB68D31A1846FFF798FF0246FB699342E2
:1012900018D93B68BA699A603B695A1C3B68DA60A6
:1012A0003B687A691A613B68BA689A613B68FA6878
:1012B000DA617A68BB68D31A1846FFF77EFFF861D7
:1012C00000E000BF7B6901337B617B69B3F5807F00
:1012D000A0DD00E000BF3B6901333B613B69032BAC
:1012E00095DDBB690133BB61BB69042B8CDD00BF9D
:1012F0002037BD4680BD00BFFF5E4C0900D01213F1
:10130000B0B59EB000AF7860396007F10C03602281
:1013100000211846FEF7F4FFFB6843F08003FB60F2
:101320003B685B693B623B681B793B7407F10C03CC
:1013300019467868FFF752FF7B6A7A689A420AD1A9
:101340003B681D4607F10C040FCC0FC594E80F0055
:1013500085E80F008EE07B6A7A68D31A1846FFF79B
:101360002CFF0346FB66FB6C23F04003FB643B68E9
:101370005B693B663B681B7987F8503007F10C03CB
:10138000403319467868FFF729FF7B6E7A689A42E6
:101390000AD13B681D4607F14C040FCC0FC594E8F9
:1013A0000F0085E80F0065E07B6E7A68D31A184657
:1013B000FFF703FF03467B677B68304A93421AD8E6
:1013C0004023FB623B685B693B6407F10C032033FD
:1013D00019467868FFF702FF7B6C7A689A420AD157
:1013E0003B681D4607F12C040FCC0FC594E80F0095
:1013F00085E80F003EE07B6C7A68D31A1846FFF749
:10140000DCFE03463B67FA6E3B6F9A4219DCFA6ECC
:101410007B6F9A420ADC3B681D4607F10C040FCC37
:101420000FC594E80F0085E80F0023E03B681D46D8
:1014300007F14C040FCC0FC594E80F0085E80F00AE
:1014400018E03A6F7B6F9A420ADC3B681D4607F151
:101450002C040FCC0FC594E80F0085E80F0009E0BD
:101460003B681D4607F14C040FCC0FC594E80F00F4
:1014700085E80F007837BD46B0BD00BF80778E0687
:1014800080B584B000AF03460A46FB711346BB71BA
:10149000BB79184600F060F90346FB73BB79184628
:1014A00000F07AF9B860FB7B184600F091F902462B
:1014B000BB680133B2FBF3F318461037BD4680BD5D
:1014C00080B485B000AF0346FB801C23FB73002370
:1014D000BB6024E01D49BA6813465B0013445B00FF
:1014E0000B441B88FA889A4216D31849BA681346E7
:1014F0005B0013445B000B4402331B88FA889A425A
:101500000AD81249BA6813465B0013445B000B44C7
:1015100004331B78FB7302E0BB680133BB60FB7BC9
:101520001C2B0BD10949BA6813465B0013445B00BE
:101530000B4404331B78FA7B9A42CBD1FB7B1846D1
:101540001437BD465DF8047B704700BFB01D001A1C
:1015500080B483B000AF4FF47A733B60154B9B6946
:101560007B607B6823F002037B60124B9B697A6887
:101570009A4202D00F4A7B6893617B6823F0010393
:101580007B600D4B1B680D4A934203D97B6843F087
:1015900004037B60074A7B68936100BF3B685A1E67
:1015A0003A60002BFAD100BF0C37BD465DF8047BD2
:1015B000704700BF00000540541D001AFF2C310188
:1015C00080B582B000AF786039603B681B791846FF
:1015D00000F0FEF802463B685A617B682B4A934252
:1015E00007D87B682A4A934203D93B685B69002B82
:1015F00002D14FF0FF3344E03B6880221A603B6821
:1016000000229A603B680022DA603B685B697A6876
:10161000B2FBF3F31A463B681A617B681D4A93429A
:1016200009D93B681B691A463B685B6903FB02F3F7
:101630007A689A420FD039687868FFF761FE3B6894
:101640009B68002B02D14FF0FF331AE03B689B6888
:101650005A1E3B689A603B681B69002B02D14FF011
:10166000FF330EE03B68DB68002B04D03B68DB688F
:101670005A1E3B68DA603B681B695A1E3B681A6158
:10168000002318460837BD4680BD00BF00CB280C9C
:10169000EFC59400FF5E4C0980B58CB000AF2C4BB9
:1016A0005B6CFB62FB6A1B0EDBB203F00F03DBB269
:1016B000184600F08DF8B862264B1B687B60244BFF
:1016C0001B6C03F00103002B01D100233BE0FB6AFC
:1016D0001B0CDBB27B62FB6A1B0B03F003033B6258
:1016E000FB6A1B0A03F00303FB61FB6ADB0903F0DF
:1016F0000103BB61FB6A9B0903F001037B617B6A09
:1017000001333B613B6A0133FB603A1DFB691344C3
:101710001B78BB60BB69002B02D17B69002B07D013
:10172000BA6AFB68B2FBF3F33A6902FB03F30AE01F
:10173000BB685B003A69B2FBF3F3B96AFA68B1FBC4
:10174000F2F202FB03F318463037BD4680BD00BFFE
:10175000000005401C1E001A80B485B000AF03468F
:10176000FB710C4AFB79123352F82330FB60FB68A3
:1017700003F00103002B01D0112305E0FB681B0ED1
:10178000DBB203F01F03DBB218461437BD465DF829
:10179000047B70470000054080B483B000AF03466F
:1017A000FB71094AFB79123352F823309B08DAB2F5
:1017B000FB790649CB5C1340DBB218460C37BD46BB
:1017C0005DF8047B704700BF00000540201E001A32
:1017D00080B584B000AF0346FB710023FB60FB794A
:1017E000112B7FD801A252F823F000BF3518001A40
:1017F0003D18001A4318001A5718001A7118001AD9
:10180000E518001A7918001A8118001A8918001AA8
:101810009118001AE518001AE518001A9918001A0C
:10182000A718001AB518001AC318001AD118001A00
:10183000DF18001A4FF40043FB6056E02D4BFB60AD
:1018400053E02D4BD3F82C3103F00703042B4BD07E
:101850002A4BFB6048E0284BD3F82C3103F00703F8
:10186000042B02D0254BFB603FE0254BFB603CE0A6
:10187000244B1B68FB6038E0234B1B68FB6034E0A3
:10188000224B1B68FB6030E0204B5B68FB602CE068
:10189000FFF702FFF86028E0FB7900211846FFF708
:1018A000EFFDF86021E0FB7901211846FFF7E8FD24
:1018B000F8601AE0FB7902211846FFF7E1FDF860B5
:1018C00013E0FB7903211846FFF7DAFDF8600CE01E
:1018D000FB7904211846FFF7D3FDF86005E00023EB
:1018E000FB6002E000BF00E000BFFB681846103755
:1018F000BD4680BD001BB7000030044040787D012C
:1019000080F0FA02501D001A541D001A380400100D
:1019100080B582B000AF0346FB71FB79184600F03A
:1019200057F803461846FFF753FF03461846083793
:10193000BD4680BD90B484B000AF04460846114651
:101940001A462346FB710346BB710B467B71134657
:101950003B711D4AFB7916339B0013445B68FB60A7
:10196000FB791B2B22D8BB79112B28D0FA68174B97
:101970001340FB607B79002B03D0FB6843F40063CA
:10198000FB603B79002B03D0FB6843F00103FB6055
:10199000BB791B061A46FB681343FB600A4AFB79B6
:1019A00016339B001344FA685A6008E00649FB7935
:1019B000FA6842F0010216339B000B445A6000BFE4
:1019C0001037BD4690BC704700000540FEF7FFE0B1
:1019D00080B485B000AF0346FB71FB791B2B01D9A6
:1019E000112313E00C4AFB7916339B0013445B6808
:1019F000FB60FB6803F00103002B01D0112305E01D
:101A0000FB681B0EDBB203F01F03DBB21846143772
:101A1000BD465DF8047B70470000054080B485B08A
:101A200000AF3B600346FB800B467B7113463B7166
:101A30000123FB607B79002B03D0FB6843F002039A
:101A4000FB603B79002B03D0FB6843F00403FB6091
:101A50003B68022B03D1FB6843F02003FB60FB884B
:101A6000B3F5A17F08D30A49FB88A3F5A1732033FE
:101A7000FA6841F8332005E00649FB882033FA680C
:101A800041F8332000BF1437BD465DF8047B704732
:101A9000002005400010054080B483B000AF03462D
:101AA000FB80FB88B3F5A17F10D3114AFB88A3F517
:101AB000A173203352F833200D49FB88A3F5A1739D
:101AC00042F00102203341F833200BE0094AFB8841
:101AD000203352F833200749FB8842F001022033BB
:101AE00041F8332000BF0C37BD465DF8047B7047DA
:101AF000002005400010054080B586B000AF0346C9
:101B0000FB80FB88B3F5A17F08D31B4AFB88A3F5B4
:101B1000A173203352F833307B6105E0174AFB880C
:101B2000203352F833307B617B6903F00103002BD3
:101B30001BD0FB881846FFF7C3FC0346FB72FB7AF9
:101B40001846FFF7E5FEF8607B695B0903F00703C1
:101B5000002B02D101233B6101E002233B61FA68C3
:101B60003B69B2FBF3F3FB6001E00023FB60FB6821
:101B700018461837BD4680BD0020054000100540BE
:101B800080B500AF6920FFF7B7FF0246014B1A602E
:101B900000BF80BD4004001080B483B000AF786007
:101BA00000BF0C37BD465DF8047B704780B485B03C
:101BB00000AF78607B680E4A934202D1A423FB8178
:101BC0000FE07B680B4A934202D1A323FB8108E01C
:101BD0007B68094A934202D18523FB8101E084237B
:101BE000FB81FB8918461437BD465DF8047B7047BE
:101BF00000400C4000300C400050084080B582B0DE
:101C000000AF78607868FFF7D1FF03461846FFF70A
:101C100043FF00BF0837BD4680BDFFFF844641EA51
:101C2000000313F003036DD1403A41D351F8043B54
:101C300040F8043B51F8043B40F8043B51F8043BA6
:101C400040F8043B51F8043B40F8043B51F8043B96
:101C500040F8043B51F8043B40F8043B51F8043B86
:101C600040F8043B51F8043B40F8043B51F8043B76
:101C700040F8043B51F8043B40F8043B51F8043B66
:101C800040F8043B51F8043B40F8043B51F8043B56
:101C900040F8043B51F8043B40F8043B51F8043B46
:101CA00040F8043B51F8043B40F8043B403ABDD2B5
:101CB000303211D351F8043B40F8043B51F8043B57
:101CC00040F8043B51F8043B40F8043B51F8043B16
:101CD00040F8043B103AEDD20C3205D351F8043BE6
:101CE00040F8043B043AF9D2043208D0D2071CBFB2
:101CF00011F8013B00F8013B01D30B8803806046DB
:101D0000704700BF082A13D38B078DD010F0030350
:101D10008AD0C3F10403D21ADB071CBF11F8013BC0
:101D200000F8013B80D331F8023B20F8023B7BE70F
:101D3000043AD9D3013A11F8013B00F8013BF9D23A
:101D40000B7803704B7843708B78837060467047D4
:101D500000000000001BB70000010100090901009C
:101D60000A09010001070101020901000609010039
:101D70000C0901010D0901000E0901000F09010004
:101D800010090100110901001209010013090100E5
:101D900014110100191101001A1101001B11010099
:101DA00081008200A100A200C201A20182016201A1
:101DB000000005000A002000240009004000400047
:101DC00005006000A6000400C000C3000200E0009F
:101DD000E0000100000100010300200120010600D5
:101DE000400140010C004201420119006201620100
:101DF0001300820182011200A201A2011100C2019E
:101E0000C2011000E201E2010F00020202020E0014
:101E1000220222020D00230223021C0001020408F8
:081E2000030F0F0FFF00FFFF8D
:041E2800F8B500BF4A
:041E2C00F8B500BF46
:040000051A00074D89
:00000001FF
