:020000041A00E0
:10000000008000104D07001AA501001AAB01001A6C
:10001000B101001AB701001ABD01001A000000006A
:10002000000000000000000000000000C301001AF2
:10003000C901001A00000000CF01001AB91E001A01
:10004000DB01001ADB01001ADB01001A00000000CE
:10005000DB01001ADB01001ADB01001ADB01001AC8
:10006000DB01001ADB01001ADB01001ADB01001AB8
:10007000DB01001ADB01001ADB01001ADB01001AA8
:10008000DB01001ADB01001ADB01001ADB01001A98
:10009000DB01001ADB01001ADB01001ADB01001A88
:1000A000DB01001ADB01001A2D07001ADB01001A20
:1000B000DB01001ADB01001ADB01001ADB01001A68
:1000C000D11E001AF11E001A111F001A311F001A4A
:1000D000DB01001ADB01001ADB01001ADB01001A48
:1000E000DB01001ADB01001ADB01001ADB01001A38
:1000F00000000000DB01001ADB01001ADB01001A1E
:1001000000000000DB01001ADB01001ADB01001A0D
:10011000DB01001A4C39011A000000100000000039
:10012000000000104C04000080B489B000AFF860FB
:10013000B9607A60BB68FB61FB68BB6100237B61CF
:100140000AE0BA69131DBB61FB69191DF9611268E8
:100150001A607B6904337B617A697B689A42F0D3C9
:1001600000BF2437BD465DF8047B704780B485B07E
:1001700000AF786039607B68FB600023BB6007E0FC
:10018000FB681A1DFA6000221A60BB680433BB606A
:10019000BA683B689A42F3D300BF1437BD465DF896
:1001A000047B704780B400AFFEE780B400AFFEE789
:1001B00080B400AFFEE780B400AFFEE780B400AFCC
:1001C000FEE780B400AFFEE780B400AFFEE780B486
:1001D00000AFFEE780B400AFFEE780B400AFFEE7FB
:1001E000FFFFFFFFFFFFFFFFFFFFFFFFFFFFFFFF1F
:1001F000FFFFFFFFFFFFFFFFFFFFFFFFFFFFFFFF0F
:10020000FFFFFFFFFFFFFFFFFFFFFFFFFFFFFFFFFE
:10021000FFFFFFFFFFFFFFFFFFFFFFFFFFFFFFFFEE
:10022000FFFFFFFFFFFFFFFFFFFFFFFFFFFFFFFFDE
:10023000FFFFFFFFFFFFFFFFFFFFFFFFFFFFFFFFCE
:10024000FFFFFFFFFFFFFFFFFFFFFFFFFFFFFFFFBE
:10025000FFFFFFFFFFFFFFFFFFFFFFFFFFFFFFFFAE
:10026000FFFFFFFFFFFFFFFFFFFFFFFFFFFFFFFF9E
:10027000FFFFFFFFFFFFFFFFFFFFFFFFFFFFFFFF8E
:10028000FFFFFFFFFFFFFFFFFFFFFFFFFFFFFFFF7E
:10029000FFFFFFFFFFFFFFFFFFFFFFFFFFFFFFFF6E
:1002A000FFFFFFFFFFFFFFFFFFFFFFFFFFFFFFFF5E
:1002B000FFFFFFFFFFFFFFFFFFFFFFFFFFFFFFFF4E
:1002C000FFFFFFFFFFFFFFFFFFFFFFFFFFFFFFFF3E
:1002D000FFFFFFFFFFFFFFFFFFFFFFFFFFFFFFFF2E
:1002E000FFFFFFFFFFFFFFFFFFFFFFFFFFFFFFFF1E
:1002F000FFFFFFFFFFFFFFFFFFFFFFFFFFFFFFFF0E
:10030000F0B4860743D0541E002A3ED0CAB203463A
:1003100002E014F1FF3438D303F8012B9D07F8D124
:10032000032C2BD9CDB245EA05250F2C45EA05450E
:1003300016D9A4F110073F0903F1200606EB0716B2
:1003400003F1100242E9045542E902551032B2426B
:10035000F8D104F00F040137032C03EB07130DD978
:100360001E462246043A032A46F8045BFAD8221FA6
:1003700022F003020432134404F003042CB1C9B286
:100380001C4403F8011B9C42FBD1F0BC704714468F
:100390000346C5E780B483B000AF0346FB71FB7929
:1003A00003F01F03012202FA03F1064A97F907300E
:1003B0005B0942F8231000BF0C37BD465DF8047B93
:1003C000704700BF00E100E080B483B000AF034697
:1003D000FB710B46BB711346BB800748F979BB79AB
:1003E000BA8849010B4440F8232000BF0C37BD46B2
:1003F0005DF8047B704700BF0060084090B583B093
:1004000000AF0446084611461A462346FB710346D0
:10041000BB710B46BB801346FB70FB789AB2BB885E
:1004200013439AB2B979FB791846FFF7CDFF00BFA5
:100430000C37BD4690BD80B483B000AF78600846ED
:1004400011461A460346FB700B46BB7013467B7081
:10045000FA78BB787878796852010A4413440246E6
:100460001A7000BF0C37BD465DF8047B704780B43E
:1004700083B000AF78600B46FB701346BB70FA7810
:100480007B6802F5006253F82210BB78012202FA61
:1004900003F3FA7819437B6802F5006243F82210EF
:1004A00000BF0C37BD465DF8047B704780B483B055
:1004B00000AF78600B46FB701346BB70FA787B6820
:1004C00002F5006253F82210BB78012202FA03F30E
:1004D000DB43FA7819407B6802F5006243F822108A
:1004E00000BF0C37BD465DF8047B704780B483B015
:1004F00000AF78607B680122DA6500BF0C37BD462B
:100500005DF8047B704780B483B000AF78603960D9
:100510007B685A683B681A437B685A6000BF0C3797
:10052000BD465DF8047B704780B483B000AF78604F
:1005300039607B683A689A6000BF0C37BD465DF849
:10054000047B704780B483B000AF786039607B680B
:100550003A68DA6000BF0C37BD465DF8047B70472F
:1005600080B500AF01F02CFF02F08AFF01F004FE1D
:10057000684802F091FF0423002200210220FFF7C7
:100580003DFF0423002201210220FFF737FF04234F
:10059000002202210220FFF731FF002300220A215E
:1005A0000220FFF72BFF002300220B210220FFF780
:1005B00025FF002300220C210220FFF71FFF0E223F
:1005C00000215448FFF753FF0B2201215148FFF748
:1005D0004EFF0C2201214F48FFF749FF0022052161
:1005E0004C48FFF744FF012205214A48FFF73FFF2F
:1005F000022205214748FFF73AFF00230E2200217F
:100600004448FFF718FF00230B2200214148FFF761
:1006100012FF00230C2200213E48FFF70CFF0023AD
:10062000002205213B48FFF706FF00230122052198
:100630003848FFF700FF0023022205213548FFF765
:10064000FAFE0023C02200210120FFF7D7FE00237D
:10065000C02201210120FFF7D1FE0023C022022188
:100660000120FFF7CBFE0023C02206210120FFF767
:10067000C5FE042200212748FFF718FF08220021A9
:100680002448FFF713FF092200212248FFF70EFF3D
:10069000092201211F48FFF709FF1F4801F0CCFF85
:1006A00003211D48FFF74EFF4FF4E1311A4802F0D5
:1006B00055F8C1211848FFF737FF062318220121FA
:1006C0000720FFF79BFE0623D02202210720FFF719
:1006D00095FE4FF4007301221049114802F073F99E
:1006E0004FF4007301220F490F4802F06CF9C72143
:1006F0000948FFF719FF05210748FFF704FF1A20F3
:10070000FFF748FE0448FFF7F1FE02F0E9F800BFEA
:1007100080BD00BF00400F4000100C4000000010E2
:1007200014040010000200100004001080B500AF97
:10073000034A0449044802F090F800BF80BD00BF9E
:10074000000400101404001000100C4080B588B0A4
:1007500000AF72B6264B7B617B69264A1A607B69C3
:100760000433254A1A60254B3B610023FB6109E0F5
:10077000FB699B003A6913444FF0FF321A60FB6932
:100780000133FB61FB69072BF2D962B61C4BBB61DD
:1007900013E0BB691A1DBA611B687B60BB691A1D37
:1007A000BA611B68FB60BB691A1DBA611B68BB603C
:1007B000BA68F9687868FFF7B7FCBB69114A9342D9
:1007C000E7D30DE0BB691A1DBA611B68FB60BB690A
:1007D0001A1DBA611B68BB60B968F868FFF7C6FCF0
:1007E000BB69094A9342EDD301F0B2FAFEE700BFBC
:1007F000003105400010DF10FFF7DF0180E200E06C
:100800001401001A2001001A2801001A80B485B0D2
:1008100000AF78607B6801331B78FB81FB891B028A
:100820001AB27B681B781BB213431BB2FB81FB8996
:1008300018461437BD465DF8047B704780B485B018
:1008400000AF78607B6803331B78FB60FB681B029A
:100850007A68023212781343FB60FB681B027A68E5
:10086000013212781343FB60FB681B027A6812782E
:100870001343FB60FB6818461437BD465DF8047BE4
:10088000704780B487B000AFF860B9607A60FB68E9
:100890007B61BB683B617B68002B0DD03A69531CC0
:1008A0003B617B69591C796112781A707B68013B46
:1008B0007B607B68002BF1D100BF1C37BD465DF823
:1008C000047B704780B487B000AFF860B9607A608D
:1008D000FB687B617B695A1C7A61BA68D2B21A7074
:1008E0007B68013B7B607B68002BF3D100BF1C372A
:1008F000BD465DF8047B704780B489B000AFF860F6
:10090000B9607A60FB68FB61BB68BB6100237B61F7
:10091000FB695A1CFA611B781946BB695A1CBA61FB
:100920001B78CB1A7B617B68013B7B607B68002B6B
:1009300002D07B69002BEBD07B6918462437BD467B
:100940005DF8047B704780B483B000AF7860396095
:1009500002E07B6801337B607B681B78002B05D04D
:100960007B681B781A463B689342F2D17B681B7800
:1009700018460C37BD465DF8047B704780B483B0E1
:1009800000AF0346FB71FB79002B01D0002300E090
:10099000002318460C37BD465DF8047B704780B4D1
:1009A00083B000AF0346FB71FB79002B01D000231D
:1009B00000E0002318460C37BD465DF8047B704705
:1009C00080B584B000AF786039600023FB737B682A
:1009D0005B6A3A689A4216D0FB7B002B13D17B6886
:1009E00058787B6803F1280101233A6801F08AFBFB
:1009F0000346002B04D04FF0FF333B600123FB7311
:100A00007B683A685A62FB7B18461037BD4680BD4A
:100A100080B483B000AF786039603B68023B3B60D4
:100A20007B68DB68023B3A689A4201D3002308E006
:100A30007B681A6A7B685B8919463B6803FB01F394
:100A4000134418460C37BD465DF8047B704780B5EB
:100A500086B000AF786039607B681B683B613B689B
:100A6000012B04D93B69DB683A689A4202D301231F
:100A70007B618CE04FF0FF337B613B691B78022B7D
:100A800045D0032B5DD0012B77D13B68FB60FB6821
:100A90005B08FA681344FB603B699A69FB685B0A70
:100AA000134419463869FFF78BFF0346002B67D1C3
:100AB000FB685A1CFA60C3F308033A69134493F8BD
:100AC0002830BB603B699A69FB685B0A134419468E
:100AD0003869FFF775FF0346002B53D1FB68C3F35A
:100AE00008033A69134493F828301B021A46BB687E
:100AF0001343BB603B6803F00103002B02D0BB68CB
:100B00001B0902E0BB68C3F30B037B613FE03B6959
:100B10009A693B681B0A134419463869FFF750FF6E
:100B20000346002B30D13B6903F128023B685B0090
:100B300003F4FF7313441846FFF768FE03467B6116
:100B400025E03B699A693B68DB091344194638691B
:100B5000FFF736FF0346002B18D13B6903F128024B
:100B60003B689B0003F4FE7313441846FFF766FED0
:100B7000034623F070437B6109E001237B6106E0BB
:100B800000BF04E000BF02E000BF00E000BF7B69DF
:100B900018461837BD4680BD80B586B000AF786076
:100BA00039607B681B683B613B68B3F5001F04D26A
:100BB0003B6803F01F03002B01D0022363E07B6836
:100BC0003A681A617B689B687B617B69002B06D160
:100BD0003B691B78022B02D93B69DB697B617B692E
:100BE000002B0CD13B685B093A691289934201D30F
:100BF000022348E03B69DA697B689A6129E03B6936
:100C00005B895B02FB6019E07B6879691846FFF736
:100C10001EFF78617B69B3F1FF3F01D1012332E010
:100C20007B69012B04D93B69DB687A699A4201D35D
:100C3000022328E03A68FB68D31A3B603A68FB68F5
:100C40009A42E1D279693869FFF7E2FE02467B6891
:100C50009A617B687A695A617B689B69002B01D134
:100C6000022310E07B689A693B685B0A1A447B6840
:100C70009A613B6903F128023B68C3F308031A44F5
:100C80007B68DA61002318461837BD4680BD80B501
:100C900086B000AF786039607B681B687B617B68D9
:100CA0001B6920333B613B69B3F5001F02D37B68AE
:100CB00000229A617B689B69002B01D104235AE0D2
:100CC0003B69C3F30803002B48D17B689B695A1C1E
:100CD0007B689A617B685B69002B0AD13B695B0981
:100CE0007A691289934239D37B6800229A6104237E
:100CF00041E03B695B0A7A695289013A1340002B53
:100D00002CD17A687B685B6919461046FFF79FFE15
:100D1000F860FB68012B01D802232CE0FB68B3F1DB
:100D2000FF3F01D1012326E07B69DB68FA689A4224
:100D30000AD33B68002B02D17B6800229A617B6852
:100D400000229A61042316E07B68FA685A61F96808
:100D50007869FFF75DFE02467B689A617B683A69B5
:100D60001A617B6903F128023B69C3F308031A4443
:100D70007B68DA61002318461837BD4680BD80B510
:100D800084B000AF786039603B681A331846FFF7CB
:100D90003DFD0346FB607B681B78032B09D13B6854
:100DA00014331846FFF732FD03461B04FA68134359
:100DB000FB60FB6818461037BD4680BD80B586B025
:100DC00000AF786039600423FB757B681B683B616A
:100DD0003CE07B689B6919463869FFF7F1FD0346E3
:100DE000FB75FB7D002B36D17B68DB691B78FB73C1
:100DF000FB7B002B02D10423FB7531E07B68DB69B0
:100E00000B331B7803F03F03BB737B68BA7B9A718B
:100E1000FB7BE52B11D0FB7B2E2B0ED0BB7B0F2B4E
:100E20000BD0BB7B23F02003082B0CBF0123002336
:100E3000DBB21A463B6893420FD000217868FFF777
:100E400026FF0346FB75FB7D002B08D17B689B6961
:100E5000002BBED104E000BF02E000BF00E000BFF5
:100E6000FB7D002B02D07B6800229A61FB7D184637
:100E70001837BD4680BD80B586B000AF78607B680E
:100E80001B683B6100217868FFF786FE0346FB750F
:100E9000FB7D002B01D0FB7D3EE07B689B69194602
:100EA0003869FFF78DFD0346FB75FB7D002B2FD1C5
:100EB0007B68DB691B78FB73FB7B002B02D104236F
:100EC000FB7528E07B68DB690B331B7803F03F037D
:100ED000DAB27B689A717B68DB690B331B7803F0AD
:100EE0000803002B0AD17B68D8697B6820330B226A
:100EF0001946FFF701FD0346002B0BD0002178684F
:100F0000FFF7C5FE0346FB75FB7D002BC5D002E055
:100F100000BF00E000BFFB7D18461837BD4680BD0E
:100F200080B586B000AF786039603B6800225A72A5
:100F30007B689B69002B52D000233B613B697B613E
:100F400021E07B68DA697B69591C796113441B785D
:100F5000FB73FB7B202B00D115E0FB7B052B01D124
:100F6000E523FB737B69092B06D13B695A1C3A6167
:100F70003A6813442E225A723B695A1C3A613A6805
:100F80001344FA7B5A727B690A2BDAD93A683B69B7
:100F90001344093300221A707B68DB69DA7A3B68F4
:100FA0001A727B68DB691C331846FFF747FC024660
:100FB0003B681A607B68DB6916331846FFF726FC2E
:100FC00003461A463B68DA807B68DB6918331846AB
:100FD000FFF71CFC03461A463B689A8000E000BFFE
:100FE0001837BD4680BDFFFF80B58AB000AF78607E
:100FF00039603B681B687B617B6820333B610B2257
:1010000020213869FFF75EFC0023BB61BB69FB61EF
:1010100008233B62FB695A1CFA617A6913441B7806
:1010200087F8273097F82730202B40F2898097F8EF
:1010300027302F2B07D097F827305C2B10D102E0F8
:10104000FB690133FB617A69FB6913441B782F2B21
:10105000F6D07A69FB6913441B785C2BF0D070E002
:1010600097F827302E2B03D0BA693B6A9A420DD3EA
:101070003B6A0B2B03D097F827302E2B01D0062389
:101080007BE00823BB610B233B6258E097F92730D4
:10109000002B07DA97F8273003F07F03394AD35C37
:1010A00087F8273097F827301846FFF767FC034684
:1010B000002B24D0FB695A1CFA617A6913441B780F
:1010C000FB73FB7B1846FFF76AFC0346002B04D03A
:1010D0003B6A013BBA699A4201D306234DE0BB69E2
:1010E0005A1CBA613A69134497F827201A70BB69F1
:1010F0005A1CBA613A691344FA7B1A708AE797F866
:10110000273019462048FFF71EFC0346002B01D06C
:10111000062332E097F82730602B08D997F827305C
:101120007A2B04D897F82730203B87F82730BB6903
:101130005A1CBA613A69134497F827201A7069E774
:1011400000BF7A69FB691A443B681A60BB69002BCF
:1011500001D1062311E03B691B78E52B02D13B69E5
:1011600005221A7097F82730202B01D8042200E0BE
:1011700000223B690B331A70002318462837BD46FE
:1011800080BD00BF5C37001ADC37001A80B586B01E
:1011900000AF786039607B681B683B6102E03B68A8
:1011A00001333B603B681B782F2BF8D03B681B78E2
:1011B0005C2BF4D07B6800229A603B681B781F2B65
:1011C0000AD87B68802283F82B2000217868FFF7FB
:1011D000E3FC0346FB7543E03B4619467868FFF79E
:1011E00003FF0346FB75FB7D002B34D17868FFF7C6
:1011F00042FE0346FB757B6893F82B30FB73FB7D47
:10120000002B0AD0FB7D042B27D1FB7B03F00403CA
:10121000002B22D10523FB751FE0FB7B03F00403A9
:10122000002B1CD17B689B7903F01003002B02D1AB
:101230000523FB7514E03B6903F128027B681B69F9
:10124000C3F30803134419463869FFF798FD0246B3
:101250007B689A60C0E700BF02E000BF00E000BF0B
:10126000FB7D18461837BD4680BD80B489B000AFFD
:1012700078604FF0FF337B617B681B683B613B69A3
:10128000FB613B69002B01D17B692DE0FB695A1C96
:10129000FA611B78FB73FB7B202B02D9FB7B3A2B7B
:1012A000F4D1FB7B3A2B1CD10123BB613B691B783A
:1012B0002F2B0CD93B691B78392B08D83B6902339B
:1012C000FA699A4203D13B691B78303BBB61BB6929
:1012D000002B04DCBB697B617B68FA691A607B695F
:1012E00002E000237B617B6918462437BD465DF828
:1012F000047B704780B582B000AF786039607B684E
:101300000022DA707B684FF0FF325A6239687868E1
:10131000FFF756FB0346002B01D0042338E07B681F
:10132000283303F5FF731846FFF770FA03461A4691
:101330004AF655239A4201D0032329E07B6893F8AB
:101340002830E92B09D07B6893F82830EB2B04D0A8
:101350007B6893F82830E82B19D17B682833363323
:1013600003220D491846FFF7C7FA0346002B01D1A7
:1013700000230DE07B6828335233052207491846C5
:10138000FFF7BAFA0346002B01D1002300E0022345
:1013900018460837BD4680BDEC37001AF037001AF2
:1013A00080B596B000AFF860B9601346FB71BB68BA
:1013B00000221A60F868FFF758FFF863FB6B002BF8
:1013C00001DA0B23CBE1AD4AFB6B52F82330BB6350
:1013D000BB6B002B01D10C23C1E1BB68BA6B1A6057
:1013E000FB7923F00103FB71BB6B1B78002B0FD043
:1013F000BB6B5B78184600F06DFE034687F837300C
:1014000097F8373003F00103002B01D10023A6E148
:10141000BB6B00221A70FB6BDAB2BB6B5A70BB6BF2
:101420005B78184600F062FE034687F8373097F87D
:10143000373003F00103002B01D003238FE1002399
:101440003B65396DB86BFFF755FF034687F857309A
:1014500097F85730022B4BD100233B641FE0BB6B46
:1014600003F128023B6C1B0103F5DF7313443B635C
:101470003B6B04331B78002B06D03B6B08331846BC
:10148000FFF7DCF9024600E000223B6C9B0007F10D
:1014900058010B4443F8442C3B6C01333B643B6CD8
:1014A000032BDCD900233B643B6C002B02D03B6C4C
:1014B000013B3B643B6C9B0007F15802134453F81B
:1014C000443C3B653B6D002B05D0396DB86BFFF795
:1014D00011FF034600E0032387F8573097F8573091
:1014E000012B05D93B6C01333B643B6C032BE1D9E9
:1014F00097F85730042B01D1012330E197F857308A
:10150000012B01D90D232AE1BB6B28330B3318467D
:10151000FFF77CF90346B3F5007F01D00D231EE1F0
:10152000BB6B283316331846FFF770F90346FB648C
:10153000FB6C002B06D1BB6B283324331846FFF716
:101540007DF9F864BB6BFA6C1A61BB6B93F83820B9
:10155000BB6B9A70BB6B9B78012B05D0BB6B9B78E8
:10156000022B01D00D23FAE0BB6B9B781A46FB6C73
:1015700002FB03F3FB64BB6B93F835309AB2BB6B91
:101580005A81BB6B5B89002B08D0BB6B5B891A4609
:10159000BB6B5B89013B1340002B01D00D23DEE0C8
:1015A000BB6B283311331846FFF730F903461A4650
:1015B000BB6B1A81BB6B1B8903F00F039BB2002B23
:1015C00001D00D23CBE0BB6B283313331846FFF754
:1015D0001DF90346BB64BB6C002B06D1BB6B2833E3
:1015E00020331846FFF72AF9B864BB6B28330E3353
:1015F0001846FFF70BF90346FB85FB8D002B01D145
:101600000D23ACE0FA8DFB6C1344BA6B12891209FE
:1016100092B21344BB62BA6CBB6A9A4201D20D23E8
:101620009DE0BA6CBB6AD31ABA6B5289B3FBF2F372
:101630007B627B6A002B01D10D2390E0002387F8A9
:1016400057307B6A0E4A934202D8032387F85730FB
:101650007B6A4FF6F572934202D8022387F857301F
:101660007B6A40F6F572934202D8012387F857301F
:1016700097F85730002B05D10D2370E02804001097
:10168000F5FFFF0F7B6A9A1CBB6BDA60BB6B3A6D90
:101690005A61FA8D3B6D1A44BB6B9A613A6DBB6A15
:1016A0001A44BB6B1A6297F85730032B1ED1BB6BE1
:1016B00028332A331846FFF7A9F80346002B01D038
:1016C0000D234CE0BB6B1B89002B01D00D2346E0A2
:1016D000BB6B28332C331846FFF7B0F80246BB6BC0
:1016E000DA61BB6BDB689B007B641FE0BB6B1B8913
:1016F000002B01D10D2332E0BB6B9A69FB6C1A44BD
:10170000BB6BDA6197F85730022B03D1BB6BDB68F8
:101710005B000AE0BB6BDA6813465B0013445A08AF
:10172000BB6BDB6803F0010313447B64BB6B1A697A
:101730007B6C03F2FF135B0A9A4201D20D230EE089
:10174000BB6B97F857201A70074B1B8801339AB26E
:10175000054B1A80044B1A88BB6BDA8000231846AD
:101760005837BD4680BD00BF2C04001080B584B042
:1017700000AF786039600923FB737B68002B1CD0B5
:101780007B681B68002B18D07B681B681B78002BBC
:1017900013D07B689A887B681B68DB889A420CD1DF
:1017A0007B681B685B78184600F094FC034603F0E6
:1017B0000103002B01D10023FB73FB7B002B02D123
:1017C0007B681B6800E000233A681360FB7B1846C7
:1017D0001037BD4680BDFFFF80B588B000AFF86010
:1017E000B9601346FB71BB683B6107F110031846F3
:1017F000FFF73BFDF861FB69002B01DA0B2325E0C5
:10180000144AFB6952F82330BB61BB69002B02D03C
:10181000BB6900221A70FB68002B02D0FB68002213
:101820001A70FA680B49FB6941F82320FB79002BF9
:1018300001D100230AE007F10C0107F1080300229F
:101840001846FFF7ADFD0346FB75FB7D18462037B4
:10185000BD4680BD2804001080B592B000AFF8608E
:10186000B9601346FB71FB68002B01D1092364E0CA
:10187000FB7903F00103FB71FA7907F1140107F119
:1018800008031846FFF78CFD034687F8473097F8A2
:101890004730002B48D17B69BB61BA6807F1180358
:1018A00011461846FFF772FC034687F8473097F851
:1018B0004730002B10D197F843305BB2002B03DA8E
:1018C000062387F8473007E0BB7F03F01003002BA7
:1018D00002D0042387F8473097F84730002B23D1F4
:1018E0007B697A6B11461846FFF749FA0246FB6896
:1018F0009A607B6B1C331846FEF7A0FF0246FB681C
:10190000DA607A69FB681A607B69DA88FB689A801A
:10191000FB68FA791A74FB6800225A74FB6800228B
:10192000DA61FB6800225A6197F84730002B02D039
:10193000FB6800221A6097F8473018464837BD46C2
:1019400080BD80B58EB000AFF860B9607A603B6052
:10195000BB687B623B6800221A60FB6807F11402D7
:1019600011461846FFF702FF034687F8373097F80D
:101970003730002B07D1FB685B7C87F8373097F84E
:101980003730002B02D097F83730D1E0FB681B7C52
:1019900003F00103002B01D10723C9E0FB68DA68DB
:1019A000FB685B69D31A3B627A683B6A9A4240F2F1
:1019B000BA803B6A7B60B6E0FB685B69C3F30803EF
:1019C000002B40F08280FB685B695B0A7A69528970
:1019D000013A1340FB61FB69002B23D1FB685B6973
:1019E000002B03D1FB689B683B6307E0FA68FB6848
:1019F0009B6919461046FFF72AF838633B6B012BA9
:101A000004D8FB6802225A74022391E03B6BB3F1C5
:101A1000FF3F04D1FB6801225A74012388E0FB6870
:101A20003A6B9A617A69FB689B6919461046FEF722
:101A3000EFFFB861BB69002B04D1FB6802225A7426
:101A4000022375E0BA69FB691344BB617B685B0ADA
:101A5000BB62BB6A002B1FD0FA69BB6A13447A6968
:101A60005289934205D97B695B891A46FB69D31A6F
:101A7000BB627B695878BB6ABA69796A00F042FB3D
:101A80000346002B04D0FB6801225A7401234FE067
:101A9000BB6A5B02FB6232E0FB68DB69BA699A42AF
:101AA00010D07B695878FB6803F120010123BA69E3
:101AB00000F028FB0346002B04D0FB6801225A7477
:101AC000012335E0FB68BA69DA61FB685B69C3F33F
:101AD0000803C3F50073FB62FA6A7B689A4201D976
:101AE0007B68FB62FB6803F12002FB685B69C3F360
:101AF00008031344FA6A1946786AFEF7C2FE7A6848
:101B0000FB6AD31A7B603B681A68FB6A1A443B681D
:101B10001A607A6AFB6A13447B62FB685A69FB6A43
:101B20001A44FB685A617B68002B7FF445AF0023A1
:101B300018463837BD4680BD80B584B000AF7860A8
:101B40007B6807F1080211461846FFF70FFE0346AF
:101B5000FB73FB7B002B02D17B6800221A60FB7BAE
:101B600018461037BD4680BD80B584B000AF7860A0
:101B700039607B68002B01D109234AE007F1080195
:101B80003B4600221846FFF70BFC0346FB73FB7B2A
:101B9000002B37D1BA687B681A603B6819467868B1
:101BA000FFF7F4FA0346FB73FB7B002B25D17B6820
:101BB00093F82B305BB2002B12DB7B689B7903F030
:101BC0001003002B0AD0BA687B68DB6919461046FF
:101BD000FFF7D5F802467B689A6001E00523FB73A6
:101BE000FB7B002B09D1BB68DA887B689A800021D7
:101BF0007868FEF7D1FF0346FB73FB7B042B01D112
:101C00000523FB73FB7B002B02D07B6800221A604C
:101C1000FB7B18461037BD4680BD80B584B000AF51
:101C200078607B6807F1080211461846FFF79EFDB1
:101C30000346FB73FB7B002B02D17B6800221A60FA
:101C4000FB7B18461037BD4680BD80B584B000AF21
:101C5000786039607B6807F1080211461846FFF783
:101C600085FD0346FB73FB7B002B26D13B68002BD5
:101C700006D100217868FEF78FFF0346FB731CE056
:101C800000217868FFF79AF80346FB73FB7B042B6F
:101C900001D10023FB73FB7B002B0ED139687868E0
:101CA000FFF73EF900217868FEF7F1FF0346FB736A
:101CB000FB7B042B01D10023FB73FB7B1846103701
:101CC000BD4680BD80B58AB000AFF860B9607A606B
:101CD00000237B62FB683B62BB68013BBB6018E092
:101CE00007F1140307F1180101227868FFF729FEB4
:101CF0007B69012B12D13B7EFB613B6A5A1C3A6225
:101D0000FA69D2B21A707B6A01337B62FB690A2BD3
:101D100006D07A6ABB689A42E2DB02E000BF00E0CC
:101D200000BF3B6A00221A707B6A002B01D0FB685F
:101D300000E0002318462837BD4680BD80B400AFC0
:101D4000024B1846BD465DF8047B70474439001AC3
:101D500080B5ADF5E06D00AFFEF702FC3B1D1A4605
:101D60000023136053609360D360136107F514730D
:101D7000012238491846FFF72FFD0346002B02D0F9
:101D8000354800F0E5F807F58F6334491846FFF74A
:101D9000EBFE25E0314800F07BF807F1180309332A
:101DA000184600F075F807F118031B7A03F01003CA
:101DB000002B03D02A4800F06BF80EE007F118035F
:101DC0001B683A1D1146184600F022F9254800F01C
:101DD0005FF83B1D184600F05BF8234800F058F808
:101DE00007F1180207F58F6311461846FFF72DFF1C
:101DF0000346002B04D107F118035B7A002BC9D1ED
:101E000007F58F631846FFF708FF184800F040F801
:101E100007F59C63012216491846FFF71DFD04E0F3
:101E200007F27C43184600F033F807F59C6207F28E
:101E30007C4364211846FFF745FF0346002BEFD192
:101E4000094800F025F807F59C631846FFF774FE73
:101E5000FEE700BFFC37001A0038001A1C38001AD1
:101E60002038001A2C38001A3038001A3438001A7A
:101E70005438001A80B483B000AF786039607B6852
:101E80003A685A6200BF0C37BD465DF8047B704764
:101E900080B582B000AF7860786801F0F1FB03464E
:101EA0001A467968034800F033FC00BF0837BD4686
:101EB00080BD00BF00100C4080B400AF034B012276
:101EC0001A7000BFBD465DF8047B70472F040010F8
:101ED00080B500AF044B01221A7001210348FFF7BF
:101EE000C9FF00BF80BD00BF2E0400100070084075
:101EF00080B500AF044B02221A7002210348FFF79D
:101F0000B9FF00BF80BD00BF2E0400100070084064
:101F100080B500AF044B03221A7004210348FFF779
:101F2000A9FF00BF80BD00BF2E0400100070084054
:101F300080B500AF044B04221A7008210348FFF754
:101F400099FF00BF80BD00BF2E0400100070084044
:101F5000B0B586B000AF0D4B3C1D1D460FCD0FC474
:101F60002B681A46228002341B0C23703B1D184636
:101F700001F086FB03461A463B1D1946044800F053
:101F8000C7FB00BF1837BD46B0BD00BF6038001AA0
:101F900000100C4080B485B000AF78600023FB6077
:101FA0000AE0FB680133FB607B68084A82FB03128E
:101FB0009210DB17D31A7B607B68002BF1DCFB6887
:101FC00018461437BD465DF8047B70476766666641
:101FD00080B584B000AF78600023FB737B6818463F
:101FE000FFF7D8FF0346002B0BD07968074BA3FB04
:101FF0000123DA0813469B0013445B00CA1A1346F8
:10200000FB73FB7B18461037BD4680BDCDCCCCCCD6
:10201000B0B586B000AF786039606B461D467B680E
:102020001846FFF7B7FF03467B75787D0346013BF3
:102030003B61C1B24FF000024FF000034FF00004CB
:10204000D40044EA5174CB00C1B24FF000024FF00B
:1020500000034FF00004D40044EA5174CB0003465F
:102060000733DB08DB00ADEB030D6B460033FB6091
:102070007B7DBB7511E0BB7D5C1E7868FFF7A8FF18
:1020800003461A46FB681A557B68114AA2FB0323D4
:10209000DB087B60BB7D013BBB75BB7D002BEAD1C0
:1020A0000023FB750BE0FB7DFA68D25CFB7D396891
:1020B0000B443032D2B21A70FB7D0133FB75FA7DCE
:1020C0007B7D9A42EFD3AD4600BF1837BD46B0BD09
:1020D000CDCCCCCC80B483B000AF0346FB710023E1
:1020E00018460C37BD465DF8047B704780B483B05A
:1020F00000AF0346FB71002318460C37BD465DF860
:10210000047B704780B58AB000AFB9607A603B60ED
:102110000346FB7300233B627B685B02BB610023C9
:102120007B6220E07B6A5B02BA6913447B61002317
:10213000FB6111E0FFF702FE01467A69FB69134477
:10214000CA18B9683B6A0B4412781A703B6A0133AB
:102150003B62FB690133FB61FB69B3F5007FE9D3A7
:102160007B6A01337B627A6A3B689A42DAD3002346
:1021700018462837BD4680BD80B489B000AF164BE5
:10218000FB61164BBB61164B7B610023FB74BB6983
:102190001B68BB607B691B687B60BB68114A93420C
:1021A00005D17B68104A934201D1012300E000234E
:1021B000FB74FB7C002B09D0FB691B68FB60FB6890
:1021C00043F47003FB60FA68FB691A6000BF2437B0
:1021D000BD465DF8047B704788ED00E040EF00E00D
:1021E00044EF00E0210011101100001180B400AF95
:1021F000054B5B6C044A43F00103536400BFBD46CA
:102200005DF8047B704700BF0000054080B483B0D8
:1022100000AF78607B681B681A467B681B791B06D9
:1022200013437A681269120413437A68926812039E
:1022300013437A68D26812021343054A43F40063D9
:10224000536400BF0C37BD465DF8047B704700BF88
:102250000000054080B400AF064B1B6C03F0010387
:10226000002B14BF01230023DBB21846BD465DF8E6
:10227000047B70470000054090B58FB000AF034667
:102280003960FB711346BB714FF4FA73BB620023D4
:102290003B630023FB62FB79062B01D100F0D8FDE4
:1022A000F97900230122042000F0C4FFFFF79EFF0C
:1022B000FB793B7307F108031946386800F000FE0C
:1022C0003B683D4A934216D9BB6803F04003002B9C
:1022D00000D0FEE7BB6803F08003002B06D001238B
:1022E0003B63BB6823F08003BB6004E00123FB6217
:1022F0007B6901337B6107F108031846FFF786FF0E
:1023000000BFFFF7A7FF0346002BFAD000230122EE
:102310000921042000F08EFF3B6B002B12D041F608
:102320005833BB6200BFBB6A5A1EBA62002BFAD197
:10233000BB6843F08003BB6007F108031846FFF752
:1023400065FF13E0FB6A002B10D04FF47A73BB6279
:1023500000BFBB6A5A1EBA62002BFAD17B69013BEF
:102360007B6107F108031846FFF750FFBB79002B8C
:102370001ED000237B6318E0104A7B6B12F8230009
:102380000E4A7B6B9B00134459780C4A7B6B9B0075
:1023900013449C78094A7B6B9B001344DB782246EC
:1023A00000F048FF7B6B01337B637B6B112BE3D920
:1023B00000BF3C37BD4690BD80778E067438001A4A
:1023C00080B500AF012203490620FFF755FF00BF8B
:1023D00080BD00BF00CB280C80B483B000AF786014
:1023E0007B680C331A687B6810331B689A420CBFF9
:1023F00001230023DBB218460C37BD465DF8047B91
:10240000704780B483B000AF78607B680022DA65E3
:1024100000BF0C37BD465DF8047B704780B483B0C5
:1024200000AF78600B46FB70FA787B681A6000BFDB
:102430000C37BD465DF8047B704780B483B000AFB5
:1024400078607B681B68DBB218460C37BD465DF8C8
:10245000047B704780B483B000AF786039607B68DC
:102460005A683B68DB431A407B685A6000BF0C37F0
:10247000BD465DF8047B704780B483B000AF7860E0
:102480007B689B6818460C37BD465DF8047B704737
:1024900080B483B000AF786039607B683A689A6036
:1024A00000BF0C37BD465DF8047B704780B483B035
:1024B00000AF786039607B683A68DA6000BF0C373B
:1024C000BD465DF8047B704780B483B000AF786090
:1024D0007B68DB6843F080027B68DA6000BF0C3702
:1024E000BD465DF8047B704780B483B000AF786070
:1024F0007B68DB6823F080027B68DA6000BF0C3702
:10250000BD465DF8047B704780B483B000AF78604F
:102510000B46FB701346BB70FA787B681A60BA787A
:102520007B685A6000BF0C37BD465DF8047B70477E
:1025300080B483B000AF78607B685B6918460C3765
:10254000BD465DF8047B704780B483B000AF78600F
:1025500039607B681A6A3B681A437B681A6200BF5D
:102560000C37BD465DF8047B7047FFFF80B485B033
:1025700000AF78607B68FB60FB68104A93420FD025
:102580000E4A934203D80E4A934207D00EE00D4AFA
:10259000934207D00C4A934206D007E0002306E09E
:1025A000012304E0022302E0032300E00023184695
:1025B0001437BD465DF8047B704700BF002008401B
:1025C0000010084000100C4000200C4080B582B084
:1025D00000AF78607868FFF74FFF034603F480731D
:1025E000002B11D04FF480717868FFF7ADFF4FF4E6
:1025F00080717868FFF72EFF0E4B1B78DBB2002B43
:1026000002D10C4B01221A707868FFF735FF0346A0
:1026100003F40073002B09D04FF400717868FFF7C2
:1026200093FF4FF400717868FFF714FF00BF08377D
:10263000BD4680BD3004001080B584B000AF786026
:10264000FB687868FFF792FF02461B4B33F81200D5
:1026500001230122012100F061FE07217868FFF7C4
:1026600017FF7868FFF7CDFE7B6800225A607B6811
:102670000022DA607B6800221A627B680022DA643A
:102680007B6800225A657B6800221A657B680B4ACA
:10269000934205D17B6800221A617B689B69FB60CD
:1026A00003217868FFF702FF7B6810229A6200BF5F
:1026B0001037BD4680BD00BFBC38001A002008405E
:1026C00080B586B000AFF860B9607A6000237B61A6
:1026D000BB683B610BE03B691B781946F868FFF764
:1026E0009DFE3B6901333B617B6901337B617A6904
:1026F0007B689A4207DAF868FFF71AFF034603F08F
:102700002003002BE7D17B6918461837BD4680BDF2
:1027100080B588B000AFF860B9607A600023FB61D3
:10272000BB68BB6111E07A68B969F868FFF7C8FF58
:1027300078617A687B69D31A7B60FA697B69134494
:10274000FB617B69BA691344BB617B68002BEADCDF
:10275000FB6918462037BD4680BDFFFF80B586B0B7
:1027600000AF786039607868FFF700FF0246164BCB
:1027700033F81230184600F03FFE78613B681B01C9
:102780007A69B2FBF3F33B613B691B0AFB60FB68B0
:102790001B023A69D31ABB607868FFF795FEBB68E5
:1027A000DBB2FA68D2B219467868FFF7ADFE7868F6
:1027B000FFF79AFE7A693B69B2FBF3F31B091846EF
:1027C0001837BD4680BD00BFC438001A80B584B03C
:1027D00000AF786039600AE07868FFF72EFE0346A4
:1027E000FB7307F10F031946386800F00AF978689F
:1027F000FFF79EFE034603F00103002BECD100BF60
:102800001037BD4680BD80B584B000AF78603960B8
:1028100004E0FB7B19467868FFF700FE7868FFF755
:1028200087FE034603F02003002B08D007F10F03B7
:102830001946386800F013F90346002BE9D13868CF
:10284000FFF7CAFD0346002B03D002217868FFF78B
:1028500001FE00BF1037BD4680BD80B584B000AF1B
:10286000F860B9607A60FB685B6803F00203002BD4
:102870000DD07968F868FFF7C6FF7868FFF7ACFD00
:102880000346002B03D00221F868FFF7E3FDB96887
:10289000F868FFF79BFFF868FFF798FE00BF103756
:1028A000BD4680BD80B483B000AF78607B685B6854
:1028B00043F001027B685A6000BF0C37BD465DF8EB
:1028C000047B704780B483B000AF786039607B6868
:1028D0003A68DA6000BF0C37BD465DF8047B70478C
:1028E00080B582B000AF08237B60144800F006FE7C
:1028F0007B68013B19461148FFF7E4FF0F48FFF7DB
:10290000D1FF842000F078FD02467B68B2FBF3F330
:102910000B4A13600A4B1B680A4AA2FB03239B095C
:10292000094A1360064B1B68084AA2FB03239B0C51
:10293000074A136000BF0837BD4680BD004008400D
:1029400034040010D34D62103804001083DE1B43A2
:102950003C04001080B483B000AF78607B680C3317
:102960001A687B6810331B68D31A18460C37BD46AB
:102970005DF8047B704780B582B000AF78607868FE
:10298000FFF7E8FF02467B685B689A42ACBF012311
:102990000023DBB218460837BD4680BD80B483B043
:1029A00000AF78607B680C331A687B6810331B6853
:1029B0009A420CBF01230023DBB218460C37BD46F8
:1029C0005DF8047B704780B485B000AFF860B960F3
:1029D0007A603B60FB68BA681A60FB683A685A60C4
:1029E000FB687A689A60FB6800221A61FB681A69C2
:1029F000FB68DA60012318461437BD465DF8047B96
:102A0000704780B584B000AF786039607B681B6820
:102A1000FB607868FFF7AFFF0346002B01D000236F
:102A200019E07B68DB687A685268013A13407A687B
:102A3000926802FB03F3FA681344FB607B689B68AF
:102A40001A463968F86800F069FD7B68DB685A1C33
:102A50007B68DA60012318461037BD4680BD80B51B
:102A600084B000AF786039607B681B68FB60786871
:102A7000FFF794FF0346002B01D0002319E07B6889
:102A80001B697A685268013A13407A68926802FBBF
:102A900003F3FA681344FB607B689B681A46F96885
:102AA000386800F03BFD7B681B695A1C7B681A6123
:102AB000012318461037BD4680BD80B483B000AFF7
:102AC00078607B68002B02DA7B685B4200E07B6801
:102AD00018460C37BD465DF8047B704780B588B05A
:102AE00000AF786039607B68FB613B681B6803F06E
:102AF0008003002B05D03B681B6823F040023B6835
:102B00001A600123BB616FE000233B6166E0012393
:102B10007B615AE03B681B6803F04003002B0ED03A
:102B20003B6901337A6902FA03F31A463B685B6931
:102B300003FB02F2BB69B2FBF3F3FB6008E03B6806
:102B40005B697A6902FB03F2BB69B2FBF3F3FB60DA
:102B5000FB68294A934234D9FB68284A934239D802
:102B60003B681B6803F08003002B02D0FB68BB604E
:102B700005E03B690133FA6822FA03F3BB607A6827
:102B8000BB68D31A1846FFF798FF0246FB699342C9
:102B900018D93B68BA699A603B695A1C3B68DA608D
:102BA0003B687A691A613B68BA689A613B68FA685F
:102BB000DA617A68BB68D31A1846FFF77EFFF861BE
:102BC00000E000BF7B6901337B617B69B3F5807FE7
:102BD000A0DD00E000BF3B6901333B613B69032B93
:102BE00095DDBB690133BB61BB69042B8CDD00BF84
:102BF0002037BD4680BD00BFFF5E4C0900D01213D8
:102C0000B0B59EB000AF7860396007F10C03602268
:102C100000211846FDF774FBFB6843F08003FB605E
:102C20003B685B693B623B681B793B7407F10C03B3
:102C300019467868FFF752FF7B6A7A689A420AD190
:102C40003B681D4607F10C040FCC0FC594E80F003C
:102C500085E80F008EE07B6A7A68D31A1846FFF782
:102C60002CFF0346FB66FB6C23F04003FB643B68D0
:102C70005B693B663B681B7987F8503007F10C03B2
:102C8000403319467868FFF729FF7B6E7A689A42CD
:102C90000AD13B681D4607F14C040FCC0FC594E8E0
:102CA0000F0085E80F0065E07B6E7A68D31A18463E
:102CB000FFF703FF03467B677B68304A93421AD8CD
:102CC0004023FB623B685B693B6407F10C032033E4
:102CD00019467868FFF702FF7B6C7A689A420AD13E
:102CE0003B681D4607F12C040FCC0FC594E80F007C
:102CF00085E80F003EE07B6C7A68D31A1846FFF730
:102D0000DCFE03463B67FA6E3B6F9A4219DCFA6EB3
:102D10007B6F9A420ADC3B681D4607F10C040FCC1E
:102D20000FC594E80F0085E80F0023E03B681D46BF
:102D300007F14C040FCC0FC594E80F0085E80F0095
:102D400018E03A6F7B6F9A420ADC3B681D4607F138
:102D50002C040FCC0FC594E80F0085E80F0009E0A4
:102D60003B681D4607F14C040FCC0FC594E80F00DB
:102D700085E80F007837BD46B0BD00BF80778E066E
:102D800080B584B000AF03460A46FB711346BB71A1
:102D9000BB79184600F060F90346FB73BB7918460F
:102DA00000F07AF9B860FB7B184600F091F9024612
:102DB000BB680133B2FBF3F318461037BD4680BD44
:102DC00080B485B000AF0346FB801C23FB73002357
:102DD000BB6024E01D49BA6813465B0013445B00E6
:102DE0000B441B88FA889A4216D31849BA681346CE
:102DF0005B0013445B000B4402331B88FA889A4241
:102E00000AD81249BA6813465B0013445B000B44AE
:102E100004331B78FB7302E0BB680133BB60FB7BB0
:102E20001C2B0BD10949BA6813465B0013445B00A5
:102E30000B4404331B78FA7B9A42CBD1FB7B1846B8
:102E40001437BD465DF8047B704700BFCC38001ACC
:102E500080B483B000AF4FF47A733B60154B9B692D
:102E60007B607B6823F002037B60124B9B697A686E
:102E70009A4202D00F4A7B6893617B6823F001037A
:102E80007B600D4B1B680D4A934203D97B6843F06E
:102E900004037B60074A7B68936100BF3B685A1E4E
:102EA0003A60002BFAD100BF0C37BD465DF8047BB9
:102EB000704700BF000005405C38001AFF2C31014C
:102EC00080B582B000AF786039603B681B791846E6
:102ED00000F0FEF802463B685A617B682B4A934239
:102EE00007D87B682A4A934203D93B685B69002B69
:102EF00002D14FF0FF3344E03B6880221A603B6808
:102F000000229A603B680022DA603B685B697A685D
:102F1000B2FBF3F31A463B681A617B681D4A934281
:102F200009D93B681B691A463B685B6903FB02F3DE
:102F30007A689A420FD039687868FFF761FE3B687B
:102F40009B68002B02D14FF0FF331AE03B689B686F
:102F50005A1E3B689A603B681B69002B02D14FF0F8
:102F6000FF330EE03B68DB68002B04D03B68DB6876
:102F70005A1E3B68DA603B681B695A1E3B681A613F
:102F8000002318460837BD4680BD00BF00CB280C83
:102F9000EFC59400FF5E4C0980B58CB000AF2C4BA0
:102FA0005B6CFB62FB6A1B0EDBB203F00F03DBB250
:102FB000184600F08DF8B862264B1B687B60244BE6
:102FC0001B6C03F00103002B01D100233BE0FB6AE3
:102FD0001B0CDBB27B62FB6A1B0B03F003033B623F
:102FE000FB6A1B0A03F00303FB61FB6ADB0903F0C6
:102FF0000103BB61FB6A9B0903F001037B617B6AF0
:1030000001333B613B6A0133FB603A1DFB691344AA
:103010001B78BB60BB69002B02D17B69002B07D0FA
:10302000BA6AFB68B2FBF3F33A6902FB03F30AE006
:10303000BB685B003A69B2FBF3F3B96AFA68B1FBAB
:10304000F2F202FB03F318463037BD4680BD00BFE5
:10305000000005403839001A80B485B000AF03463F
:10306000FB710C4AFB79123352F82330FB60FB688A
:1030700003F00103002B01D0112305E0FB681B0EB8
:10308000DBB203F01F03DBB218461437BD465DF810
:10309000047B70470000054080B483B000AF034656
:1030A000FB71094AFB79123352F823309B08DAB2DC
:1030B000FB790649CB5C1340DBB218460C37BD46A2
:1030C0005DF8047B704700BF000005403C39001AE2
:1030D00080B584B000AF0346FB710023FB60FB7931
:1030E000112B7FD801A252F823F000BF3531001A0E
:1030F0003D31001A4331001A5731001A7131001A5C
:10310000E531001A7931001A8131001A8931001A2B
:103110009131001AE531001AE531001A9931001A8F
:10312000A731001AB531001AC331001AD131001A83
:10313000DF31001A4FF40043FB6056E02D4BFB607B
:1031400053E02D4BD3F82C3103F00703042B4BD065
:103150002A4BFB6048E0284BD3F82C3103F00703DF
:10316000042B02D0254BFB603FE0254BFB603CE08D
:10317000244B1B68FB6038E0234B1B68FB6034E08A
:10318000224B1B68FB6030E0204B5B68FB602CE04F
:10319000FFF702FFF86028E0FB7900211846FFF7EF
:1031A000EFFDF86021E0FB7901211846FFF7E8FD0B
:1031B000F8601AE0FB7902211846FFF7E1FDF8609C
:1031C00013E0FB7903211846FFF7DAFDF8600CE005
:1031D000FB7904211846FFF7D3FDF86005E00023D2
:1031E000FB6002E000BF00E000BFFB68184610373C
:1031F000BD4680BD001BB7000030044040787D0113
:1032000080F0FA025838001A5C38001A40040010A6
:1032100080B582B000AF0346FB71FB79184600F021
:1032200057F803461846FFF753FF0346184608377A
:10323000BD4680BD90B484B000AF04460846114638
:103240001A462346FB710346BB710B467B7113463E
:103250003B711D4AFB7916339B0013445B68FB608E
:10326000FB791B2B22D8BB79112B28D0FA68174B7E
:103270001340FB607B79002B03D0FB6843F40063B1
:10328000FB603B79002B03D0FB6843F00103FB603C
:10329000BB791B061A46FB681343FB600A4AFB799D
:1032A00016339B001344FA685A6008E00649FB791C
:1032B000FA6842F0010216339B000B445A6000BFCB
:1032C0001037BD4690BC704700000540FEF7FFE098
:1032D00080B485B000AF0346FB71FB791B2B01D98D
:1032E000112313E00C4AFB7916339B0013445B68EF
:1032F000FB60FB6803F00103002B01D0112305E004
:10330000FB681B0EDBB203F01F03DBB21846143759
:10331000BD465DF8047B70470000054080B485B071
:1033200000AF3B600346FB800B467B7113463B714D
:103330000123FB607B79002B03D0FB6843F0020381
:10334000FB603B79002B03D0FB6843F00403FB6078
:103350003B68022B03D1FB6843F02003FB60FB8832
:10336000B3F5A17F08D30A49FB88A3F5A1732033E5
:10337000FA6841F8332005E00649FB882033FA68F3
:1033800041F8332000BF1437BD465DF8047B704719
:10339000002005400010054080B483B000AF034614
:1033A000FB80FB88B3F5A17F10D3114AFB88A3F5FE
:1033B000A173203352F833200D49FB88A3F5A17384
:1033C00042F00102203341F833200BE0094AFB8828
:1033D000203352F833200749FB8842F001022033A2
:1033E00041F8332000BF0C37BD465DF8047B7047C1
:1033F000002005400010054080B586B000AF0346B0
:10340000FB80FB88B3F5A17F08D31B4AFB88A3F59B
:10341000A173203352F833307B6105E0174AFB88F3
:10342000203352F833307B617B6903F00103002BBA
:103430001BD0FB881846FFF7C3FC0346FB72FB7AE0
:103440001846FFF7E5FEF8607B695B0903F00703A8
:10345000002B02D101233B6101E002233B61FA68AA
:103460003B69B2FBF3F3FB6001E00023FB60FB6808
:1034700018461837BD4680BD0020054000100540A5
:1034800080B500AF6920FFF7B7FF0246014B1A6015
:1034900000BF80BD4804001080B483B000AF7860E6
:1034A00000BF0C37BD465DF8047B704780B485B023
:1034B00000AF78607B680E4A934202D1A423FB815F
:1034C0000FE07B680B4A934202D1A323FB8108E003
:1034D0007B68094A934202D18523FB8101E0842362
:1034E000FB81FB8918461437BD465DF8047B7047A5
:1034F00000400C4000300C400050084080B582B0C5
:1035000000AF78607868FFF7D1FF03461846FFF7F1
:1035100043FF00BF0837BD4680BDFFFF844641EA38
:10352000000313F003036DD1403A41D351F8043B3B
:1035300040F8043B51F8043B40F8043B51F8043B8D
:1035400040F8043B51F8043B40F8043B51F8043B7D
:1035500040F8043B51F8043B40F8043B51F8043B6D
:1035600040F8043B51F8043B40F8043B51F8043B5D
:1035700040F8043B51F8043B40F8043B51F8043B4D
:1035800040F8043B51F8043B40F8043B51F8043B3D
:1035900040F8043B51F8043B40F8043B51F8043B2D
:1035A00040F8043B51F8043B40F8043B403ABDD29C
:1035B000303211D351F8043B40F8043B51F8043B3E
:1035C00040F8043B51F8043B40F8043B51F8043BFD
:1035D00040F8043B103AEDD20C3205D351F8043BCD
:1035E00040F8043B043AF9D2043208D0D2071CBF99
:1035F00011F8013B00F8013B01D30B8803806046C2
:10360000704700BF082A13D38B078DD010F0030337
:103610008AD0C3F10403D21ADB071CBF11F8013BA7
:1036200000F8013B80D331F8023B20F8023B7BE7F6
:10363000043AD9D3013A11F8013B00F8013BF9D221
:103640000B7803704B7843708B78837060467047BB
:10365000FFFFFFFFFFFFFFFFFFFFFFFFFFFFFFFF7A
:10366000FFFFFFFFFFFFFFFFFFFFFFFFFFFFFFFF6A
:10367000FFFFFFFFFFFFFFFFFFFFFFFFFFFFFFFF5A
:1036800090F800F06DE9024520F007016FF0000CA2
:1036900010F0070491F820F040F049804FF000044A
:1036A0006FF00700D1E9002391F840F000F1080025
:1036B00082FA4CF2A4FA8CF283FA4CF3A2FA8CF35D
:1036C0004BBBD1E9022382FA4CF200F10800A4FAC4
:1036D0008CF283FA4CF3A2FA8CF3E3B9D1E9042318
:1036E00082FA4CF200F10800A4FA8CF283FA4CF34F
:1036F000A2FA8CF37BB9D1E9062301F1200182FA09
:103700004CF200F10800A4FA8CF283FA4CF3A2FA0E
:103710008CF3002BC6D0002A04BF04301A4612BA1C
:10372000B2FA82F2FDE8024500EBD2007047D1E91F
:10373000002304F00305C4F100004FEAC50514F0AE
:10374000040F91F840F00CFA05F562EA05021CBF7F
:1037500063EA050362464FF00004A9E7809A4541F9
:103760008E418F804545454949498E8F9092924FB1
:10377000994F555559999A9B9C9D9E9F41494F55EC
:10378000A5A5A6A7A8A9AAABACADAEAFB0B1B2B380
:10379000B4B5B6B7B8B9BABBBCBDBEBFC0C1C2C371
:1037A000C4C5C6C7C8C9CACBCCCDCECFD0D1D2D361
:1037B000D4D5D6D7D8D9DADBDCDDDEDFE0E1E2E351
:1037C000E4E5E6E7E8E9EAEBECEDEEEFF0F1F2F341
:1037D000F4F5F6F7F8F9FAFBFCFDFEFF222A2B2C94
:1037E0003A3B3C3D3E3F5B5D7C7F000046415400E0
:1037F000464154333200FFFF0D0A00000000000074
:103800004572726F72206D6F6E74616E646F2064AA
:103810007269766572200D0A000000002F0000001A
:1038200009093C444952203E0000000009090000FB
:103830000D0A00004C6563747572612064657364E1
:103840006520656C206172636869766F203A200D8F
:103850000A000000414100FF00000000001BB7000B
:103860006572726F72206465206C65637475726135
:103870000A0D00FF00010100090901000A09010009
:103880000107010102090100060901000C090101FB
:103890000D0901000E0901000F09010010090100C6
:1038A000110901001209010013090100141101009E
:1038B000191101001A1101001B1101008100820081
:1038C000A100A200C201A201820162010000050064
:1038D0000A002000240009004000400005006000AC
:1038E000A6000400C000C3000200E000E0000100E8
:1038F00000010001030020012001060040014001F9
:103900000C004201420119006201620113008201B0
:1039100082011200A201A2011100C201C201100025
:10392000E201E2010F00020202020E002202220264
:103930000D00230223021C0001020408030F0F0FD5
:10394000FF00FFFFEB3C906D6B66732E66617400A9
:10395000020401000200028000F801002000400083
:103960000000000000000000800029182996344E55
:103970004F204E414D4520202020464154313220D9
:1039800020200E1FBE5B7CAC22C0740B56B40EBB55
:103990000700CD105EEBF032E4CD16CD19EBFE54EE
:1039A000686973206973206E6F74206120626F6F85
:1039B0007461626C65206469736B2E2020506C65A5
:1039C00061736520696E73657274206120626F6F28
:1039D0007461626C6520666C6F70707920616E64D2
:1039E0000D0A707265737320616E79206B657920A2
:1039F000746F2074727920616761696E202E2E2E9B
:103A0000200D0A000000000000000000000000007F
:103A100000000000000000000000000000000000A6
:103A20000000000000000000000000000000000096
:103A30000000000000000000000000000000000086
:103A40000000000000000000000000000000000076
:103A50000000000000000000000000000000000066
:103A60000000000000000000000000000000000056
:103A70000000000000000000000000000000000046
:103A80000000000000000000000000000000000036
:103A90000000000000000000000000000000000026
:103AA0000000000000000000000000000000000016
:103AB0000000000000000000000000000000000006
:103AC00000000000000000000000000000000000F6
:103AD00000000000000000000000000000000000E6
:103AE00000000000000000000000000000000000D6
:103AF00000000000000000000000000000000000C6
:103B000000000000000000000000000000000000B5
:103B100000000000000000000000000000000000A5
:103B20000000000000000000000000000000000095
:103B30000000000000000000000000000000000085
:103B4000000055AAF8FFFF000000FFFFFF00F0FF94
:103B50000000000000000000000000000000000065
:103B60000000000000000000000000000000000055
:103B70000000000000000000000000000000000045
:103B80000000000000000000000000000000000035
:103B90000000000000000000000000000000000025
:103BA0000000000000000000000000000000000015
:103BB0000000000000000000000000000000000005
:103BC00000000000000000000000000000000000F5
:103BD00000000000000000000000000000000000E5
:103BE00000000000000000000000000000000000D5
:103BF00000000000000000000000000000000000C5
:103C000000000000000000000000000000000000B4
:103C100000000000000000000000000000000000A4
:103C20000000000000000000000000000000000094
:103C30000000000000000000000000000000000084
:103C40000000000000000000000000000000000074
:103C50000000000000000000000000000000000064
:103C60000000000000000000000000000000000054
:103C70000000000000000000000000000000000044
:103C80000000000000000000000000000000000034
:103C90000000000000000000000000000000000024
:103CA0000000000000000000000000000000000014
:103CB0000000000000000000000000000000000004
:103CC00000000000000000000000000000000000F4
:103CD00000000000000000000000000000000000E4
:103CE00000000000000000000000000000000000D4
:103CF00000000000000000000000000000000000C4
:103D000000000000000000000000000000000000B3
:103D100000000000000000000000000000000000A3
:103D20000000000000000000000000000000000093
:103D30000000000000000000000000000000000083
:103D400000000000F8FFFF000000FFFFFF00F0FF91
:103D50000000000000000000000000000000000063
:103D60000000000000000000000000000000000053
:103D70000000000000000000000000000000000043
:103D80000000000000000000000000000000000033
:103D90000000000000000000000000000000000023
:103DA0000000000000000000000000000000000013
:103DB0000000000000000000000000000000000003
:103DC00000000000000000000000000000000000F3
:103DD00000000000000000000000000000000000E3
:103DE00000000000000000000000000000000000D3
:103DF00000000000000000000000000000000000C3
:103E000000000000000000000000000000000000B2
:103E100000000000000000000000000000000000A2
:103E20000000000000000000000000000000000092
:103E30000000000000000000000000000000000082
:103E40000000000000000000000000000000000072
:103E50000000000000000000000000000000000062
:103E60000000000000000000000000000000000052
:103E70000000000000000000000000000000000042
:103E80000000000000000000000000000000000032
:103E90000000000000000000000000000000000022
:103EA0000000000000000000000000000000000012
:103EB0000000000000000000000000000000000002
:103EC00000000000000000000000000000000000F2
:103ED00000000000000000000000000000000000E2
:103EE00000000000000000000000000000000000D2
:103EF00000000000000000000000000000000000C2
:103F000000000000000000000000000000000000B1
:103F100000000000000000000000000000000000A1
:103F20000000000000000000000000000000000091
:103F30000000000000000000000000000000000081
:103F400000000000414120202020202020202020AF
:103F50000000D6A85E4D5F4D0000D6A85E4D07005C
:103F60000B000000E5202020202020202020202001
:103F70000000484C5D4D5F4D0000484C5D4D050014
:103F800006000000E56D0069004100720063000F4B
:103F900000626800690076006F000000FFFF00000B
:103FA000FFFFFFFFE549415243487E31202020209A
:103FB0000000D6A85E4D5F4D0000D6A85E4D0700FC
:103FC0000B0000004175006E004100720063000F9D
:103FD00000E56800690076006F000000FFFF000048
:103FE000FFFFFFFF554E415243487E3120202020E5
:103FF00000643B4C5D4D5F4D00003B4C5D4D04004B
:1040000006000000416F00740072006F0041000F55
:1040100000CB720063006800690076006F0000004A
:104020000000FFFF4F54524F41527E31202020208C
:104030000000484C5D4D5F4D0000484C5D4D050053
:1040400006000000E5202020202020202020202025
:104050000000D6A85E4D5E4D0000D6A85E4D07005C
:104060000B00000000000000000000000000000045
:104070000000000000000000000000000000000040
:104080000000000000000000000000000000000030
:104090000000000000000000000000000000000020
:1040A0000000000000000000000000000000000010
:1087400000000000486F6C61206D756E646F210A37
:108750000000000000000000000000000000000019
:108760000000000000000000000000000000000009
:1087700000000000000000000000000000000000F9
:1087800000000000000000000000000000000000E9
:108F40000000000048656C6C6F0A00000000000023
:108F50000000000000000000000000000000000011
:108F60000000000000000000000000000000000001
:108F700000000000000000000000000000000000F1
:108F800000000000000000000000000000000000E1
:1097400000000000416C6F68610A0000000000002A
:109750000000000000000000000000000000000009
:1097600000000000000000000000000000000000F9
:1097700000000000000000000000000000000000E9
:1097800000000000000000000000000000000000D9
:109F400000000000486F6C61206D756E646F0A0040
:109F50000000000000000000000000000000000001
:109F600000000000000000000000000000000000F1
:109F700000000000000000000000000000000000E1
:109F800000000000000000000000000000000000D1
:10A7400000000000486F6C61206D756E646F0A0038
:10A7500000000000000000000000000000000000F9
:10A7600000000000000000000000000000000000E9
:10A7700000000000000000000000000000000000D9
:10A7800000000000000000000000000000000000C9
:020000041A01DF
:043940000000000083
:04394400F8B500BF13
:04394800F8B500BF0F
:040000051A00074D89
:00000001FF
