:020000041A00E0
:1000000000800010C503001AA501001AAB01001AF8
:10001000B101001AB701001ABD01001A000000006A
:10002000000000000000000000000000C301001AF2
:10003000C901001A00000000CF01001A910B001A3C
:10004000DB01001ADB01001ADB01001A00000000CE
:10005000DB01001ADB01001ADB01001ADB01001AC8
:10006000DB01001ADB01001ADB01001ADB01001AB8
:10007000DB01001ADB01001ADB01001ADB01001AA8
:10008000DB01001ADB01001ADB01001ADB01001A98
:10009000DB01001ADB01001ADB01001ADB01001A88
:1000A000DB01001ADB01001AA503001ADB01001AAC
:1000B000DB01001ADB01001ADB01001ADB01001A68
:1000C000A90B001AC90B001AE90B001A090C001A37
:1000D000DB01001ADB01001ADB01001ADB01001A48
:1000E000DB01001ADB01001ADB01001ADB01001A38
:1000F00000000000DB01001ADB01001ADB01001A1E
:1001000000000000DB01001ADB01001ADB01001A0D
:10011000DB01001AD87E001A00000010B0090000B0
:10012000B0090010A000000080B489B000AFF860F2
:10013000B9607A60BB68FB61FB68BB6100237B61CF
:100140000AE0BA69131DBB61FB69191DF9611268E8
:100150001A607B6904337B617A697B689A42F0D3C9
:1001600000BF2437BD465DF8047B704780B485B07E
:1001700000AF786039607B68FB600023BB6007E0FC
:10018000FB681A1DFA6000221A60BB680433BB606A
:10019000BA683B689A42F3D300BF1437BD465DF896
:1001A000047B704780B400AFFEE780B400AFFEE789
:1001B00080B400AFFEE780B400AFFEE780B400AFCC
:1001C000FEE780B400AFFEE780B400AFFEE780B486
:1001D00000AFFEE780B400AFFEE780B400AFFEE7FB
:1001E000FFFFFFFFFFFFFFFFFFFFFFFFFFFFFFFF1F
:1001F000FFFFFFFFFFFFFFFFFFFFFFFFFFFFFFFF0F
:10020000FFFFFFFFFFFFFFFFFFFFFFFFFFFFFFFFFE
:10021000FFFFFFFFFFFFFFFFFFFFFFFFFFFFFFFFEE
:10022000FFFFFFFFFFFFFFFFFFFFFFFFFFFFFFFFDE
:10023000FFFFFFFFFFFFFFFFFFFFFFFFFFFFFFFFCE
:10024000FFFFFFFFFFFFFFFFFFFFFFFFFFFFFFFFBE
:10025000FFFFFFFFFFFFFFFFFFFFFFFFFFFFFFFFAE
:10026000FFFFFFFFFFFFFFFFFFFFFFFFFFFFFFFF9E
:10027000FFFFFFFFFFFFFFFFFFFFFFFFFFFFFFFF8E
:10028000FFFFFFFFFFFFFFFFFFFFFFFFFFFFFFFF7E
:10029000FFFFFFFFFFFFFFFFFFFFFFFFFFFFFFFF6E
:1002A000FFFFFFFFFFFFFFFFFFFFFFFFFFFFFFFF5E
:1002B000FFFFFFFFFFFFFFFFFFFFFFFFFFFFFFFF4E
:1002C000FFFFFFFFFFFFFFFFFFFFFFFFFFFFFFFF3E
:1002D000FFFFFFFFFFFFFFFFFFFFFFFFFFFFFFFF2E
:1002E000FFFFFFFFFFFFFFFFFFFFFFFFFFFFFFFF1E
:1002F000FFFFFFFFFFFFFFFFFFFFFFFFFFFFFFFF0E
:10030000F0B4860743D0541E002A3ED0CAB203463A
:1003100002E014F1FF3438D303F8012B9D07F8D124
:10032000032C2BD9CDB245EA05250F2C45EA05450E
:1003300016D9A4F110073F0903F1200606EB0716B2
:1003400003F1100242E9045542E902551032B2426B
:10035000F8D104F00F040137032C03EB07130DD978
:100360001E462246043A032A46F8045BFAD8221FA6
:1003700022F003020432134404F003042CB1C9B286
:100380001C4403F8011B9C42FBD1F0BC704714468F
:100390000346C5E7704700BF704700BF704700BF06
:1003A000704700BF80B500AF034A0449044801F01C
:1003B00042F800BF80BD00BFB0090010C4090010A2
:1003C00000100C4080B588B000AF72B6264B7B6140
:1003D0007B69264A1A607B690433254A1A60254BDB
:1003E0003B610023FB6109E0FB699B003A69134410
:1003F0004FF0FF321A60FB690133FB61FB69072B89
:10040000F2D962B61C4BBB6113E0BB691A1DBA611D
:100410001B687B60BB691A1DBA611B68FB60BB6906
:100420001A1DBA611B68BB60BA68F9687868FFF783
:100430007BFEBB69114A9342E7D30DE0BB691A1DED
:10044000BA611B68FB60BB691A1DBA611B68BB609F
:10045000B968F868FFF78AFEBB69094A9342EDD391
:1004600000F0BEF8FEE700BF003105400010DF10CD
:10047000FFF7DF0180E200E01401001A2001001AFA
:100480002801001A80B483B000AF786039603B68FF
:100490004FF400525A60002318460C37BD465DF8F1
:1004A000047B704780B483B000AF786001231846A6
:1004B0000C37BD465DF8047B704780B485B000AF53
:1004C000F860B9607A60002318461437BD465DF8BD
:1004D000047B704780B586B000AFF860B9607A6081
:1004E000284B1B883B8200237B610023FB74FB6845
:1004F000002B3FD131E07B69BA68134401221946D1
:10050000214800F0F3FE7B69BA6813441B780A2B7C
:1005100005D07B69BA6813441B780D2B01D10123E8
:1005200000E00023FB74FB7C03F00103FB74FB7C05
:10053000002B07D007F1100302221946124800F0E1
:1005400087FE07E07B69BA681344012219460E480A
:1005500000F07EFE7B6901337B617A697B689A4299
:1005600005DAFB7C83F00103DBB2002BC3D17B698E
:100570007B6001E000237B607B6818461837BD462E
:1005800080BD00BF107B001A00100C4080B584B005
:1005900000AFF860B9607A60FB68012B02D0FB689D
:1005A000022B05D17A68B968054800F051FE01E0D8
:1005B00000237B607B6818461037BD4680BD00BFB6
:1005C00000100C4080B483B000AF78604FF0FF3370
:1005D00018460C37BD465DF8047B7047FFFFFFFFF0
:1005E00080B500AF00F0A2F904A3D3E900230248CC
:1005F00001F00AFEFEE700BF147B001ADEEDD522F3
:10060000FD21094080B483B000AF0346FB71FB7944
:1006100003F01F03012202FA03F1064A97F907309B
:100620005B0942F8231000BF0C37BD465DF8047B20
:10063000704700BF00E100E080B483B000AF034624
:10064000FB71FB7903F01F03012202FA03F1064A52
:1006500097F907305B09603342F8231000BF0C376D
:10066000BD465DF8047B704700E100E080B483B0D4
:1006700000AF03463960FB7197F90730002B0BDAA6
:100680003B68DAB20C49FB7903F00F03043B5201DB
:10069000D2B20B441A7609E03B68DAB2074997F9FF
:1006A00007305201D2B20B4483F8002300BF0C374D
:1006B000BD465DF8047B704700ED00E000E100E01E
:1006C00080B582B000AF78607B68013BB3F1807F7A
:1006D00001D301230FE00A4A7B68013B53600721E5
:1006E0004FF0FF30FFF7C2FF054B00229A60044B2A
:1006F00007221A60002318460837BD4680BD00BF98
:1007000010E000E080B483B000AF0346FB710B46FD
:10071000BB711346BB800748F979BB79BA88490198
:100720000B4440F8232000BF0C37BD465DF8047B26
:10073000704700BF0060084080B485B000AF03463A
:10074000FB710B46BB7113467B71FB79DB0003F039
:100750001803FB60BB795B01DAB27B7903F01F03FE
:100760001A43FB6802FA03F3BB600F4AFB799B084C
:10077000DBB203F5607352F82330FF21FA6801FA07
:1007800002F2D2431A400849FB799B08DBB21846B3
:10079000BB681A4300F5607341F8232000BF14378B
:1007A000BD465DF8047B70470060084080B483B0AC
:1007B00000AF78600B46FB701346BB70FA787B681D
:1007C00002F5006253F82210BB78012202FA03F30B
:1007D000FA7819437B6802F5006243F8221000BFE3
:1007E0000C37BD465DF8047B704780B483B000AF22
:1007F00078600B46FB701346BB70FA787B6802F595
:10080000006253F82210BB78012202FA03F3DB43A3
:10081000FA7819407B6802F5006243F8221000BFA5
:100820000C37BD465DF8047B704780B483B000AFE1
:1008300078600B46FB701346BB70BB78012202FA4E
:1008400003F3FA7819467B6802F50A6243F822102E
:1008500000BF0C37BD465DF8047B704780B483B0A1
:1008600000AF786039607B681A683B68DB431A40E8
:100870007B681A6000BF0C37BD465DF8047B70478B
:1008800080B483B000AF786039607B683A685A61A1
:1008900000BF0C37BD465DF8047B704780B483B061
:1008A00000AF786039607B683A685A6200BF0C37E5
:1008B000BD465DF8047B704780B483B000AF7860BC
:1008C0007B680122DA6500BF0C37BD465DF8047B0A
:1008D000704780B483B000AF786039607B685A6835
:1008E0003B681A437B685A6000BF0C37BD465DF811
:1008F000047B704780B483B000AF786039607B6858
:100900003A689A6000BF0C37BD465DF8047B7047BB
:1009100080B483B000AF786039607B683A68DA6091
:1009200000BF0C37BD465DF8047B704790B583B0BF
:1009300000AF00F0E5FA01F073FB00F0BFFD00F03E
:10094000BBF98C4801F078FB00237B604EE08A49BC
:100950007A6813465B0013445B000B4418788649A1
:100960007A6813465B0013445B000B4401331C7828
:1009700081497A6813465B0013445B000B440433DF
:100980001B881A462146FFF7BDFE7B497A6813464D
:100990005B0013445B000B440233187876497A6895
:1009A00013465B0013445B000B4403331B781A4669
:1009B00001467048FFF7FAFE6F497A6813465B00FC
:1009C00013445B000B44023318786B497A68134672
:1009D0005B0013445B000B4403331B781A4601464B
:1009E0006448FFF722FF7B6801337B607B68052B3F
:1009F000ADD900237B6037E060497A6813465B001D
:100A000013445B000B4418785C497A6813465B001A
:100A100013445B000B4401331C7858497A68134631
:100A20005B0013445B000B4404331B881A462146C9
:100A3000FFF768FE51497A6813465B0013445B0078
:100A40000B44023318784D497A6813465B0013440F
:100A50005B000B4403331B781A4601464548FFF7F9
:100A6000C4FE7B6801337B607B68032BC4D91E22E4
:100A700001210720FFF746FED62202210720FFF7BB
:100A800041FE3F4800F078FB03213D48FFF740FF5F
:100A90004FF4E1313A4800F04FFCC7213848FFF7E6
:100AA00029FF01213648FFF714FF00237B6032E065
:100AB0007B68D8B231497A6813465B0013445B0007
:100AC0000B4402331C782D497A6813465B001344AB
:100AD0005B000B4403331B781A462146FFF72CFEBC
:100AE00001227B6802FA03F319462648FFF7D6FE77
:100AF00001227B6802FA03F319462248FFF7AEFE93
:100B000001227B6802FA03F319461E48FFF7B8FE7C
:100B10007B6801337B607B68032BC9DD2020FFF7F6
:100B20008BFD2120FFF788FD2220FFF785FD232084
:100B3000FFF782FD2020FFF765FD2120FFF762FD12
:100B40002220FFF75FFD2320FFF75CFD1A20FFF74F
:100B500059FD0B48FFF7B0FE0B4B1B680B4AA2FB7D
:100B600003239B091846FFF7ABFD00BF0C37BD46BA
:100B700090BD00BF00400F40347B001A587B001A24
:100B800000100C4000700840480A0010D34D62105D
:100B900080B400AF034B01221A7000BFBD465DF860
:100BA000047B7047D909001080B500AF044B0122C7
:100BB0001A7001210348FFF771FE00BF80BD00BF1E
:100BC000D80900100070084080B500AF044B022225
:100BD0001A7002210348FFF761FE00BF80BD00BF0D
:100BE000D80900100070084080B500AF044B032204
:100BF0001A7004210348FFF751FE00BF80BD00BFFB
:100C0000D80900100070084080B500AF044B0422E2
:100C10001A7008210348FFF741FE00BF80BD00BFE6
:100C2000D80900100070084080B584B000AF78602B
:100C30000D4B1B68FB600C4B1A687B6813440A4A17
:100C40001360094B1B68094A934207D3064AFB68A5
:100C50001360074B0C221A6001F034FAFB68184647
:100C60001037BD4680BD00BF3004001000A0081042
:100C70004C0A001080B483B000AF78603960054B37
:100C800016221A604FF0FF3318460C37BD465DF848
:100C9000047B70474C0A001080B400AF0123184653
:100CA000BD465DF8047B704780B582B000AF7860C8
:100CB000786801F003FAFFFF80B489B000AF164BEB
:100CC000FB61164BBB61164B7B610023FB74BB6958
:100CD0001B68BB607B691B687B60BB68114A9342E1
:100CE00005D17B68104A934201D1012300E0002323
:100CF000FB74FB7C002B09D0FB691B68FB60FB6865
:100D000043F47003FB60FA68FB691A6000BF243784
:100D1000BD465DF8047B704788ED00E040EF00E0E1
:100D200044EF00E0210011101100001180B400AF69
:100D3000054B5B6C044A43F00103536400BFBD469E
:100D40005DF8047B704700BF0000054080B483B0AD
:100D500000AF78607B681B681A467B681B791B06AE
:100D600013437A681269120413437A689268120373
:100D700013437A68D26812021343054A43F40063AE
:100D8000536400BF0C37BD465DF8047B704700BF5D
:100D90000000054080B400AF064B1B6C03F001035C
:100DA000002B14BF01230023DBB21846BD465DF8BB
:100DB000047B70470000054090B58FB000AF03463C
:100DC0003960FB711346BB714FF4FA73BB620023A9
:100DD0003B630023FB62FB79062B01D100F008FE88
:100DE000F97900230122042000F0F4FFFFF79EFFB1
:100DF000FB793B7307F108031946386800F030FEB1
:100E00003B683D4A934216D9BB6803F04003002B70
:100E100000D0FEE7BB6803F08003002B06D001235F
:100E20003B63BB6823F08003BB6004E00123FB62EB
:100E30007B6901337B6107F108031846FFF786FFE2
:100E400000BFFFF7A7FF0346002BFAD000230122C3
:100E50000921042000F0BEFF3B6B002B12D041F6AD
:100E60005833BB6200BFBB6A5A1EBA62002BFAD16C
:100E7000BB6843F08003BB6007F108031846FFF727
:100E800065FF13E0FB6A002B10D04FF47A73BB624E
:100E900000BFBB6A5A1EBA62002BFAD17B69013BC4
:100EA0007B6107F108031846FFF750FFBB79002B61
:100EB0001ED000237B6318E0104A7B6B12F82300DE
:100EC0000E4A7B6B9B00134459780C4A7B6B9B004A
:100ED00013449C78094A7B6B9B001344DB782246C1
:100EE00000F078FF7B6B01337B637B6B112BE3D9C5
:100EF00000BF3C37BD4690BD80778E06707B001AE0
:100F000080B500AF012203490620FFF755FF00BF5F
:100F100080BD00BF00CB280C80B483B000AF7860E8
:100F20007B680C331A687B6810331B689A420CBFCD
:100F300001230023DBB218460C37BD465DF8047B65
:100F4000704780B483B000AF78607B680022DA65B8
:100F500000BF0C37BD465DF8047B704780B483B09A
:100F600000AF78600B46FB70FA787B681A6000BFB0
:100F70000C37BD465DF8047B704780B483B000AF8A
:100F800078607B681B68DBB218460C37BD465DF89D
:100F9000047B704780B483B000AF786039607B68B1
:100FA0005A683B68DB431A407B685A6000BF0C37C5
:100FB000BD465DF8047B704780B483B000AF7860B5
:100FC0007B689B6818460C37BD465DF8047B70470C
:100FD00080B483B000AF786039607B683A689A600B
:100FE00000BF0C37BD465DF8047B704780B483B00A
:100FF00000AF786039607B683A68DA6000BF0C3710
:10100000BD465DF8047B704780B483B000AF786064
:101010007B68DB6843F080027B68DA6000BF0C37D6
:10102000BD465DF8047B704780B483B000AF786044
:101030007B68DB6823F080027B68DA6000BF0C37D6
:10104000BD465DF8047B704780B483B000AF786024
:101050000B46FB701346BB70FA787B681A60BA784F
:101060007B685A6000BF0C37BD465DF8047B704753
:1010700080B483B000AF78607B685B6918460C373A
:10108000BD465DF8047B704780B483B000AF7860E4
:1010900039607B681A6A3B681A437B681A6200BF32
:1010A0000C37BD465DF8047B7047FFFF80B485B008
:1010B00000AF78607B68FB60FB68104A93420FD0FA
:1010C0000E4A934203D80E4A934207D00EE00D4ACF
:1010D000934207D00C4A934206D007E0002306E073
:1010E000012304E0022302E0032300E0002318466A
:1010F0001437BD465DF8047B704700BF00200840F0
:101100000010084000100C4000200C4080B582B058
:1011100000AF78607868FFF74FFF034603F48073F1
:10112000002B11D04FF480717868FFF7ADFF4FF4BA
:1011300080717868FFF72EFF0E4B1B78DBB2002B17
:1011400002D10C4B01221A707868FFF735FF034675
:1011500003F40073002B09D04FF400717868FFF797
:1011600093FF4FF400717868FFF714FF00BF083752
:10117000BD4680BDDA09001080B584B000AF78604C
:10118000FB687868FFF792FF02461B4B33F81200AA
:1011900001230122012100F091FE07217868FFF769
:1011A00017FF7868FFF7CDFE7B6800225A607B68E6
:1011B0000022DA607B6800221A627B680022DA640F
:1011C0007B6800225A657B6800221A657B680B4A9F
:1011D000934205D17B6800221A617B689B69FB60A2
:1011E00003217868FFF702FF7B6810229A6200BF34
:1011F0001037BD4680BD00BFB87B001A00200840F4
:1012000080B586B000AFF860B9607A6000237B617A
:10121000BB683B610BE03B691B781946F868FFF738
:101220009DFE3B6901333B617B6901337B617A69D8
:101230007B689A4207DAF868FFF71AFF034603F063
:101240002003002BE7D17B6918461837BD4680BDC7
:1012500080B588B000AFF860B9607A600023FB61A8
:10126000BB68BB6111E07A68B969F868FFF7C8FF2D
:1012700078617A687B69D31A7B60FA697B69134469
:10128000FB617B69BA691344BB617B68002BEADCB4
:10129000FB6918462037BD4680BD80B586B000AFDB
:1012A000F860B9607A6000237B61BB683B610CE049
:1012B000F868FFF762FE03461A463B691A703B69FD
:1012C00001333B617B6901337B617A697B689A42B8
:1012D00007DAF868FFF7CCFE034603F00103002BA2
:1012E000E6D17B6918461837BD4680BD80B588B009
:1012F00000AFF860B9607A600023FB61BB68BB6136
:1013000011E07A68B969F868FFF7C7FF78617A6811
:101310007B69D31A7B60FA697B691344FB617B6943
:10132000BA691344BB617B68002BEADCFB69184691
:101330002037BD4680BDFFFF80B586B000AF786026
:1013400039607868FFF7B2FE0246164B33F8123068
:10135000184600F021FE78613B681B017A69B2FBF8
:10136000F3F33B613B691B0AFB60FB681B023A69B4
:10137000D31ABB607868FFF747FEBB68DBB2FA6838
:10138000D2B219467868FFF75FFE7868FFF74CFE27
:101390007A693B69B2FBF3F31B0918461837BD465F
:1013A00080BD00BFC07B001A80B584B000AF7860FC
:1013B00039600AE07868FFF7E0FD0346FB7307F148
:1013C0000F031946386800F0ECF87868FFF750FE14
:1013D000034603F00103002BECD100BF1037BD46DC
:1013E00080BD80B584B000AF7860396004E0FB7BDD
:1013F00019467868FFF7B2FD7868FFF739FE0346B3
:1014000003F02003002B08D007F10F0319463868BA
:1014100000F0F5F80346002BE9D13868FFF77CFDB2
:101420000346002B03D002217868FFF7B3FD00BF0D
:101430001037BD4680BD80B584B000AFF860B9609C
:101440007A60FB685B6803F00203002B0DD07968BB
:10145000F868FFF7C6FF7868FFF75EFD0346002BCC
:1014600003D00221F868FFF795FDB968F868FFF727
:101470009BFFF868FFF74AFE00BF1037BD4680BDEE
:1014800080B483B000AF78607B685B6843F0010292
:101490007B685A6000BF0C37BD465DF8047B70471F
:1014A00080B483B000AF786039607B683A68DA60F6
:1014B00000BF0C37BD465DF8047B704780B582B035
:1014C00000AF08237B60144800F0E8FD7B68013B17
:1014D00019461148FFF7E4FF0F48FFF7D1FF8420BA
:1014E00000F05AFD02467B68B2FBF3F30B4A13602F
:1014F0000A4B1B680A4AA2FB03239B09094A136093
:10150000064B1B68084AA2FB03239B0C074A136087
:1015100000BF0837BD4680BD00400840DC09001010
:10152000D34D6210E009001083DE1B43E409001074
:1015300080B483B000AF78607B680C331A687B6836
:1015400010331B68D31A18460C37BD465DF8047B70
:10155000704780B582B000AF78607868FFF7E8FF29
:1015600002467B685B689A42ACBF01230023DBB272
:1015700018460837BD4680BD80B483B000AF7860A0
:101580007B680C331A687B6810331B689A420CBF67
:1015900001230023DBB218460C37BD465DF8047BFF
:1015A000704780B584B000AF786039607B681B6895
:1015B000FB607868FFF7CDFF0346002B01D00023C6
:1015C00019E07B68DB687A685268013A13407A68F0
:1015D000926802FB03F3FA681344FB607B689B6824
:1015E0001A463968F86800F075FD7B68DB685A1C9C
:1015F0007B68DA60012318461037BD4680BD80B590
:1016000084B000AF786039607B681B68FB607868E5
:10161000FFF7B2FF0346002B01D0002319E07B68DF
:101620001B697A685268013A13407A68926802FB33
:1016300003F3FA681344FB607B689B681A46F968F9
:10164000386800F047FD7B681B695A1C7B681A618B
:10165000012318461037BD4680BD80B483B000AF6B
:1016600078607B68002B02DA7B685B4200E07B6875
:1016700018460C37BD465DF8047B704780B588B0CE
:1016800000AF786039607B68FB613B681B6803F0E2
:101690008003002B05D03B681B6823F040023B68A9
:1016A0001A600123BB616FE000233B6166E0012308
:1016B0007B615AE03B681B6803F04003002B0ED0AF
:1016C0003B6901337A6902FA03F31A463B685B69A6
:1016D00003FB02F2BB69B2FBF3F3FB6008E03B687B
:1016E0005B697A6902FB03F2BB69B2FBF3F3FB604F
:1016F000FB68294A934234D9FB68284A934239D877
:101700003B681B6803F08003002B02D0FB68BB60C2
:1017100005E03B690133FA6822FA03F3BB607A689B
:10172000BB68D31A1846FFF798FF0246FB6993423D
:1017300018D93B68BA699A603B695A1C3B68DA6001
:101740003B687A691A613B68BA689A613B68FA68D3
:10175000DA617A68BB68D31A1846FFF77EFFF86132
:1017600000E000BF7B6901337B617B69B3F5807F5B
:10177000A0DD00E000BF3B6901333B613B69032B07
:1017800095DDBB690133BB61BB69042B8CDD00BFF8
:101790002037BD4680BD00BFFF5E4C0900D012134C
:1017A000B0B59EB000AF7860396007F10C036022DD
:1017B00000211846FEF7A4FDFB6843F08003FB60A0
:1017C0003B685B693B623B681B793B7407F10C0328
:1017D00019467868FFF752FF7B6A7A689A420AD105
:1017E0003B681D4607F10C040FCC0FC594E80F00B1
:1017F00085E80F008EE07B6A7A68D31A1846FFF7F7
:101800002CFF0346FB66FB6C23F04003FB643B6844
:101810005B693B663B681B7987F8503007F10C0326
:10182000403319467868FFF729FF7B6E7A689A4241
:101830000AD13B681D4607F14C040FCC0FC594E854
:101840000F0085E80F0065E07B6E7A68D31A1846B2
:10185000FFF703FF03467B677B68304A93421AD841
:101860004023FB623B685B693B6407F10C03203358
:1018700019467868FFF702FF7B6C7A689A420AD1B2
:101880003B681D4607F12C040FCC0FC594E80F00F0
:1018900085E80F003EE07B6C7A68D31A1846FFF7A4
:1018A000DCFE03463B67FA6E3B6F9A4219DCFA6E28
:1018B0007B6F9A420ADC3B681D4607F10C040FCC93
:1018C0000FC594E80F0085E80F0023E03B681D4634
:1018D00007F14C040FCC0FC594E80F0085E80F000A
:1018E00018E03A6F7B6F9A420ADC3B681D4607F1AD
:1018F0002C040FCC0FC594E80F0085E80F0009E019
:101900003B681D4607F14C040FCC0FC594E80F004F
:1019100085E80F007837BD46B0BD00BF80778E06E2
:1019200080B584B000AF03460A46FB711346BB7115
:10193000BB79184600F060F90346FB73BB79184683
:1019400000F07AF9B860FB7B184600F091F9024686
:10195000BB680133B2FBF3F318461037BD4680BDB8
:1019600080B485B000AF0346FB801C23FB730023CB
:10197000BB6024E01D49BA6813465B0013445B005A
:101980000B441B88FA889A4216D31849BA68134642
:101990005B0013445B000B4402331B88FA889A42B5
:1019A0000AD81249BA6813465B0013445B000B4423
:1019B00004331B78FB7302E0BB680133BB60FB7B25
:1019C0001C2B0BD10949BA6813465B0013445B001A
:1019D0000B4404331B78FA7B9A42CBD1FB7B18462D
:1019E0001437BD465DF8047B704700BFC87B001A02
:1019F00080B483B000AF4FF47A733B60154B9B69A2
:101A00007B607B6823F002037B60124B9B697A68E2
:101A10009A4202D00F4A7B6893617B6823F00103EE
:101A20007B600D4B1B680D4A934203D97B6843F0E2
:101A300004037B60074A7B68936100BF3B685A1EC2
:101A40003A60002BFAD100BF0C37BD465DF8047B2D
:101A5000704700BF00000540307B001AFF2C3101A9
:101A600080B582B000AF786039603B681B7918465A
:101A700000F0FEF802463B685A617B682B4A9342AD
:101A800007D87B682A4A934203D93B685B69002BDD
:101A900002D14FF0FF3344E03B6880221A603B687C
:101AA00000229A603B680022DA603B685B697A68D2
:101AB000B2FBF3F31A463B681A617B681D4A9342F6
:101AC00009D93B681B691A463B685B6903FB02F353
:101AD0007A689A420FD039687868FFF761FE3B68F0
:101AE0009B68002B02D14FF0FF331AE03B689B68E4
:101AF0005A1E3B689A603B681B69002B02D14FF06D
:101B0000FF330EE03B68DB68002B04D03B68DB68EA
:101B10005A1E3B68DA603B681B695A1E3B681A61B3
:101B2000002318460837BD4680BD00BF00CB280CF7
:101B3000EFC59400FF5E4C0980B58CB000AF2C4B14
:101B40005B6CFB62FB6A1B0EDBB203F00F03DBB2C4
:101B5000184600F08DF8B862264B1B687B60244B5A
:101B60001B6C03F00103002B01D100233BE0FB6A57
:101B70001B0CDBB27B62FB6A1B0B03F003033B62B3
:101B8000FB6A1B0A03F00303FB61FB6ADB0903F03A
:101B90000103BB61FB6A9B0903F001037B617B6A64
:101BA00001333B613B6A0133FB603A1DFB6913441F
:101BB0001B78BB60BB69002B02D17B69002B07D06F
:101BC000BA6AFB68B2FBF3F33A6902FB03F30AE07B
:101BD000BB685B003A69B2FBF3F3B96AFA68B1FB20
:101BE000F2F202FB03F318463037BD4680BD00BF5A
:101BF00000000540347C001A80B485B000AF034675
:101C0000FB710C4AFB79123352F82330FB60FB68FE
:101C100003F00103002B01D0112305E0FB681B0E2C
:101C2000DBB203F01F03DBB218461437BD465DF884
:101C3000047B70470000054080B483B000AF0346CA
:101C4000FB71094AFB79123352F823309B08DAB250
:101C5000FB790649CB5C1340DBB218460C37BD4616
:101C60005DF8047B704700BF00000540387C001A17
:101C700080B584B000AF0346FB710023FB60FB79A5
:101C8000112B7FD801A252F823F000BFD51C001AF7
:101C9000DD1C001AE31C001AF71C001A111D001AA3
:101CA000851D001A191D001A211D001A291D001A70
:101CB000311D001A851D001A851D001A391D001AD4
:101CC000471D001A551D001A631D001A711D001AC8
:101CD0007F1D001A4FF40043FB6056E02D4BFB6064
:101CE00053E02D4BD3F82C3103F00703042B4BD0DA
:101CF0002A4BFB6048E0284BD3F82C3103F0070354
:101D0000042B02D0254BFB603FE0254BFB603CE001
:101D1000244B1B68FB6038E0234B1B68FB6034E0FE
:101D2000224B1B68FB6030E0204B5B68FB602CE0C3
:101D3000FFF702FFF86028E0FB7900211846FFF763
:101D4000EFFDF86021E0FB7901211846FFF7E8FD7F
:101D5000F8601AE0FB7902211846FFF7E1FDF86010
:101D600013E0FB7903211846FFF7DAFDF8600CE079
:101D7000FB7904211846FFF7D3FDF86005E0002346
:101D8000FB6002E000BF00E000BFFB6818461037B0
:101D9000BD4680BD001BB7000030044040787D0187
:101DA00080F0FA022C7B001A307B001AE809001040
:101DB00080B582B000AF0346FB71FB79184600F096
:101DC00057F803461846FFF753FF034618460837EF
:101DD000BD4680BD90B484B000AF044608461146AD
:101DE0001A462346FB710346BB710B467B711346B3
:101DF0003B711D4AFB7916339B0013445B68FB6003
:101E0000FB791B2B22D8BB79112B28D0FA68174BF2
:101E10001340FB607B79002B03D0FB6843F4006325
:101E2000FB603B79002B03D0FB6843F00103FB60B0
:101E3000BB791B061A46FB681343FB600A4AFB7911
:101E400016339B001344FA685A6008E00649FB7990
:101E5000FA6842F0010216339B000B445A6000BF3F
:101E60001037BD4690BC704700000540FEF7FFE00C
:101E700080B485B000AF0346FB71FB791B2B01D901
:101E8000112313E00C4AFB7916339B0013445B6863
:101E9000FB60FB6803F00103002B01D0112305E078
:101EA000FB681B0EDBB203F01F03DBB218461437CE
:101EB000BD465DF8047B70470000054080B485B0E6
:101EC00000AF3B600346FB800B467B7113463B71C2
:101ED0000123FB607B79002B03D0FB6843F00203F6
:101EE000FB603B79002B03D0FB6843F00403FB60ED
:101EF0003B68022B03D1FB6843F02003FB60FB88A7
:101F0000B3F5A17F08D30A49FB88A3F5A173203359
:101F1000FA6841F8332005E00649FB882033FA6867
:101F200041F8332000BF1437BD465DF8047B70478D
:101F3000002005400010054080B483B000AF034688
:101F4000FB80FB88B3F5A17F10D3114AFB88A3F572
:101F5000A173203352F833200D49FB88A3F5A173F8
:101F600042F00102203341F833200BE0094AFB889C
:101F7000203352F833200749FB8842F00102203316
:101F800041F8332000BF0C37BD465DF8047B704735
:101F9000002005400010054080B586B000AF034624
:101FA000FB80FB88B3F5A17F08D31B4AFB88A3F510
:101FB000A173203352F833307B6105E0174AFB8868
:101FC000203352F833307B617B6903F00103002B2F
:101FD0001BD0FB881846FFF7C3FC0346FB72FB7A55
:101FE0001846FFF7E5FEF8607B695B0903F007031D
:101FF000002B02D101233B6101E002233B61FA681F
:102000003B69B2FBF3F3FB6001E00023FB60FB687C
:1020100018461837BD4680BD002005400010054019
:1020200080B500AF6920FFF7B7FF0246014B1A6089
:1020300000BF80BD480A001080B483B000AF786054
:1020400000BF0C37BD465DF8047B704780B485B097
:1020500000AF78607B680E4A934202D1A423FB81D3
:102060000FE07B680B4A934202D1A323FB8108E077
:102070007B68094A934202D18523FB8101E08423D6
:10208000FB81FB8918461437BD465DF8047B704719
:1020900000400C4000300C400050084080B582B039
:1020A00000AF78607868FFF7D1FF03461846FFF766
:1020B00043FF00BF0837BD4680BDFFFF08B5FEF7F0
:1020C000F3FD00BF08B5062000F0DEF80120FEF7A2
:1020D000EBFD00BF844641EA000313F003036DD11A
:1020E000403A41D351F8043B40F8043B51F8043BDB
:1020F00040F8043B51F8043B40F8043B51F8043BE2
:1021000040F8043B51F8043B40F8043B51F8043BD1
:1021100040F8043B51F8043B40F8043B51F8043BC1
:1021200040F8043B51F8043B40F8043B51F8043BB1
:1021300040F8043B51F8043B40F8043B51F8043BA1
:1021400040F8043B51F8043B40F8043B51F8043B91
:1021500040F8043B51F8043B40F8043B51F8043B81
:1021600040F8043B403ABDD2303211D351F8043B21
:1021700040F8043B51F8043B40F8043B51F8043B61
:1021800040F8043B51F8043B40F8043B103AEDD2D0
:102190000C3205D351F8043B40F8043B043AF9D221
:1021A000043208D0D2071CBF11F8013B00F8013BF4
:1021B00001D30B8803806046704700BF082A13D301
:1021C0008B078DD010F003038AD0C3F10403D21A19
:1021D000DB071CBF11F8013B00F8013B80D331F84D
:1021E000023B20F8023B7BE7043AD9D3013A11F8CD
:1021F000013B00F8013BF9D20B7803704B78437038
:102200008B788370604670470FB400B5074983B080
:1022100004AB086853F8042B8168019300F0E0F8E0
:1022200003B05DF804EB04B0704700BF000000107D
:102230001F2938B522D8D0F8DC3205460C466BB1E0
:1022400053F8212052B1012A12D0511C12D000257E
:10225000204643F824509047284638BD284600F0D1
:102260002FF8224601462846BDE8384000F014B851
:10227000002038BD16230360012038BD16230360FB
:102280004FF0FF3038BD00BF024B01461868FFF722
:10229000CFBF00BF0000001038B50B46074C054605
:1022A0001146184600232360FEF7E4FC431C00D0CF
:1022B00038BD2368002BFBD02B6038BD4C0A0010C2
:1022C000FEF7EABCFFFFFFFFFFFFFFFFFFFFFFFF7F
:1022D000FFFFFFFFFFFFFFFFFFFFFFFFFFFFFFFF0E
:1022E000FFFFFFFFFFFFFFFFFFFFFFFFFFFFFFFFFE
:1022F000FFFFFFFFFFFFFFFFFFFFFFFFFFFFFFFFEE
:1023000090F800F06DE9024520F007016FF0000C35
:1023100010F0070491F820F040F049804FF00004DD
:102320006FF00700D1E9002391F840F000F10800B8
:1023300082FA4CF2A4FA8CF283FA4CF3A2FA8CF3F0
:102340004BBBD1E9022382FA4CF200F10800A4FA57
:102350008CF283FA4CF3A2FA8CF3E3B9D1E90423AB
:1023600082FA4CF200F10800A4FA8CF283FA4CF3E2
:10237000A2FA8CF37BB9D1E9062301F1200182FA9C
:102380004CF200F10800A4FA8CF283FA4CF3A2FAA2
:102390008CF3002BC6D0002A04BF04301A4612BAB0
:1023A000B2FA82F2FDE8024500EBD2007047D1E9B3
:1023B000002304F00305C4F100004FEAC50514F042
:1023C000040F91F840F00CFA05F562EA05021CBF13
:1023D00063EA050362464FF00004A9E7FFFFFFFF31
:1023E0002DE9F04FDBB01C4689461746054607909D
:1023F00003F014F803681A931846FFF781FF0C9452
:1024000019901DB1AB6B002B00F00781D9F8641057
:10241000B9F90C20C80793B202D4990540F11F8185
:102420009E040AD4D9F8641042F4005321F40051F8
:10243000A9F80C30C9F864109BB21D0740F1B280B6
:10244000D9F81020002A00F0AD8003F01A020A2A01
:1024500000F0C98000239FED867B1493CDE92F33D4
:102460001B93CDE91D331F931C93099331AB2E931E
:102470009B463B78CDF82C908DED167B002B00F021
:102480005982252B3C4602D11DE0252B03D014F8A0
:10249000013F002BF9D1E51B8DB1DDE92F3201336E
:1024A0002A44072BCBF80070CBF80450CDE92F322B
:1024B00000F3CA800BF1080B099B2B440993237886
:1024C000002B00F03782002366780A9398468DF837
:1024D0009B3004F1010A4FF0FF392B250AF1010A64
:1024E000A6F120035A2B00F22A84DFE813F0AA0396
:1024F000280428049C02280428042804A70228048D
:102500002804C602D2022804D702DC022804F602FC
:102510006D026D026D026D026D026D026D026D0243
:102520006D02280428042804280428042804280408
:10253000FB0228043C03F303FB02FB02FB0228041A
:10254000280428042804EE03280428049A002804F8
:10255000280428045003280479032804280490033D
:10256000280428042804280428042804280428040B
:10257000FB0228043C03C500FB02FB02FB02D10363
:10258000C50070002804B5032804C2039C00DE03C4
:1025900070002804500372002C02280428047C02D6
:1025A000280472004946079801F09CFCA0B1D9F8B4
:1025B0006430D80704D4B9F80C30990540F1B783DA
:1025C0004FF0FF33099309985BB0BDE8F08F48F0F6
:1025D00020089AF8006081E7B9F80C3003F01A027D
:1025E0000A2A7FF437AFB9F90E20002AFFF632AF7E
:1025F000D9F86420D20705D49B0503D4D9F8580034
:10260000FDF7CEFE23463A464946079801F028FCDE
:10261000099009985BB0BDE8F08F079802F058FD6B
:10262000F4E648F0100818F0200F00F06C830C9CC2
:10263000073424F00703D3E9004503F108020C92A4
:1026400028F4806300228CE12EAA0B99079803F0EE
:1026500067FE002841F075830DF1C40B2CE7D9F813
:102660005800FDF79BFEB9F90C2093B2D8E600BFE5
:10267000000000000000000043469F0640F12F8349
:102680000C9C073424F00704D4E9000104F108028B
:102690000C9204460D46002871F1000205DA2D2245
:1026A000644265EB45058DF89B205AAAB9F1FF3FBE
:1026B000089200F0B284012254EA050123F0800858
:1026C00040F05981B9F1000F40F01986002A40F01E
:1026D000088513F001035AAF0D9302D0302307F899
:1026E000013D00230E931393189315930D9B9DF8B2
:1026F0009B204B45B8BF4B46089312B1089B013352
:10270000089318F002030F9302D0089B023308933A
:1027100018F08403309C12933FD10A9B08995D1AEC
:10272000002D3ADD102D2F9A29DD5946204624969A
:102730001023079C0B9EBB4604E0103D102D01F1B9
:10274000080118DD0132BA4F1030072ACDE92F20D9
:10275000C1E90073F1DD2EAA31462046109303F043
:10276000DFFD002840F03D84103D102DDDE92F20D5
:1027700031A9109BE6DC249E5F4604468B4601325D
:10278000AB4B2C44072ACDE92F24CBE9003500F3CD
:10279000FF849DF89B200BF1080B72B12F9A013238
:1027A00001340DF19B000121072ACDE92F24CBE94B
:1027B000000100F318840BF1080B0F9B6BB12F9BEA
:1027C0000133023427A90222072BCDE92F34CBE9AC
:1027D000001200F315840BF1080B129B802B00F004
:1027E00031830D9BA9EB0305002D37DD102D2F9AAA
:1027F000904B28DD59462046BB464FF0100937461E
:102800001C460B9E04E0103D102D01F1080115DD62
:1028100001321030072ACDE92F20C1E90049F2DD4D
:102820002EAA3146079803F07BFD002840F0D9839B
:10283000103D102DDDE92F2031A9E9DC3E4623466D
:102840005F4604468B4601322C44072ACDE92F24EB
:10285000CBE9003500F3EF830BF1080B18F4807F10
:1028600040F080822F9B0D9ACBF800700133144406
:10287000072B3094CBF804202F9300F392830BF1B5
:10288000080B18F0040F3BD00A9B089A9D1A002DE4
:1028900036DD102D2F9B21DD1026079FDDF82C80C3
:1028A00004E0103D102D0BF1080B17DD0133604AD9
:1028B0001034072BCDE92F34CBE90026F1DD2EAA09
:1028C0004146384603F02CFD002840F06C85103D51
:1028D000102DDDE92F340DF1C40BE7DC0133544A30
:1028E0002C44072BCDE92F34CBE9002508DD2EAA97
:1028F0000B99079803F014FD002840F0E982309C02
:102900000899DDE909328A42ACBF9B185B1809932C
:10291000002C40F0D58200232F930E9B1BB10E9903
:10292000079802F05DFC0DF1C40B57463B78002B75
:102930007FF4A7AD309BDDF82C90002B41F0E580B3
:1029400000232F93CBE243469A0640F14E810C9C24
:10295000073424F0070202F10801D2E900450C9186
:10296000012200218DF89B10B9F1FF3F5AA908916F
:102970007FF4A2AE9846012A00F05083022A00F0AC
:102980001B835AA900E03946E20842EA4572E8088A
:1029900004F0070305461446303354EA050201F8F3
:1029A000013C01F1FF37EED118F0010F00F0148364
:1029B000302B00F01183089A02393023521A07F89D
:1029C000013C0D920F468CE6A6F1300300221AF866
:1029D000016B02EB820203EB4202A6F13003092BEA
:1029E000F5D90A927CE5144B1B9318F0200F00F0E8
:1029F00014810C9C073424F00703D3E9004503F14C
:102A000008020C9218F0010F09D054EA050306D011
:102A100030238DF89D6048F002088DF89C3028F432
:102A2000806302229DE748F001089AF8006055E5AE
:102A3000847C001A947C001A507C001A079E304651
:102A400002F0ECFC43681C931846FFF759FC1F90FA
:102A50000446304602F0E2FC83681E93002C3FF4EB
:102A6000B8AD9AF80060002B3FF438AD1B78002B0E
:102A70003FF434AD48F4806830E50C9B9AF8006070
:102A80001A680A92002A03F10403C0F296860C9396
:102A900024E58DF89B509AF800601FE59AF80060D5
:102AA00048F004081AE59AF800602A2E0AF101029B
:102AB00001F0B281A6F13003092B92464FF00009D4
:102AC0003FF60EAD1AF8016B09EB890903EB4909D2
:102AD000A6F13003092BF5D902E548F080089AF8F1
:102AE0000060FBE40C9C073424F0070494ED007BA9
:102AF00052EC171B22F0004321938DED207A08340D
:102B0000DDE920014FF0FF32BA4B0C948DED167BBE
:102B100004F040FE002840F071844FF0FF32B54BC6
:102B2000DDE9200104F018FE002840F0678400224F
:102B30000023DDE9160104F005FE002840F05C8565
:102B40009DF89B20AC4FAD4B0020032108910E90C7
:102B500028F08008472ED8BF1F460D91814613905C
:102B600018901590C9E50C98002301688DF89B30EA
:102B70001A468DF804110123011D08930E92914607
:102B8000139218921592CDE90C1341AFB9E50C9B45
:102B90001F6800258DF89B501C1D002F00F0388603
:102BA000B9F1FF3F00F00F874A462946384602F048
:102BB0005FFF0E90002800F0E6850E9BDB1B0D9357
:102BC000A94623EAE3730C940893CDF83890CDF826
:102BD0004C90CDF86090CDF854909DF89B208CE5FA
:102BE00048F010039A063FF5B2AE0C9ADF0602F1E8
:102BF000040100F17E835D060C9A00F1E5849C05DA
:102C000040F1778314780C9100250122A9E67C4BD2
:102C10001B9318F0200F7FF4ECAE0C9A18F0100FF5
:102C200002F1040340F0548318F0400F0C9A40F076
:102C3000D18418F4007F00F04B8314780C930025A6
:102C4000E0E69DF89B309AF80060002B7FF446ACDC
:102C500020238DF89B3041E49AF800606C2E03BF6E
:102C60009AF8016048F020080AF1010A48F01008BB
:102C700034E40C9A18F0200F52F8043B0C9200F048
:102C8000A183099A1046D117C3E9000157464DE6C2
:102C90009AF80060682E03BF9AF8016048F4007843
:102CA0000AF1010A48F0400818E40C99554B0C68E9
:102CB0001B9347F630020431ADF89C2048F0020324
:102CC0000C910025022278264BE648F008089AF875
:102CD000006003E448F010039F063FF5D1AC0C9967
:102CE000DD0601F1040200F1FD825C060C9900F1A1
:102CF0007684980540F1F68291F900400C92E51730
:102D000020462946C7E40C9A18F0100F02F104037C
:102D100040F0E38218F0400F0C9A40F0688418F4F9
:102D2000007F00F0DA8214780C93002588E4D9F84B
:102D30005800FDF735FB4FF0FF33099343E4002EB5
:102D40003FF4F8AD002301211A4608918DF8046183
:102D50008DF89B300E9399461393189315930D910C
:102D600041AFCEE4652E40F3CA8000220023DDE9A6
:102D7000160104F0DDFC002800F069812F9B224A37
:102D8000CBF80020013301340122072BCDE92F3489
:102D9000CBF8042000F307840BF1080B289B149A4E
:102DA000309C934203DB18F0010F3FF46AAD2F9B78
:102DB0001A9ACBF80020199ACBF804200133144456
:102DC000072BCDE92F3400F316850BF1080B149B6C
:102DD0005D1E002D7FF755AD102D2F9A0B4B40F344
:102DE000E782194610262346079FDDF82C900C46F3
:102DF00014E000BFFFFFEF7F447C001A407C001A04
:102E0000647C001A507C001A807C001A947C001AA2
:102E10000BF1080B103D102D40F3C7820132103327
:102E2000072ACDE92F23CBE90046F1DD2EAA49463A
:102E3000384603F075FA00284CD1DDE92F230DF157
:102E4000C40BE7E70A9B089A9D1A002D7FF7C9ACCF
:102E5000102D2F9ABC4B27DD59462046BB461C46F9
:102E600037460B9E04E0103D102D01F1080116DDE0
:102E7000013210301023072ACDE92F200C604B605F
:102E8000F1DD2EAA3146079803F04AFA002840F0F7
:102E9000A880103D102DDDE92F2031A9E8DC3E4649
:102EA00023465F4604468B4601322C44072ACDE96F
:102EB0002F24CBE9003500F392820BF1080B90E44C
:102EC0002EAA0B99079803F02BFA00283FF423ADA4
:102ED000DDF82C900E9911B1079802F081F9D9F81C
:102EE0006420B9F80C30D00702D4990540F1D081A4
:102EF0005A063FF565AB09985BB0BDE8F08F149AB0
:102F00002F9B012A04F1010403F101050BF10806CE
:102F100040F31C810123072DCBF80070CDE92F541D
:102F2000CBF8043000F3BB81199B1A9A691C1C442E
:102F300007290F91CDE92F14C6E9002300F3BB81C7
:102F400008360F9A531C1D460D95149D12930022AE
:102F50000023DDE9160105F1FF3906F1080B04F045
:102F6000E7FB002840F0C2800D9DC6F804900137B1
:102F70004C44072D376030942F9500F3F9800F9A59
:102F800006F1100302325E460D929B461D9A726056
:102F900014440D9A30942AAB072A2F9233607FF79E
:102FA00070AC2EAA0B99079803F0BAF900288FD1BC
:102FB000309C0DF1C40B64E41B985AAF230904F054
:102FC0000F0143EA05732A091C461546435C07F8BE
:102FD000013D54EA0503F1D1089BDB1B0D93FFF77C
:102FE00080BBB14676E72EAA0B99079803F098F9B3
:102FF00000287FF46DAF309C0DF1C40BFFF7DDBBF3
:103000002EAA0B99079803F08BF900287FF460AF84
:10301000309C0DF1C40BFFF7E0BB9846002D08BFB4
:103020000A2C80F070815AAF3034012307F8014D2B
:103030000D93FFF756BB2EAA0B99079803F070F972
:1030400000287FF445AF309C0DF1C40B06E4289BAB
:10305000002B40F37482DDE914239342A8BF13468A
:10306000002B1D460DDD2F9BCBF8007001332C4447
:10307000072B3094CBF804502F9300F3C2820BF14E
:10308000080B159B002DA8BF5B1B002B1D4640F3B2
:103090009980102D2F9A2C4B40F3D9831846214646
:1030A0005B461026BB46DDF81C900B9C074604E0EF
:1030B0000833103D102D40F3C58301321031072A2B
:1030C000CDE92F21C3E90076F2DD2EAA214648463C
:1030D00003F026F9002840F0A384DDE92F2131AB6D
:1030E000E7E7CDF834905AAFFFF7FBBAB9F1000F1C
:1030F0007FF74CAFB9F1100F134B40F35B861946C5
:10310000224633461027DDF81CB00B9C129D0E465C
:1031100007E00833A9F11009B9F1100F40F3528309
:1031200001351032072DCDE92F52C3E90067F0DDDC
:103130002EAA2146584603F0F3F8002840F0708488
:10314000DDE92F5231ABE5E7947C001A18F0010F4E
:103150007FF4E0AE0122072DCBF80070CDE92F54AB
:10316000CBF8042004DC02330D930BF1100B0DE7B8
:103170002EAA0B99079803F0D3F800287FF4A8AE85
:10318000DDE92F3401330D930DF1CC0B31AEFDE6AB
:103190002EAA0B99079803F0C3F800287FF498AE85
:1031A0009DF89B20309C0DF1C40BFFF7F6BA2EAAB8
:1031B0000B99079803F0B4F800287FF489AE309C8F
:1031C0000DF1C40B159B18F4806F3B44994640F0F9
:1031D0005583289B149A934249DB18F0010F46D17E
:1031E000149ABD18A5EB0905D31A9D42A8BF1D4628
:1031F000002D0DDD2F9ACBF8009001322C44072AC8
:103200003094CBF804502F9200F360840BF1080B3C
:10321000002DACBF5D1B1D46002D7FF732AB102D7E
:103220002F9A754B40F3C480194610262346079FFA
:10323000DDF82C900C4605E00BF1080B103D102D2D
:1032400040F3B38001321033072ACDE92F23CBE9B5
:103250000046F1DD2EAA4946384603F061F8002801
:103260007FF438AEDDE92F230DF1C40BE6E72F9A8A
:103270001A99CBF800101999CBF8041001320C44BC
:10328000072A30942F9200F38B820BF1080BA7E7EB
:10329000D9F85800FDF784F8B9F80C3028E62EAAC2
:1032A0000B99079803F03CF800287FF411AEDDE994
:1032B0002F5431AE38E62EAA0B99079803F030F858
:1032C00000287FF405AEDDE92F3431AE0F9338E6E8
:1032D00014680C930025FFF795BB14680C93002528
:1032E000FFF7AEB90C680C92E51720462946FFF7A8
:1032F000D2B914680C9101220025FFF732BB012AD4
:103300007FF43CAB8FE608F480630022CDE90DA684
:10331000CDF83C805AAF9246DDF878801E460AE030
:103320000023204629460A2204F072FA04460D467C
:1033300054EA050329D00A2200232046294604F036
:1033400067FA303207F8012C0AF1010A013F002E1A
:10335000E6D098F800309A45E2D1BAF1FF0FDFD0FD
:10336000002D08BF0A2CDBD31F9B1C99FF1A1A469D
:10337000384602F067FF98F80130002B00F0958482
:1033800008F101084FF0000ACAE7089BCDF87880E1
:10339000DB1BCDF850A00E9EDDF834A0DDF83C809C
:1033A0000D93FFF79EB9C14694E521461C460B4696
:1033B00001322C44072ACDE92F24CBE900357FF7D1
:1033C0005EAAEEE518F0100F40F0F98018F0400FFB
:1033D00000F04F83099A1A805746FFF7A7BA2EAA22
:1033E0000B99079802F09CFF00287FF471AD309C88
:1033F0000DF1C40BFFF7F5B9947C001ADDE9160155
:1034000002460B4604F0C6F9002840F08E84612E77
:1034100000F01081412E00F0738348F4807326F091
:103420002002B9F1FF3F12930892179B00F02A8403
:10343000472A00F02184002BC0F2F5829DED167B17
:10344000CDE90E008DED227B662E00F0E583462E41
:1034500000F07B84089B452B0CBF09F101054D460C
:103460002CA829A928AA0223CDE9031002920093CF
:103470000195DDE92223079800F02EFE672E07460E
:1034800040F09A8418F0010F40F0F4832C9B4046E2
:10349000DB1BDDF848801493289B1593089B472B72
:1034A00000F0E181089B462B00F0FA820899159BF9
:1034B000F2B2412908BF0F3203F1FF3306BFD2B287
:1034C00001210021002B2893B8BF159B8DF8A8205F
:1034D000BABFC3F101032D222B22092B8DF8A9209D
:1034E00000F3F483002940F0858430228DF8AA206F
:1034F0000DF1AB0230331370531C2AAA9B1A149A95
:103500001D93012A13440D9340F340840D9B199A97
:1035100013440D9300231393189315930D9B20F4DC
:10352000806023EAE37340F4807808930F9B002BBC
:1035300040F06F8299469DF89B20FFF7DEB82F9AE6
:10354000BB49CBF80010013201340121072ACDE933
:103550002F24CBF8041060DC0BF1080B2BB9149A64
:103560001AB918F0010F3FF48CA92F9A1A99CBF8C9
:1035700000101999CBF8041001320C44072A30943A
:103580002F9200F37F820BF1080B002BC0F2E28236
:10359000149B01321C44072ACDE92F24CBE9007388
:1035A0007FF76DA9FDE42EAA0B99079802F0B8FEEB
:1035B00000287FF48DAC0DF1C40BFFF7EFBB099A27
:1035C0001A605746FFF7B2B914880C910025012202
:1035D000FFF7C7B914880C930025FFF713BAB1F9A8
:1035E00000400C92E51720462946FFF754B814888E
:1035F0000C930025FFF724B82D228DF89B20FFF7B0
:10360000A1BA2EAA0B99079802F08AFE00287FF42F
:103610005FAC309C0DF1C40B33E52EAA0B990798D3
:1036200002F07EFE00287FF453AC289B309C0DF105
:10363000C40B93E730238DF89C307823B9F1630FE6
:103640008DF89D3048F0020400F3AB8248F481739A
:10365000129326F0200308930022179B0E92A04697
:1036600041AF002BC0F2E0819DED167B8DED227BFA
:1036700000230F93612E00F05282412E7FF4E4AEBE
:1036800028AADDE9220102F055FD00224FF07F5308
:1036900003F0E6FD00220023CDE9100104F048F814
:1036A000002840F00583634B0D93CDE913A609F183
:1036B000FF34CDF860902597B946CDF854B0CDF8D9
:1036C0009080DDF834A0DDE9106703E004F030F805
:1036D00020BBA9460022584B3046394603F0C0FDB6
:1036E0000F46064604F06CF8804603F04FFD024694
:1036F0000B463046394603F0FBFB4D461AF808C02E
:1037000005F801CBB4F1FF3FA34606460F464FF044
:1037100000024FF0000304F1FF34D7D130463946A0
:103720000022464BDDF84CA0149ECDF84CB0444628
:10373000CDF85090DDF89080DDF86090DDF854B061
:10374000259FCDE9100104F01BF8002840F0758199
:10375000DDE910010022394B03F0EAFF10B1E20766
:1037600000F16B81139B002B07DB139B01332B4470
:10377000302205F8012BAB42FBD1EB1B40461493E2
:10378000DDF8488088E6CDF82090CDF834900C9490
:1037900081461390189015909DF89B20FEF7ADBFC1
:1037A0002EAA0B99079802F0BBFD00287FF490AB7E
:1037B000289B309C0DF1C40B12E552420A920C93E7
:1037C000FFF76EB9144632461E4613462A460132AA
:1037D0000D9206F10802C6E900390D9B2F934C4467
:1037E000072B30943FF7C4AC01330D9302F1080B63
:1037F0001646FFF7CBBB2EAA0B99079802F090FD57
:1038000000287FF465AB309C0DF1C40BFFF7DFBAE5
:103810004B46062B28BF0623B946139718971597D2
:103820000E973A460893CDE90C43054FFEF765BF66
:10383000807C001A647C001A000030400000E03FE9
:10384000787C001A0C4639465F469B460B4601328F
:103850002C44072ACDE92F24CBE900353FF7A7AC4C
:103860000BF1080BAEE4159BDA1C02DB994580F2E4
:10387000B580023E26F02003089317E6149BCDF88E
:1038800048805A46DDE91E8BFB18CDF83CA0109706
:10389000AE4EDDF82CA00D934F46DDF81C9021466E
:1038A000189B002B5BD0139B002B54D1189B013B22
:1038B00008F1FF3818932F9B1C981060013359446E
:1038C000072B3091C2F804B02F9368DC08320D98B2
:1038D00098F80030C51B9D42A8BF1D46002D0BDD8A
:1038E0002F9B176001332944072B309155602F938C
:1038F0005EDC98F800300832002DACBF5D1B1D4621
:10390000002D26DD102D2F983CDD102403E0083219
:10391000103D102D36DD013010310728CDE92F0183
:10392000C2E90064F3DD2EAA5146484602F0F8FCD5
:10393000002850D1DDE92F0131AAE9E72EAA51462E
:10394000484602F0EDFC002845D198F80030309947
:1039500031AA1F44A4E7139B013B1393ABE7139BCE
:10396000002BF8D1B946149B109FCDF87880FB1836
:103970009945DDF83CA0DDF8488093460C4628BF09
:10398000994626E4013029440728CDE92F01C2E9F0
:103990000065D3DC98F8003008321F4480E72EAA77
:1039A0005146484602F0BCFCA8B9309931AA8EE7CE
:1039B0002EAA5146484602F0B3FC60B998F8003090
:1039C000309931AA98E73846FEF79AFCA946034693
:1039D0000D90FFF7F6B8D146FFF77CBA149B194655
:1039E000159B994200F38280C40740F16C81199ABB
:1039F00013440D93410503D5159B002B00F3E48080
:103A00000D9B23EAE373089367260023139318930F
:103A10008CE52D228DF89B204FF00009FEF76EBE3D
:103A2000A146FFF757BA0E90DDE9161202F10043E6
:103A300023932D2322910F931CE6149B2C930D9B13
:103A400015F8012CD97B91422B4609D1302003F87F
:103A5000010C2C9B5A1E2C9213F8012C9142F6D08B
:103A6000392A0BBF0D9A0132927AD2B203F8012C97
:103A700083E618F4007F3FF4A2AD099A1A70574606
:103A8000FEF754BF2EAA0B99079802F049FC0028B4
:103A90007FF41EAA289BDDE92F240DF1C40B74E5E9
:103AA000159B002B40F36881159BB9F1000F40F086
:103AB0000481C60700F101810D936626430500F1DC
:103AC00084800D9B23EAE37308939EE72EAA0B994B
:103AD000079802F025FC00287FF4FAA9289B149A85
:103AE000309CD31A0DF1C40BFFF792BB149B199AAB
:103AF00013440D93159B002B40F34D816726DDE7A2
:103B000030238DF89C30582398E507982EAA494613
:103B100002F006FC00287FF4E2A9FEF711BF28AAF4
:103B2000DDE9220102F006FB00224FF07F5303F093
:103B300097FB00220023CDE9100103F0F9FD08B145
:103B400001232893024B0D93AFE500BF947C001A2C
:103B5000507C001A5D421033BC4B80F29A801946AB
:103B600010262346DDF81C900C4605E00BF1080BEF
:103B7000103D102D40F38A8001321033072ACDE921
:103B80002F23CBE90046F1DD2EAA0B99484602F01F
:103B9000C7FB00287FF49CA9DDE92F230DF1C40B9E
:103BA000E6E709F10101079801F0BEFC074600288D
:103BB00000F0418148F48173129326F020030893AA
:103BC000A046179B0E904CE567261E980022139284
:103BD00018920378159AFF2B0CD093420ADA417899
:103BE000D21AA9B1189B013318930B46FF2B00F191
:103BF0000100F2D11592189B139A0D991E9013444F
:103C00001F9A02FB03130D9323EAE37308938DE4D9
:103C1000139901311391DEE72CA829A928AA0323BF
:103C2000CDE9031002920093CDF80490DDE9222340
:103C3000079800F051FA4D46074600EB09043B781F
:103C4000302B00F0C180289D2C4400220023DDE9A8
:103C5000220103F06DFD08B1234618E42C9BA3421A
:103C6000BFF415AC30215A1C2C9219702C9B9C422D
:103C7000F9D80CE47C19E8E7B9F1000F00F0958061
:103C80000E90EEE40E904FF00609EAE421461C4641
:103C90000B4601322C44072ACDE92F24CBE900350D
:103CA00000F3AC800BF1080B72E49A46FFF738BBC7
:103CB00001232893664B0D93F7E4199A13444B4460
:103CC0000D936626FAE6159B0D9393E60DF1B70C5E
:103CD0006446604D00E01446A5FB0312D20802EBD7
:103CE0008201A3EB410303F130011346092B04F8D1
:103CF000011C04F1FF32EEDC3033023CDBB2A445A0
:103D000002F8013C40F293800DF1AA04114601E053
:103D100011F8013B04F8013B8C45F9D12EAB9B1AFD
:103D20000DF1AA021344FFF7E8BB179B4A4F002B83
:103D3000B6BF2D229DF89B208DF89B20474BFEF7A8
:103D400003BFDDF82C90FFF7CAB82CA829A928AA30
:103D50000323CDE9031002920093CDF80490DDE92E
:103D60002223079800F0B8F94D460746462E07EB88
:103D700005043FF464AF68E7B9F1000F31D1C5071E
:103D80002FD4012308930D9366263EE6C3077FF5E3
:103D9000C1ABFFF7BBBB0D9AC3F101031A4422EA82
:103DA000E2730D92089367262FE6CDF838904FF016
:103DB000010956E45A460EE5472E7FF45BAF18F032
:103DC000010F3FF463ABD1E700220023DDE92201BC
:103DD00003F0AEFC00287FF436AFC5F1010528954D
:103DE00032E7199B01334B440D9323EAE3730893A5
:103DF00066260AE60DF1AA02FFF77CBB2EAA0B99F4
:103E0000079802F08DFA00287FF462A8DDE92F24DC
:103E10000DF1C40BFFF7BCBB0C999AF801600B685D
:103E200043EAE3790B1D92460C93FEF757BB0DF165
:103E3000AA03FFF762BBDDF82C90B9F80C3043F011
:103E40004003A9F80C30FFF74AB800BF947C001A71
:103E5000647C001ACDCCCCCC4C7C001A487C001A77
:103E60002DE9F0410C46ADF58D6D8989666EE589C9
:103E7000199621F002010646E069ADF80C101746CC
:103E80004FF48061626AADF80E5098461AAD002377
:103E9000079016A809920693009504950291059142
:103EA000FCF778FA43463A4669463046FEF798FAF8
:103EB000051E07DB3046694601F0AEF8002818BF42
:103EC0004FF0FF35BDF80C305B0603D5A38943F0F6
:103ED0004003A3811698FCF75FFA28460DF58D6D17
:103EE000BDE8F08138B5314B1B6805460C4613B16F
:103EF0009A6B002A3AD0B4F90C2093B218070CD56B
:103F00002069A8B113F0010220D0636900225B424E
:103F1000A361A26000B3002038BDD9063ED5580782
:103F200028D4206942F00803A3819BB20028E9D17C
:103F300003F42072B2F5007FE4D02846214601F058
:103F4000A9FAA389206913F00102DED1990758BFAD
:103F50006269A2600028DED1B4F90C301A06DBD504
:103F600043F04003A3814FF0FF3038BD184601F005
:103F7000AFF8C0E7216B51B104F14003994204D07E
:103F8000284601F02DF9B4F90C2000232363002307
:103F90002069636022F024022060C3E742F04002FF
:103FA00009232B604FF0FF30A28138BD00000010C4
:103FB0002DE9F04F03690F69BB4283B0C0F28680E0
:103FC000013F01F1140900F1140A59F827205AF8A9
:103FD0002730BC000132B3FBF2F80AEB0403009473
:103FE00009EB040B0193B8F1000F38D000252E46E1
:103FF000CE46D4465EF8044BDCF80030A2B208FB93
:104000000255220C2C0C08FB0242ADB2751B96B275
:10401000C6EB134615FA83F306EB23469BB243EA3D
:104020000643F3454FEA12454CF8043B4FEA264657
:10403000E0D2009B5AF803308BB9019A131F9A45BE
:104040000CD252F8043C4BB9A2F1080302E01A6802
:10405000043B1AB99A4507F1FF37F8D307610446C4
:1040600001F078FF00282DDB08F1010855460023F8
:1040700059F8041B28688AB29A1A0B0C12FA80F2BB
:10408000C3EB104303EB224392B242EA0342CB4517
:1040900045F8042B4FEA2343EAD25AF827200AEBCB
:1040A00087037AB91A1F92450BD253F8042C42B9F0
:1040B000083B02E01A68043B1AB99A4507F1FF373A
:1040C000F8D32761404603B0BDE8F08F002003B06D
:1040D000BDE8F08FFFFFFFFF2DE9F04F016C97B0B7
:1040E00014461D468346CDE9024549B1426C4A60FB
:1040F000012393408B6001F03DFD0023CBF840305D
:104100002E1E239AB4BF012300231360784BBCBF3B
:1041100026F000460396B34300F0A880DDE902894B
:10412000002200234046494603F002FB054678B1D1
:10413000229A01231360249B002B00F0C4806D4B56
:10414000249A1360013B0493049817B0BDE8F08FE4
:1041500014AA15ABCDE90032584642464B4601F051
:104160008BFF340D824640F0A380DDE914542C44CB
:1041700004F23243202B40F31384C3F140039E40EA
:10418000029B04F2124023FA00F0304302F0EEFFEB
:1041900001238046013CA1F1F87912930022564B8D
:1041A0004046494602F0A4FE4BA3D3E9002303F0A6
:1041B00057F84BA3D3E9002302F09CFE06462046A5
:1041C0000F4602F0E3FF48A3D3E9002303F048F8C9
:1041D00002460B463046394602F08CFE06460F4634
:1041E00003F0EEFA0022059000233046394603F032
:1041F000A9FA002840F06C82059E162E00F25D821E
:104200003E4B03EBC603D3E90001DDE9022303F0D3
:10421000B7FA002800F0C083731E059300230A93A9
:104220002C1B059BB4F1010846BFC4F101094FF0F6
:1042300000084FF00009002BC0F242829844099315
:1042400000230893209B092B60D8052B40F3A683FD
:10425000043B20930025209B023B032B00F2898422
:10426000DFE813F0C503A503CF03E604229A42F268
:104270000F731360029B7BB9C6F3130666B9249BC8
:10428000002B00F00E861E4B04930833249A0498EA
:10429000136017B0BDE8F08F249B2BB9194B049322
:1042A000049817B0BDE8F08F164B04930333EDE785
:1042B000C9F3130343F07F591295A4F2FF3449F474
:1042C0004019149D6AE7104B0493049817B0BDE899
:1042D000F08F00BFAFF3008061436F63A787D23FC9
:1042E000B3C8608B288AC63FFB799F501344D33FE5
:1042F0000000F07F817C001A0000F83FE07C001A8B
:10430000A47C001AB07C001A807C001A4FF0FF34A5
:104310000125CDE906450023209321930021CBF808
:1043200044100B94584601F0FFFB0E2C0490CBF880
:10433000400000F2F780002D00F0F4809DED027B3C
:10434000059900298DED0C7B40F3D183C14B01F021
:104350000F0203EBC20393ED007B0C11E3068DED1E
:10436000027B40F18684BC4BDDE90C01D3E90823D4
:1043700003F0A0F8CDE90E0104F00F0403267CB190
:10438000DDE90201B44DE70704D5D5E9002302F0C9
:1043900067FF0136641005F10805F4D1CDE902018B
:1043A000DDE90223DDE90E0103F084F8CDE9020125
:1043B0000A9B43B10022A94BDDE9020103F0C2F9D7
:1043C000002840F0E984304602F0E0FEDDE90223F7
:1043D00002F046FFA24B002202F08CFD069B06462F
:1043E000A1F15077002B00F00884059B1393069BE6
:1043F0000E93DDE9020103F0E3F90E9A954B03EB0E
:10440000C20313ED027B00F130058DED107B02F04D
:10441000BDFE02460B46DDE90201CDE9026702F06E
:1044200067FD049B064607985C1CEDB20F46DDE96C
:104430001023002800F0438400208A4903F03AF852
:10444000DDE9022302F054FD049A3B461570324622
:10445000CDE9020103F094F9002840F0ED843246E2
:104460003B4600207D4902F043FD02460B46DDE954
:10447000020103F085F9002840F0E3840E99012938
:104480004CD0049ACDF838901144CDF84080DDE945
:104490000289CDF808A08A460CE000206F4902F09E
:1044A00027FD42464B4603F04DF9002840F0C784F3
:1044B00054452DD04046494600226B4B02F0D0FEB9
:1044C0000022694B804689463046394602F0C8FED4
:1044D0000F46064603F074F9054602F057FE024601
:1044E0000B463046394602F003FD3035EDB2424608
:1044F0004B4604F8015B06460F4603F023F93246AB
:104500003B460028C9D0139BDDF808A0059317E2AD
:10451000DDF83890DDF84080DDF808A0DDE90C34E6
:10452000CDE90234159B002BC0F2AD80059A0E2A0E
:1045300000F3A980474B03EBC203D3E90089219B19
:10454000002BC0F2B182DDE9026742464B4630469D
:10455000394602F0AFFF03F033F9054602F016FECC
:1045600042464B4602F07CFE02460B463046394638
:1045700002F0BEFC049A05F130031370069B012B78
:1045800006460F4602F1010446D00022364B02F0E7
:1045900067FE0022002306460F4603F0C9F80028F4
:1045A00040F0CE81CDF808A0DDF818A0CDF818B005
:1045B000DDF810B00AE002F053FE002200230646A8
:1045C0000F4603F0B5F8002840F03C8342464B46C6
:1045D0003046394602F06EFF03F0F2F8054602F06D
:1045E000D5FD42464B4602F03BFE02460B463046A6
:1045F000394602F07DFC05F1300C04F801CBA4EB48
:104600000B0CE24506460F464FF00002164BD2D186
:10461000DDF808A0DDF818B032463B463046394692
:1046200002F068FC42464B4606460F4603F0A8F8E7
:1046300058B942464B463046394603F079F80028CF
:1046400000F07E81EB0740F17B8114F8015C049A55
:1046500012E000BFE07C001AB87C001A0000F03FB6
:1046600000001C400000E03F000024409A4200F09F
:104670001C8313F8015C1C46392D04F1FF33F5D07F
:1046800001351D705CE1079A92B3209A012A40F32C
:104690000082069B5F1E089BBB42C0F2D882DF1BD4
:1046A000069B002BC0F2F7824C46984499440121A6
:1046B000584601F0F9FA05461DE001230A93AFE5DB
:1046C000059BA9EB03095B42089300230993B9E515
:1046D000DDF81480404602F059FD32463B4603F0B7
:1046E00027F800287FF488AD08F1FF33059383E5B0
:1046F000089F079D4C46002C0BDDB8F1000F08DD2C
:1047000044452346A8BF4346A9EB0309E41AA8EB96
:104710000308089B6BB1079A002A00F08C82DE1B0D
:10472000002F40F08C8151463246584601F06CFB18
:1047300082460121584601F0B7FA099A0646002A36
:1047400040F01681209B012B40F35E810120404404
:1047500010F01F0000F00781C0F12003042B40F38C
:10476000A483C0F11C00814404448044B9F1000FCB
:1047700005DD51464A46584601F096FB8246B8F19F
:10478000000F05DD31464246584601F08DFB0646D6
:104790000A9B002B73D1069B002B40F30782079BDB
:1047A000002B00F08580002C00F35E81099B002B1C
:1047B00040F0C681A846029A049F02F001020992C5
:1047C000069A7B1E1A44079231465046FFF7F0FBCB
:1047D000294681460890504601F0BCFB31460290C4
:1047E0004246584601F0D2FBC368044609F130093D
:1047F0000146002B40F0D581504601F0ABFB21462D
:104800000690584601F0B6F9069B33B9209A22B9B2
:10481000099B002B00F01983209B029A002AC0F20A
:104820001E8205D1209A1AB9099A002A00F017822F
:10483000002B07F1010400F32382079B87F8009007
:10484000BB4200F02C82514600230A22584601F058
:104850009BF94545824629464FF000034FF00A0276
:10486000584600F0988101F08FF941460546002333
:104870000A22584601F088F927468046A4E73146C7
:10488000504601F067FB002885DA059F514600235A
:104890000A225846013F059701F076F9079B8246A8
:1048A000002B40F0E2820B9B002B40F3EA82069340
:1048B000DDF81080069F444602E001F065F982466B
:1048C00031465046FFF774FB00F1300904F8019BB4
:1048D000A4EB08039F424FF00A024FF00003514639
:1048E0005846EADC0023029351460122584601F063
:1048F000DBFA3146824601F02DFB002814F8012C2A
:1049000040F3B980049905E0994200F05C8113F806
:10491000012C1C46392A04F1FF33F5D001321A70FC
:104920003146584601F026F955B1029921B1A94204
:1049300002D0584601F01EF92946584601F01AF9EE
:104940005146584601F016F90022059B2270229A22
:1049500001331360249B002B3FF4F6AB04981C60DA
:1049600017B0BDE8F08F1C20814404448044FDE66C
:104970000146584601F048FA209B012B064640F3B9
:10498000F38000230993336906EB8303186901F070
:104990003BF9C0F12000DAE60A9041E401255AE42F
:1049A000C3F12006029B03FA06F0FFF7EFBB0023DA
:1049B0000793059B219A13440B930133012B1E4649
:1049C0000693B8BF01260021172ECBF84410069C91
:1049D0007FF7A8AC012204235B0003F11400B0426E
:1049E000114602F10102F7D9CBF844109AE40023F2
:1049F0000793219B002B40F3ED800B9306931E46FB
:104A0000E1E701230793F4E7029B002B7FF49EAEBE
:104A1000DDE90212C2F31303002B40F0998122F06A
:104A200000431B0D1B0523B109F1010908F1010821
:104A30000123099A0993002A3FF488AEA3E73A4676
:104A40002946584601F0E0F95246014605465846C7
:104A500001F034F951460746584601F08BF8BA4642
:104A6000002E3FF466AE5EE629462246584601F027
:104A70001BFA05469AE607D119F0010F7FF442AF01
:104A800002E014F8022C1C46302A04F1FF33F8D05F
:104A900046E7129A002A00F0538103F233434C4652
:104AA00098449944089F02E6069B002B3FF74BADC4
:104AB00040F0BB800022B24B4046494602F0D0FB9A
:104AC000DDE9022302F052FE069E3546002875D12C
:104AD000059A01320592049A31231370541C314611
:104AE000584601F047F8002D7FF426AF28E700F084
:104AF0003F81059B5C42A34B04F00F0203EBC20312
:104B0000D3E90023DDE90C0102F0AAFB2411CDE971
:104B1000020100F0BB819C4D00230226E20705D56F
:104B2000D5E9002302F09CFB01360123641005F156
:104B30000805F3D1002B3FF43BACCDE9020137E48B
:104B40006968584600F0F0FF2B6902339A0004466A
:104B500005F10C010C30FDF7BDFA21460122584643
:104B600001F0A2F9804626E6029B002B3FF450AFED
:104B700007E70024CBF844402146584600F0D4FF14
:104B80004FF0FF330B930693012304902194CBF84D
:104B900040000793C6E400F0F7FF2746054680462D
:104BA00012E6584600F0E6FF012336E6209B022B72
:104BB0007FF7F5AD069B002B00F0CC80219B049C79
:104BC000DB4305938BE7059A01320592049A312362
:104BD0001370A5E6012421940694FFF79FBB30468D
:104BE00002F0D4FADDE9022302F03AFB0022674B1F
:104BF00002F080F90646A1F150770022604BDDE912
:104C0000020102F075F932463B4604460D4602F0B9
:104C1000B7FD002846D1324607F100432046294619
:104C200002F090FD00283FF479AC00263546C5E738
:104C300001230793BDE65146089A584601F0E4F86F
:104C4000824676E5DDF808A0DDF818B078E6089B26
:104C5000099AFB1A1A44CDE90872002720E5002BB7
:104C600007F1010400F3BC80029587F800904546E7
:104C700056E69DED0C7B02268DED0E7BFFF77FBB8C
:104C8000B9F1390F00F0BE8009F10109029587F8EA
:104C90000090454644E6069BA9EB030407E5029510
:104CA000454621E60026354612E7049A3023137064
:104CB000059B14F8015C013305931346E0E4DDE93C
:104CC000020102F0CDFA049B1D700E9B012BCDE971
:104CD000020123D00E9B049ACDF838901344C146AC
:104CE000984600222A4B3046394602F0B9FA0F4660
:104CF000064602F065FD054602F048FA30350246E8
:104D00000B463046394602F0F3F804F8015B44459F
:104D100006460F46E5D1C846DDF838901D4B002207
:104D2000DDE9020102F0E6F832463B4602F00AFDF8
:104D300000286DD0139B059314F8015C049A9BE442
:104D4000149B089FC3F136034C4698449944AEE443
:104D500000236EE631460522584600F015FF014655
:104D60000646504601F0F6F800283FF7B1AE25E7B9
:104D70009DED0C7B02268DED027BFFF719BB00BF7A
:104D800000001440E07C001AB87C001A00001C40AF
:104D9000000024400000E03F069B002B3FF41FAFC3
:104DA0000B9C002C7FF7BAAB0022424BDDE90201DD
:104DB00002F056FACDE90201701C02F0E7F9DDE9D4
:104DC000022302F04DFA3C4B002202F093F8059BBF
:104DD0000E94013B0646A1F150771393FFF709BBF0
:104DE00051460122584601F05FF83146824601F0F3
:104DF000B1F8002832DDB9F1390F03D0089B03F177
:104E0000310931E7392202953A704546049981E526
:104E1000DDE902230020294902F06AF832463B46C8
:104E200002F0AEFC10B9FFF779BB144614F8013C50
:104E3000302B04F1FF32F8D0139B059380E5DDF8A9
:104E400008A0139B0593049A16E4B9F1390F07F1F2
:104E50000104D7D0029B002BD0DC05E77FF404AF20
:104E600019F0010F3FF400AFC5E7294600230A22DD
:104E7000584600F089FE0B9B002B054609DD069382
:104E800091E4209B022B09DC0B9B10E50226FFF727
:104E90008FBA209B022B01DC0B9BF0E70B9B069348
:104EA00088E6074B0493FFF74FB93FF45FACC0F1BE
:104EB0003C0059E50000244000001C400000E03F99
:104EC000A47C001AB1F90C309AB22DE9F0410C46DD
:104ED0001107804644D4626843F40063002AA3812A
:104EE00059DDA56A002D53D000229BB2D8F800608E
:104EF000E169C8F8002013F4805240F08380012358
:104F00004046A847421C4AD0A389A56AE1695B07CD
:104F100005D56268236B801A0BB1E36BC01A024699
:104F200000234046A847471C45D0B4F90C302269FD
:104F3000226023F400630022A381DB04626000D5B9
:104F40002065216BC8F8006011B304F14003994259
:104F500002D0404600F044F900202063BDE8F08113
:104F60002669AEB12568266092070CBF63690023ED
:104F7000AD1BA3600AE02B463246676AE1694046F2
:104F8000B8470028A5EB000506442BDD002DF2DC18
:104F90000020BDE8F081E26B002AA2DCF8E7D8F837
:104FA0000030002BB0D01D2B01D0162B2CD1C8F80F
:104FB00000600020EDE7D8F800101D291AD8154B25
:104FC000B4F90C20CB40DB4313F0010314D1256965
:104FD00022F40062C4E90053D504A281B1D50029AE
:104FE000AFD1ADE7A38943F04003A3814FF0FF3079
:104FF000BDE8F081B4F90C2042F04002A2814FF0EC
:10500000FF30C6E7206D82E7A38943F04003A38108
:10501000BFE700BF0100402038B50D46044608B187
:10502000836BA3B1B5F90C00B8B16B6EDB0701D48B
:1050300081051AD520462946FFF744FF6B6EDA0733
:10504000044602D4AB899B050AD5204638BD00F042
:105050003FF8B5F90C000028E7D10446204638BDDA
:10506000A86DFBF79DF9204638BDA86DFBF796F9B2
:10507000E0E700BF10B5002304468181C281C0E98A
:10508000003383604366C0E9043383611946082214
:105090005C30FBF735F907480749084A084BE362DB
:1050A000C4E90740C4E9091204F15800BDE8104002
:1050B000FBF770B9BD61001AE161001A1D62001AA8
:1050C0003D62001A014900F07FB900BFED63001A8C
:1050D00010B504461248FBF761F9A26BD2B904F58A
:1050E0003B731048C4F8E8320321C4F8E022E063BF
:1050F000C4F8E41260680421FFF7BCFF0122092113
:10510000A068FFF7B7FF02221221E068FFF7B2FFA5
:105110000123A3630248BDE81040FBF741B900BF7B
:10512000300A0010C550001A0148FBF737B900BF1C
:10513000440A00100148FBF733B900BF440A0010CD
:10514000F8B5244F0C46064600F0E2FCBB685D68EB
:10515000C4F57E610F3125F00305294421F47F61F8
:1051600021F00F01A1F58054B4F5805F07DB002129
:10517000304601F011F8BB682B44984204D0304609
:1051800000F0CCFC0020F8BD6142304601F004F88C
:1051900001300DD0104BBA6819682D1B45F0010580
:1051A0003046091B5560196000F0B8FC0120F8BDBD
:1051B0000021304600F0F0FFBA68831A0F2BDEDDC5
:1051C000064C0549246843F00103001B5360086046
:1051D000D5E700BF34040010F00900103C080010AF
:1051E000002953D0F8B50C46064600F091FC54F85F
:1051F00004CC714F2CF00101A4F108056B18B868BC
:105200005A68984222F0030253D01CF0010F5A60F2
:1052100003EB02003BD154F808CC4068A5EB0C0529
:1052200007F1080EAC687445614400F0010075D0C8
:10523000D5F80CC0C4F80CC0CCF8084060B341F0FD
:1052400001036B606950B1F5007F50D34B0A042B0A
:1052500070D88B0903F13904E40003F138023819DE
:105260003B590838984278D05A6822F003028A42A3
:1052700071D99B689842F7D1C368C5E902039D6064
:10528000C5603046BDE8F84000F048BC7047406853
:1052900000F001000028D2D19868484C1144A04287
:1052A00041F0010262D0DB68C36098606A606950B7
:1052B000C9E71CF0010F0A4407D154F8083CED1A65
:1052C0001A44D5E90213CB6099603D4B1B6842F04C
:1052D000010193426960BD6004D83A4B30461968B9
:1052E000FFF72EFF3046BDE8F84000F017BCC908B4
:1052F00078684A1C012389108B40034307EBC201E5
:1053000057F832007B600839C5E9020147F832508E
:10531000C5603046BDE8F84000F000BC002845D12B
:105320000A44D3E9021342F00100CB60996068603F
:10533000AA50D7E7142B08D9542B1ED80B0B03F116
:105340006F04E40003F16E0289E703F15C04E400FA
:1053500003F15B0283E718468EE793107968012218
:1053600002FA03F30B437B60034686E7C7E9045563
:10537000C5E902006A606950B4E7B3F5AA7F06D8B0
:10538000CB0B03F17804E40003F1770267E740F206
:105390005452934206D88B0C03F17D04E40003F1D0
:1053A0007C025CE74FF47E747E2258E741F00102F4
:1053B0006A60196096E700BF340400103C040010D6
:1053C00040080010200A00102DE9F84310F5387746
:1053D0001FD0884606464FF00009D7E90154013D29
:1053E00011D4A389012B05F1FF352146304606D99A
:1053F000B4F90E30013302D0C04749EA00096B1CF2
:1054000004F16804EDD13F68002FE6D14846BDE8BD
:10541000F883B9464846BDE8F88300BF044A054B07
:105420001268506B002808BF1846F030704700BF64
:10543000000000104408001070B50C46B1F90E10C1
:10544000002996B015461E460FDAA289002312F0F5
:105450008000336004D14FF480632B6016B070BDC0
:10546000402218462A6016B070BD6A4601F0A8F8BE
:105470000028EADB019B03F47043A3F50053B3FA61
:1054800083F35B094FF480624FF4006033602A605D
:1054900016B070BD8A8992070B4606D501F143020A
:1054A00001211A60C3E90421704770B582B001ABD5
:1054B0006A460C460546FFF7BFFF00990646284698
:1054C00000F032F8B4F90C30D8B11649E963019A0A
:1054D0000099206043F08003A381C4E904011AB954
:1054E0003343A38102B070BD2846B4F90E1001F019
:1054F000F9F9A0B1A38923F0030343F001031BB220
:10550000EEE79A05EED423F0030304F1430243F0DF
:1055100002030121A3812260C4E90421E2E7B4F976
:105520000C30DDE7C550001A2DE9F04F01F10B05F5
:10553000162D83B0064623D8102900F2B98000F05A
:10554000E7FA102518230220C54F3B44A3F10802B7
:105550005C68944200F06681636823F0030323448F
:10556000D4E902515A68E96042F001028D60304688
:105570005A6000F0D3FA0834204603B0BDE8F08F3B
:1055800035F0070500F19480A94200F2918000F007
:10559000BFFAB5F5FC7FC0F083816B0A00F08F8005
:1055A000042B00F24681AB0903F1390003F1380CFA
:1055B000C300AB4F3B44A3F108015C68A14206D194
:1055C0000CE0002A80F21D81E468A14206D06368E5
:1055D00023F003035A1B0F2AF3DD60463C69DFF812
:1055E00094C2644571D0636823F003035A1B0F2AE9
:1055F00000F34481002AC7E904CC80F22681B3F588
:10560000007F80F06981DB08591C7A6857F8318087
:10561000C4F808804FF0010E9B100EFA03F307EB5D
:10562000C10E1343AEF10802E2607B6047F83140DF
:10563000C8F80C408210012494409C424BD81C4274
:1056400006D120F0030064001C4200F10400FAD0EF
:1056500007EBC009CE468046DEF80C309E4507D1E8
:1056600022E1002A80F22981DB689E4500F01C813E
:10567000596821F003014A1B0F2AF2DDD3E9028E9B
:105680005C1945F001055D6042F00105C8F80CE0C9
:105690003046CEF80880C7E90444C4E902CC65600E
:1056A0005A50019300F03AFA019B03F1080463E7B2
:1056B00000240C232046336003B0BDE8F08F4FF484
:1056C000007340204FF03F0C73E77B688210012489
:1056D00094409C42B3D9BC68636823F00309A94590
:1056E00003D3A9EB05030F2B7BDC5E4BDFF888A10E
:1056F0001A68DAF80030013305EB020800F048813F
:1057000008F5805808F10F0828F47F6828F00F0882
:105710004146304600F040FDB0F1FF3F834600F0C7
:10572000048104EB0900584500F2FD804E4A1368DD
:105730004344136000F04D81DAF8001001311BBFC3
:10574000ABEB00001B18CAF800B013601BF0070396
:1057500000F03481C3F10801C3F580538B44083352
:10576000D844C8F30B08A3EB080841463046019221
:1057700000F012FD431C019A00F04681A0EB0B01E2
:10578000414441F001011368C7F808B04344BC42EA
:10579000CBF80410136015D0B9F10F0F40F230812F
:1057A0006068A9F10C0121F0070100F0010004EB91
:1057B000010C08434FF0050E0F296060CCE901EEA3
:1057C00000F23A81294A2A481168BC688B42016874
:1057D00088BF136062688B4222F0030288BF0360B7
:1057E000A7E0621943F0010345F00105656030460A
:1057F000BA60536000F092F90834204603B0BDE867
:10580000F08F2344E1685A68A56842F00102E9601C
:1058100030468D605A6000F081F90834204603B0AC
:10582000BDE8F08FDC68A34208BF02303FF4D6AE7B
:1058300092E6142B71D9542B00F2AD802B0B03F19F
:105840006F0003F16E0CC300B3E6234430465A6880
:1058500042F001025A60083400F060F98CE600BFA3
:1058600034040010200A0010F0090010180A00107B
:105870001C0A00103C0400103C080010611945F09F
:10588000010E42F00105C4F804E03046C7E90411F6
:10589000C1E902CC4D60E25000F040F908346BE6FB
:1058A000E80805F108034FE608F1010818F0030FB6
:1058B0000EF1080E7FF4D0AE52E019441C464A683F
:1058C000DB6854F8085F42F001024A603046EB6042
:1058D0009D6000F023F94FE65A0A042A35D9142AAC
:1058E0006FD802F15C01C9005B3207EB010E7958F9
:1058F000AEF1080E8E4558D04A6822F003029A4253
:1059000002D989688E45F7D1D1F80CE07B68C4E9EB
:10591000021ECEF80840CC608CE603F15C0003F177
:105920005B0CC30045E6BC4272D0BC68626822F0E2
:1059300003029542A2EB050302D80F2B3FF751AFAC
:10594000304600F0EBF8002416E69A0902F139011E
:10595000C9003832C9E7D9F80090994540F08380F2
:1059600010F0030FA9F1080300F1FF30F3D17B68B9
:1059700023EA04037B6064009C423FF6ACAE1CB992
:10598000A9E6640008F104081C42FAD040465FE62C
:1059900008F11008BCE6B3F5AA7F26D8EB0B03F19B
:1059A000780003F1770CC30003E67B6892104FF098
:1059B000010808FA02F213437B60A8E74FF4805312
:1059C000CEE6542A29D81A0B02F16F01C9006E32B3
:1059D0008BE7C0F30B0100297FF4AEAE09EB0802A0
:1059E000B96842F001024A60ECE640F25452934238
:1059F0001CD8AB0C03F17D0003F17C0CC300D8E58F
:105A00000123CBF804309BE701214FF00008BAE6F0
:105A1000164A1368434413608EE6B2F5AA7F14D881
:105A2000DA0B02F17801C90077325EE74FF47E733A
:105A30007F204FF07E0CBCE504F108013046019256
:105A4000FFF7CEFB019A1368BCE640F254518A423C
:105A500005D89A0C02F17D01C9007C3245E74FF46C
:105A60007E717E2241E77B6885E700BFF009001068
:105A700001F0FF01102A2BDB10F0070F08D010F8FF
:105A8000013B013A8B422DD010F0070F42B3F6D103
:105A9000F0B441EA012141EA014122F007047FF01C
:105AA00000070023F0E80256083C85EA010586EA73
:105AB000010685FA47F5A3FA87F586FA47F6A5FAAF
:105AC00087F68EB9EED1F0BC01F0FF0102F00702BB
:105AD00032B110F8013B013A83EA010313B1F8D166
