:020000041A00E0
:1000000000800010BD03001AA501001AAB01001A00
:10001000B101001AB701001ABD01001A000000006A
:10002000000000000000000000000000C301001AF2
:10003000C901001A00000000CF01001AC50A001A09
:10004000DB01001ADB01001ADB01001A00000000CE
:10005000DB01001ADB01001ADB01001ADB01001AC8
:10006000DB01001ADB01001ADB01001ADB01001AB8
:10007000DB01001ADB01001ADB01001ADB01001AA8
:10008000DB01001ADB01001ADB01001ADB01001A98
:10009000DB01001ADB01001ADB01001ADB01001A88
:1000A000DB01001ADB01001A9D03001ADB01001AB4
:1000B000DB01001ADB01001ADB01001ADB01001A68
:1000C000DD0A001AFD0A001A1D0B001A3D0B001A6A
:1000D000DB01001ADB01001ADB01001ADB01001A48
:1000E000DB01001ADB01001ADB01001ADB01001A38
:1000F00000000000DB01001ADB01001ADB01001A1E
:1001000000000000DB01001ADB01001ADB01001A0D
:10011000DB01001A7C2A001A0000001044080000CD
:1001200044080010A000000080B489B000AFF8605F
:10013000B9607A60BB68FB61FB68BB6100237B61CF
:100140000AE0BA69131DBB61FB69191DF9611268E8
:100150001A607B6904337B617A697B689A42F0D3C9
:1001600000BF2437BD465DF8047B704780B485B07E
:1001700000AF786039607B68FB600023BB6007E0FC
:10018000FB681A1DFA6000221A60BB680433BB606A
:10019000BA683B689A42F3D300BF1437BD465DF896
:1001A000047B704780B400AFFEE780B400AFFEE789
:1001B00080B400AFFEE780B400AFFEE780B400AFCC
:1001C000FEE780B400AFFEE780B400AFFEE780B486
:1001D00000AFFEE780B400AFFEE780B400AFFEE7FB
:1001E000FFFFFFFFFFFFFFFFFFFFFFFFFFFFFFFF1F
:1001F000FFFFFFFFFFFFFFFFFFFFFFFFFFFFFFFF0F
:10020000FFFFFFFFFFFFFFFFFFFFFFFFFFFFFFFFFE
:10021000FFFFFFFFFFFFFFFFFFFFFFFFFFFFFFFFEE
:10022000FFFFFFFFFFFFFFFFFFFFFFFFFFFFFFFFDE
:10023000FFFFFFFFFFFFFFFFFFFFFFFFFFFFFFFFCE
:10024000FFFFFFFFFFFFFFFFFFFFFFFFFFFFFFFFBE
:10025000FFFFFFFFFFFFFFFFFFFFFFFFFFFFFFFFAE
:10026000FFFFFFFFFFFFFFFFFFFFFFFFFFFFFFFF9E
:10027000FFFFFFFFFFFFFFFFFFFFFFFFFFFFFFFF8E
:10028000FFFFFFFFFFFFFFFFFFFFFFFFFFFFFFFF7E
:10029000FFFFFFFFFFFFFFFFFFFFFFFFFFFFFFFF6E
:1002A000FFFFFFFFFFFFFFFFFFFFFFFFFFFFFFFF5E
:1002B000FFFFFFFFFFFFFFFFFFFFFFFFFFFFFFFF4E
:1002C000FFFFFFFFFFFFFFFFFFFFFFFFFFFFFFFF3E
:1002D000FFFFFFFFFFFFFFFFFFFFFFFFFFFFFFFF2E
:1002E000FFFFFFFFFFFFFFFFFFFFFFFFFFFFFFFF1E
:1002F000FFFFFFFFFFFFFFFFFFFFFFFFFFFFFFFF0E
:10030000F0B4860743D0541E002A3ED0CAB203463A
:1003100002E014F1FF3438D303F8012B9D07F8D124
:10032000032C2BD9CDB245EA05250F2C45EA05450E
:1003300016D9A4F110073F0903F1200606EB0716B2
:1003400003F1100242E9045542E902551032B2426B
:10035000F8D104F00F040137032C03EB07130DD978
:100360001E462246043A032A46F8045BFAD8221FA6
:1003700022F003020432134404F003042CB1C9B286
:100380001C4403F8011B9C42FBD1F0BC704714468F
:100390000346C5E7704700BF704700BF80B500AF98
:1003A000034A0449044800F044FF00BF80BD00BF79
:1003B000440800105808001000100C4080B588B0A8
:1003C00000AF72B6264B7B617B69264A1A607B6957
:1003D0000433254A1A60254B3B610023FB6109E089
:1003E000FB699B003A6913444FF0FF321A60FB69C6
:1003F0000133FB61FB69072BF2D962B61C4BBB6171
:1004000013E0BB691A1DBA611B687B60BB691A1DCA
:10041000BA611B68FB60BB691A1DBA611B68BB60CF
:10042000BA68F9687868FFF77FFEBB69114A9342A2
:10043000E7D30DE0BB691A1DBA611B68FB60BB699D
:100440001A1DBA611B68BB60B968F868FFF78EFEB9
:10045000BB69094A9342EDD300F010F8FEE700BFF4
:10046000003105400010DF10FFF7DF0180E200E0FF
:100470001401001A2001001A2801001AB0B598B022
:1004800000AF00F0EDF907F12803184602F07AF802
:10049000012001F01DFD0346BB65012001F018FDA0
:1004A00003467B65642001F013FD03463B65BB6D8D
:1004B0000A221A707B6DCD221A703B6D87221A704A
:1004C000012387F85F300BE097F85F303A6D1344F3
:1004D00097F85F201A7097F85F30013387F85F3024
:1004E00097F85F30632BEFD93B46184602F04AF885
:1004F00007F128043D460FCD0FC40FCD0FC495E87A
:10050000030084E80300B86D01F0EAFC786D01F0A7
:10051000E7FC386D01F0E4FC3B46184602F032F887
:1005200007F128043D460FCD0FC40FCD0FC495E849
:10053000030084E80300FEE780B483B000AF034605
:10054000FB71FB7903F01F03012202FA03F1064A53
:1005500097F907305B0942F8231000BF0C37BD46FE
:100560005DF8047B704700BF00E100E080B483B019
:1005700000AF0346FB71FB7903F01F03012202FA6F
:1005800003F1064A97F907305B09603342F82310FC
:1005900000BF0C37BD465DF8047B704700E100E00A
:1005A00080B483B000AF03463960FB7197F9073020
:1005B000002B0BDA3B68DAB20C49FB7903F00F032E
:1005C000043B5201D2B20B441A7609E03B68DAB21E
:1005D000074997F907305201D2B20B4483F8002340
:1005E00000BF0C37BD465DF8047B704700ED00E0AE
:1005F00000E100E080B582B000AF78607B68013B2D
:10060000B3F1807F01D301230FE00A4A7B68013BED
:10061000536007214FF0FF30FFF7C2FF054B002268
:100620009A60044B07221A60002318460837BD461B
:1006300080BD00BF10E000E080B483B000AF03468F
:10064000FB710B46BB711346BB800748F979BB7938
:10065000BA8849010B4440F8232000BF0C37BD463F
:100660005DF8047B704700BF0060084080B485B02F
:1006700000AF0346FB710B46BB7113467B71FB79E0
:10068000DB0003F01803FB60BB795B01DAB27B7916
:1006900003F01F031A43FB6802FA03F3BB600F4A1F
:1006A000FB799B08DBB203F5607352F82330FF211E
:1006B000FA6801FA02F2D2431A400849FB799B0812
:1006C000DBB21846BB681A4300F5607341F823207B
:1006D00000BF1437BD465DF8047B704700600840DA
:1006E00080B483B000AF78600B46FB701346BB70DC
:1006F000FA787B6802F5006253F82210BB78012279
:1007000002FA03F3FA7819437B6802F5006243F8B2
:10071000221000BF0C37BD465DF8047B704780B4E3
:1007200083B000AF78600B46FB701346BB70FA785D
:100730007B6802F5006253F82210BB78012202FAAE
:1007400003F3DB43FA7819407B6802F5006243F853
:10075000221000BF0C37BD465DF8047B704780B4A3
:1007600083B000AF78600B46FB701346BB70BB785C
:10077000012202FA03F3FA7819467B6802F50A624D
:1007800043F8221000BF0C37BD465DF8047B70476C
:1007900080B483B000AF786039607B681A683B68CA
:1007A000DB431A407B681A6000BF0C37BD465DF81A
:1007B000047B704780B483B000AF786039607B6899
:1007C0003A685A6100BF0C37BD465DF8047B70473C
:1007D00080B483B000AF786039607B683A685A6251
:1007E00000BF0C37BD465DF8047B704780B483B012
:1007F00000AF78607B680122DA6500BF0C37BD4628
:100800005DF8047B704780B483B000AF78603960D6
:100810007B685A683B681A437B685A6000BF0C3794
:10082000BD465DF8047B704780B483B000AF78604C
:1008300039607B683A689A6000BF0C37BD465DF846
:10084000047B704780B483B000AF786039607B6808
:100850003A68DA6000BF0C37BD465DF8047B70472C
:1008600090B583B000AF00F0E5FA01F0D7FA00F0E0
:1008700023FD00F0BBF98C4801F0DCFA00237B601B
:100880004EE08A497A6813465B0013445B000B44D0
:10089000187886497A6813465B0013445B000B4462
:1008A00001331C7881497A6813465B0013445B006E
:1008B0000B4404331B881A462146FFF7BDFE7B49D3
:1008C0007A6813465B0013445B000B4402331878CC
:1008D00076497A6813465B0013445B000B4403338C
:1008E0001B781A4601467048FFF7FAFE6F497A688E
:1008F00013465B0013445B000B44023318786B49CA
:100900007A6813465B0013445B000B4403331B7887
:100910001A4601466448FFF722FF7B6801337B607B
:100920007B68052BADD900237B6037E060497A688E
:1009300013465B0013445B000B4418785C497A68EB
:1009400013465B0013445B000B4401331C78584989
:100950007A6813465B0013445B000B4404331B8826
:100960001A462146FFF768FE51497A6813465B0034
:1009700013445B000B44023318784D497A681346E0
:100980005B0013445B000B4403331B781A4601469B
:100990004548FFF7C4FE7B6801337B607B68032B0F
:1009A000C4D91E2201210720FFF746FED6220221CC
:1009B0000720FFF741FE3F4800F078FB03213D4848
:1009C000FFF740FF4FF4E1313A4800F0B3FBC72195
:1009D0003848FFF729FF01213648FFF714FF0023AD
:1009E0007B6032E07B68D8B231497A6813465B009D
:1009F00013445B000B4402331C782D497A6813467C
:100A00005B0013445B000B4403331B781A462146FA
:100A1000FFF72CFE01227B6802FA03F319462648F1
:100A2000FFF7D6FE01227B6802FA03F3194622483B
:100A3000FFF7AEFE01227B6802FA03F319461E4857
:100A4000FFF7B8FE7B6801337B607B68032BC9DD51
:100A50002020FFF78BFD2120FFF788FD2220FFF7E4
:100A600085FD2320FFF782FD2020FFF765FD212073
:100A7000FFF762FD2220FFF75FFD2320FFF75CFDFB
:100A80001A20FFF759FD0B48FFF7B0FE0B4B1B6810
:100A90000B4AA2FB03239B091846FFF7ABFD00BFDF
:100AA0000C37BD4690BD00BF00400F406829001ABA
:100AB0008C29001A00100C4000700840DC0800105F
:100AC000D34D621080B400AF034B01221A7000BFF7
:100AD000BD465DF8047B70476D08001080B500AF1F
:100AE000044B01221A7001210348FFF771FE00BF79
:100AF00080BD00BF6C0800100070084080B500AFDA
:100B0000044B02221A7002210348FFF761FE00BF66
:100B100080BD00BF6C0800100070084080B500AFB9
:100B2000044B03221A7004210348FFF751FE00BF53
:100B300080BD00BF6C0800100070084080B500AF99
:100B4000044B04221A7008210348FFF741FE00BF3E
:100B500080BD00BF6C0800100070084080B584B0F4
:100B600000AF78600D4B1B68FB600C4B1A687B680C
:100B700013440A4A1360094B1B68094A934207D37E
:100B8000064AFB681360074B0C221A6001F098F9C3
:100B9000FB6818461037BD4680BD00BF300400100A
:100BA00000A00810E008001080B483B000AF7860A7
:100BB0003960054B16221A604FF0FF3318460C3788
:100BC000BD465DF8047B7047E008001080B400AFBC
:100BD00001231846BD465DF8047B704780B582B09E
:100BE00000AF7860786801F067F9FFFF80B489B0E2
:100BF00000AF164BFB61164BBB61164B7B610023AC
:100C0000FB74BB691B68BB607B691B687B60BB684E
:100C1000114A934205D17B68104A934201D10123C6
:100C200000E00023FB74FB7C002B09D0FB691B68F0
:100C3000FB60FB6843F47003FB60FA68FB691A60B1
:100C400000BF2437BD465DF8047B704788ED00E0A7
:100C500040EF00E044EF00E021001110110000110E
:100C600080B400AF054B5B6C044A43F0010353644E
:100C700000BFBD465DF8047B704700BF0000054023
:100C800080B483B000AF78607B681B681A467B68CD
:100C90001B791B0613437A681269120413437A689E
:100CA0009268120313437A68D26812021343054A0A
:100CB00043F40063536400BF0C37BD465DF8047B0A
:100CC000704700BF0000054080B400AF064B1B6CAE
:100CD00003F00103002B14BF01230023DBB21846ED
:100CE000BD465DF8047B70470000054090B58FB0AD
:100CF00000AF03463960FB711346BB714FF4FA73C2
:100D0000BB6200233B630023FB62FB79062B01D10E
:100D100000F06CFDF97900230122042000F058FF57
:100D2000FFF79EFFFB793B7307F10803194638680C
:100D300000F094FD3B683D4A934216D9BB6803F02E
:100D40004003002B00D0FEE7BB6803F08003002BBC
:100D500006D001233B63BB6823F08003BB6004E043
:100D60000123FB627B6901337B6107F108031846AD
:100D7000FFF786FF00BFFFF7A7FF0346002BFAD05F
:100D8000002301220921042000F022FF3B6B002BED
:100D900012D041F65833BB6200BFBB6A5A1EBA621A
:100DA000002BFAD1BB6843F08003BB6007F1080356
:100DB0001846FFF765FF13E0FB6A002B10D04FF4D5
:100DC0007A73BB6200BFBB6A5A1EBA62002BFAD1AB
:100DD0007B69013B7B6107F108031846FFF750FF71
:100DE000BB79002B1ED000237B6318E0104A7B6B7D
:100DF00012F823000E4A7B6B9B00134459780C4A6F
:100E00007B6B9B0013449C78094A7B6B9B001344CB
:100E1000DB78224600F0DCFE7B6B01337B637B6B6F
:100E2000112BE3D900BF3C37BD4690BD80778E06BD
:100E3000A429001A80B500AF012203490620FFF75C
:100E400055FF00BF80BD00BF00CB280C80B483B02D
:100E500000AF78607B680C331A687B6810331B68BE
:100E60009A420CBF01230023DBB218460C37BD4663
:100E70005DF8047B704780B483B000AF78607B6816
:100E80000022DA6500BF0C37BD465DF8047B704771
:100E900080B483B000AF78600B46FB70FA787B6853
:100EA0001A6000BF0C37BD465DF8047B704780B404
:100EB00083B000AF78607B681B68DBB218460C37E4
:100EC000BD465DF8047B704780B483B000AF7860A6
:100ED00039607B685A683B68DB431A407B685A601C
:100EE00000BF0C37BD465DF8047B704780B483B00B
:100EF00000AF78607B689B6818460C37BD465DF88C
:100F0000047B704780B483B000AF786039607B6841
:100F10003A689A6000BF0C37BD465DF8047B7047A5
:100F200080B483B000AF786039607B683A68DA607B
:100F300000BF0C37BD465DF8047B704780B483B0BA
:100F400000AF78607B68DB6843F080027B68DA6022
:100F500000BF0C37BD465DF8047B704780B483B09A
:100F600000AF78607B68DB6823F080027B68DA6022
:100F700000BF0C37BD465DF8047B704780B483B07A
:100F800000AF78600B46FB701346BB70FA787B6845
:100F90001A60BA787B685A6000BF0C37BD465DF8AE
:100FA000047B704780B483B000AF78607B685B6976
:100FB00018460C37BD465DF8047B704780B483B09B
:100FC00000AF786039607B681A6A3B681A437B68B7
:100FD0001A6200BF0C37BD465DF8047B7047FFFF07
:100FE00080B485B000AF78607B68FB60FB68104A16
:100FF00093420FD00E4A934203D80E4A934207D031
:101000000EE00D4A934207D00C4A934206D007E007
:10101000002306E0012304E0022302E0032300E0B2
:10102000002318461437BD465DF8047B704700BFA7
:10103000002008400010084000100C4000200C4028
:1010400080B582B000AF78607868FFF74FFF034645
:1010500003F48073002B11D04FF480717868FFF790
:10106000ADFF4FF480717868FFF72EFF0E4B1B78B1
:10107000DBB2002B02D10C4B01221A707868FFF70B
:1010800035FF034603F40073002B09D04FF40071C1
:101090007868FFF793FF4FF400717868FFF714FF4B
:1010A00000BF0837BD4680BD6E08001080B584B013
:1010B00000AF7860FB687868FFF792FF02461B4B31
:1010C00033F8120001230122012100F0F5FD072170
:1010D0007868FFF717FF7868FFF7CDFE7B6800227E
:1010E0005A607B680022DA607B6800221A627B68A3
:1010F0000022DA647B6800225A657B6800221A6548
:101100007B680B4A934205D17B6800221A617B6899
:101110009B69FB6003217868FFF702FF7B68102260
:101120009A6200BF1037BD4680BD00BFEC29001A8F
:101130000020084080B586B000AF786039607868DC
:10114000FFF74EFF0246164B33F81230184600F0F8
:1011500021FE78613B681B017A69B2FBF3F33B61C6
:101160003B691B0AFB60FB681B023A69D31ABB6030
:101170007868FFF7E3FEBB68DBB2FA68D2B21946C3
:101180007868FFF7FBFE7868FFF7E8FE7A693B694D
:10119000B2FBF3F31B0918461837BD4680BD00BFEC
:1011A000F429001A80B584B000AF786039600AE095
:1011B0007868FFF77CFE0346FB7307F10F031946BF
:1011C000386800F0ECF87868FFF7ECFE034603F0AF
:1011D0000103002BECD100BF1037BD4680BD80B5A8
:1011E00084B000AF7860396004E0FB7B1946786812
:1011F000FFF74EFE7868FFF7D5FE034603F02003A5
:10120000002B08D007F10F031946386800F0F5F8F5
:101210000346002BE9D13868FFF718FE0346002B80
:1012200003D002217868FFF74FFE00BF1037BD469C
:1012300080BD80B584B000AFF860B9607A60FB68AB
:101240005B6803F00203002B0DD07968F868FFF7A4
:10125000C6FF7868FFF7FAFD0346002B03D0022192
:10126000F868FFF731FEB968F868FFF79BFFF86888
:10127000FFF7E6FE00BF1037BD4680BD80B483B0E7
:1012800000AF78607B685B6843F001027B685A605E
:1012900000BF0C37BD465DF8047B704780B483B057
:1012A00000AF786039607B683A68DA6000BF0C375D
:1012B000BD465DF8047B704780B582B000AF08235F
:1012C0007B60144800F0E8FD7B68013B194611483B
:1012D000FFF7E4FF0F48FFF7D1FF842000F05AFD2D
:1012E00002467B68B2FBF3F30B4A13600A4B1B68A0
:1012F0000A4AA2FB03239B09094A1360064B1B6899
:10130000084AA2FB03239B0C074A136000BF08375F
:10131000BD4680BD0040084070080010D34D6210EB
:101320007408001083DE1B437808001080B483B07B
:1013300000AF78607B680C331A687B6810331B68D9
:10134000D31A18460C37BD465DF8047B704780B54C
:1013500082B000AF78607868FFF7E8FF02467B68EC
:101360005B689A42ACBF01230023DBB21846083702
:10137000BD4680BD80B483B000AF78607B680C331D
:101380001A687B6810331B689A420CBF0123002344
:10139000DBB218460C37BD465DF8047B704780B55C
:1013A00084B000AF786039607B681B68FB60786848
:1013B000FFF7CDFF0346002B01D0002319E07B6827
:1013C000DB687A685268013A13407A68926802FBD7
:1013D00003F3FA681344FB607B689B681A4639681C
:1013E000F86801F029F87B68DB685A1C7B68DA60D2
:1013F000012318461037BD4680BD80B584B000AFCC
:10140000786039607B681B68FB607868FFF7B2FF23
:101410000346002B01D0002319E07B681B697A6822
:101420005268013A13407A68926802FB03F3FA6843
:101430001344FB607B689B681A46F968386800F0C3
:10144000FBFF7B681B695A1C7B681A6101231846E5
:101450001037BD4680BD80B483B000AF78607B6834
:10146000002B02DA7B685B4200E07B6818460C3791
:10147000BD465DF8047B704780B588B000AF7860EA
:1014800039607B68FB613B681B6803F08003002BBD
:1014900005D03B681B6823F040023B681A600123BB
:1014A000BB616FE000233B6166E001237B615AE092
:1014B0003B681B6803F04003002B0ED03B690133EF
:1014C0007A6902FA03F31A463B685B6903FB02F28E
:1014D000BB69B2FBF3F3FB6008E03B685B697A69C8
:1014E00002FB03F2BB69B2FBF3F3FB60FB68294A22
:1014F000934234D9FB68284A934239D83B681B6829
:1015000003F08003002B02D0FB68BB6005E03B6961
:101510000133FA6822FA03F3BB607A68BB68D31A16
:101520001846FFF798FF0246FB69934218D93B68BB
:10153000BA699A603B695A1C3B68DA603B687A6911
:101540001A613B68BA689A613B68FA68DA617A683E
:10155000BB68D31A1846FFF77EFFF86100E000BFB2
:101560007B6901337B617B69B3F5807FA0DD00E09F
:1015700000BF3B6901333B613B69032B95DDBB69D0
:101580000133BB61BB69042B8CDD00BF2037BD4636
:1015900080BD00BFFF5E4C0900D01213B0B59EB0F5
:1015A00000AF7860396007F10C0360220021184613
:1015B000FEF7A6FEFB6843F08003FB603B685B69B7
:1015C0003B623B681B793B7407F10C031946786852
:1015D000FFF752FF7B6A7A689A420AD13B681D4640
:1015E00007F10C040FCC0FC594E80F0085E80F003D
:1015F0008EE07B6A7A68D31A1846FFF72CFF034601
:10160000FB66FB6C23F04003FB643B685B693B6655
:101610003B681B7987F8503007F10C0340331946BB
:101620007868FFF729FF7B6E7A689A420AD13B6897
:101630001D4607F14C040FCC0FC594E80F0085E858
:101640000F0065E07B6E7A68D31A1846FFF703FF38
:1016500003467B677B68304A93421AD84023FB627B
:101660003B685B693B6407F10C03203319467868DB
:10167000FFF702FF7B6C7A689A420AD13B681D46ED
:1016800007F12C040FCC0FC594E80F0085E80F007C
:101690003EE07B6C7A68D31A1846FFF7DCFE0346FF
:1016A0003B67FA6E3B6F9A4219DCFA6E7B6F9A4287
:1016B0000ADC3B681D4607F10C040FCC0FC594E80B
:1016C0000F0085E80F0023E03B681D4607F14C043E
:1016D0000FCC0FC594E80F0085E80F0018E03A6FB3
:1016E0007B6F9A420ADC3B681D4607F12C040FCC45
:1016F0000FC594E80F0085E80F0009E03B681D4620
:1017000007F14C040FCC0FC594E80F0085E80F00DB
:101710007837BD46B0BD00BF80778E0680B584B0F7
:1017200000AF03460A46FB711346BB71BB791846EE
:1017300000F060F90346FB73BB79184600F07AF9B4
:10174000B860FB7B184600F091F90246BB68013394
:10175000B2FBF3F318461037BD4680BD80B485B0A8
:1017600000AF0346FB801C23FB730023BB6024E017
:101770001D49BA6813465B0013445B000B441B8889
:10178000FA889A4216D31849BA6813465B00134484
:101790005B000B4402331B88FA889A420AD812492C
:1017A000BA6813465B0013445B000B4404331B7898
:1017B000FB7302E0BB680133BB60FB7B1C2B0BD1CE
:1017C0000949BA6813465B0013445B000B440433B9
:1017D0001B78FA7B9A42CBD1FB7B18461437BD4667
:1017E0005DF8047B704700BFFC29001A80B483B009
:1017F00000AF4FF47A733B60154B9B697B607B684D
:1018000023F002037B60124B9B697A689A4202D0F4
:101810000F4A7B6893617B6823F001037B600D4B6B
:101820001B680D4A934203D97B6843F004037B6035
:10183000074A7B68936100BF3B685A1E3A60002BE1
:10184000FAD100BF0C37BD465DF8047B704700BF7E
:10185000000005406429001AFF2C310180B582B0D8
:1018600000AF786039603B681B79184600F0FEF8DD
:1018700002463B685A617B682B4A934207D87B68D3
:101880002A4A934203D93B685B69002B02D14FF08F
:10189000FF3344E03B6880221A603B6800229A6074
:1018A0003B680022DA603B685B697A68B2FBF3F35D
:1018B0001A463B681A617B681D4A934209D93B6806
:1018C0001B691A463B685B6903FB02F37A689A421C
:1018D0000FD039687868FFF761FE3B689B68002B82
:1018E00002D14FF0FF331AE03B689B685A1E3B68F9
:1018F0009A603B681B69002B02D14FF0FF330EE06A
:101900003B68DB68002B04D03B68DB685A1E3B68F1
:10191000DA603B681B695A1E3B681A61002318464F
:101920000837BD4680BD00BF00CB280CEFC5940032
:10193000FF5E4C0980B58CB000AF2C4B5B6CFB623A
:10194000FB6A1B0EDBB203F00F03DBB2184600F09C
:101950008DF8B862264B1B687B60244B1B6C03F030
:101960000103002B01D100233BE0FB6A1B0CDBB21F
:101970007B62FB6A1B0B03F003033B62FB6A1B0ADF
:1019800003F00303FB61FB6ADB0903F00103BB61A6
:10199000FB6A9B0903F001037B617B6A01333B61B6
:1019A0003B6A0133FB603A1DFB6913441B78BB6043
:1019B000BB69002B02D17B69002B07D0BA6AFB6898
:1019C000B2FBF3F33A6902FB03F30AE0BB685B0086
:1019D0003A69B2FBF3F3B96AFA68B1FBF2F202FBBF
:1019E00003F318463037BD4680BD00BF00000540F8
:1019F000682A001A80B485B000AF0346FB710C4A18
:101A0000FB79123352F82330FB60FB6803F00103CB
:101A1000002B01D0112305E0FB681B0EDBB203F0A5
:101A20001F03DBB218461437BD465DF8047B7047D0
:101A30000000054080B483B000AF0346FB71094A43
:101A4000FB79123352F823309B08DAB2FB7906494E
:101A5000CB5C1340DBB218460C37BD465DF8047B07
:101A6000704700BF000005406C2A001A80B584B0A2
:101A700000AF0346FB710023FB60FB79112B7FD87D
:101A800001A252F823F000BFD11A001AD91A001A85
:101A9000DF1A001AF31A001A0D1B001A811B001A14
:101AA000151B001A1D1B001A251B001A2D1B001ADE
:101AB000811B001A811B001A351B001A431B001AD8
:101AC000511B001A5F1B001A6D1B001A7B1B001AAA
:101AD0004FF40043FB6056E02D4BFB6053E02D4B71
:101AE000D3F82C3103F00703042B4BD02A4BFB60B7
:101AF00048E0284BD3F82C3103F00703042B02D025
:101B0000254BFB603FE0254BFB603CE0244B1B6812
:101B1000FB6038E0234B1B68FB6034E0224B1B6802
:101B2000FB6030E0204B5B68FB602CE0FFF702FFBE
:101B3000F86028E0FB7900211846FFF7EFFDF86018
:101B400021E0FB7901211846FFF7E8FDF8601AE073
:101B5000FB7902211846FFF7E1FDF86013E0FB79FD
:101B600003211846FFF7DAFDF8600CE0FB79042149
:101B70001846FFF7D3FDF86005E00023FB6002E0A4
:101B800000BF00E000BFFB6818461037BD4680BDAF
:101B9000001BB7000030044040787D0180F0FA025D
:101BA0006029001A6429001A7C08001080B582B0F0
:101BB00000AF0346FB71FB79184600F057F8034667
:101BC0001846FFF753FF034618460837BD4680BD49
:101BD00090B484B000AF0446084611461A46234626
:101BE000FB710346BB710B467B7113463B711D4A6B
:101BF000FB7916339B0013445B68FB60FB791B2B5E
:101C000022D8BB79112B28D0FA68174B1340FB6000
:101C10007B79002B03D0FB6843F40063FB603B79C6
:101C2000002B03D0FB6843F00103FB60BB791B066C
:101C30001A46FB681343FB600A4AFB7916339B0084
:101C40001344FA685A6008E00649FB79FA6842F0E2
:101C5000010216339B000B445A6000BF1037BD468B
:101C600090BC704700000540FEF7FFE080B485B0EF
:101C700000AF0346FB71FB791B2B01D9112313E045
:101C80000C4AFB7916339B0013445B68FB60FB68CE
:101C900003F00103002B01D0112305E0FB681B0EAC
:101CA000DBB203F01F03DBB218461437BD465DF804
:101CB000047B70470000054080B485B000AF3B60F6
:101CC0000346FB800B467B7113463B710123FB608F
:101CD0007B79002B03D0FB6843F00203FB603B7968
:101CE000002B03D0FB6843F00403FB603B68022B2E
:101CF00003D1FB6843F02003FB60FB88B3F5A17FB1
:101D000008D30A49FB88A3F5A1732033FA6841F888
:101D1000332005E00649FB882033FA6841F8332078
:101D200000BF1437BD465DF8047B704700200540B6
:101D30000010054080B483B000AF0346FB80FB88F1
:101D4000B3F5A17F10D3114AFB88A3F5A17320330B
:101D500052F833200D49FB88A3F5A17342F001022C
:101D6000203341F833200BE0094AFB88203352F836
:101D700033200749FB8842F00102203341F8332029
:101D800000BF0C37BD465DF8047B7047002005405E
:101D90000010054080B586B000AF0346FB80FB888D
:101DA000B3F5A17F08D31B4AFB88A3F5A1732033A9
:101DB00052F833307B6105E0174AFB88203352F834
:101DC00033307B617B6903F00103002B1BD0FB8860
:101DD0001846FFF7C3FC0346FB72FB7A1846FFF771
:101DE000E5FEF8607B695B0903F00703002B02D175
:101DF00001233B6101E002233B61FA683B69B2FBCE
:101E0000F3F3FB6001E00023FB60FB681846183722
:101E1000BD4680BD002005400010054080B500AFE4
:101E20006920FFF7B7FF0246014B1A6000BF80BD73
:101E3000DC08001080B483B000AF786000BF0C37BE
:101E4000BD465DF8047B704780B485B000AF786014
:101E50007B680E4A934202D1A423FB810FE07B688A
:101E60000B4A934202D1A323FB8108E07B68094A15
:101E7000934202D18523FB8101E08423FB81FB890E
:101E800018461437BD465DF8047B704700400C408F
:101E900000300C400050084080B582B000AF786040
:101EA0007868FFF7D1FF03461846FFF743FF00BFEE
:101EB0000837BD4680BDFFFF08B5FEF78FFE00BFA7
:101EC00008B5062000F0A6FB0120FEF787FE00BF44
:101ED000024B0146186800F00BB800BF000000106C
:101EE000024B0146186800F003BC00BF0000001060
:101EF0002DE9F04F01F10B05162D83B0064623D8CE
:101F0000102900F2B98000F031FB102518230220BF
:101F1000C54F3B44A3F108025C68944200F066811F
:101F2000636823F003032344D4E902515A68E9604B
:101F300042F001028D6030465A6000F01DFB08340B
:101F4000204603B0BDE8F08F35F0070500F194801E
:101F5000A94200F2918000F009FBB5F5FC7FC0F0CA
:101F600083816B0A00F08F80042B00F24681AB095D
:101F700003F1390003F1380CC300AB4F3B44A3F12C
:101F800008015C68A14206D10CE0002A80F21D81A4
:101F9000E468A14206D0636823F003035A1B0F2AAA
:101FA000F3DD60463C69DFF894C2644571D0636834
:101FB00023F003035A1B0F2A00F34481002AC7E9C8
:101FC00004CC80F22681B3F5007F80F06981DB08C4
:101FD000591C7A6857F83180C4F808804FF0010E18
:101FE0009B100EFA03F307EBC10E1343AEF1080288
:101FF000E2607B6047F83140C8F80C408210012451
:1020000094409C424BD81C4206D120F0030064004F
:102010001C4200F10400FAD007EBC009CE4680460E
:10202000DEF80C309E4507D122E1002A80F229819A
:10203000DB689E4500F01C81596821F003014A1BB2
:102040000F2AF2DDD3E9028E5C1945F001055D60CF
:1020500042F00105C8F80CE03046CEF80880C7E928
:102060000444C4E902CC65605A50019300F084FA3C
:10207000019B03F1080463E700240C23204633602E
:1020800003B0BDE8F08F4FF4007340204FF03F0CD9
:1020900073E77B688210012494409C42B3D9BC68EA
:1020A000636823F00309A94503D3A9EB05030F2BAC
:1020B0007BDC5E4BDFF888A11A68DAF80030013368
:1020C00005EB020800F0488108F5805808F10F0878
:1020D00028F47F6828F00F084146304600F05CFA8B
:1020E000B0F1FF3F834600F0048104EB090058453E
:1020F00000F2FD804E4A13684344136000F04D81A6
:10210000DAF8001001311BBFABEB00001B18CAF856
:1021100000B013601BF0070300F03481C3F1080125
:10212000C3F580538B440833D844C8F30B08A3EBA2
:10213000080841463046019200F02EFA431C019AED
:1021400000F04681A0EB0B01414441F0010113680E
:10215000C7F808B04344BC42CBF80410136015D054
:10216000B9F10F0F40F230816068A9F10C0121F044
:10217000070100F0010004EB010C08434FF0050ECD
:102180000F296060CCE901EE00F23A81294A2A4821
:102190001168BC688B42016888BF136062688B421B
:1021A00022F0030288BF0360A7E0621943F0010335
:1021B00045F0010565603046BA60536000F0DCF917
:1021C0000834204603B0BDE8F08F2344E1685A6824
:1021D000A56842F00102E96030468D605A6000F067
:1021E000CBF90834204603B0BDE8F08FDC68A34289
:1021F00008BF02303FF4D6AE92E6142B71D9542BAF
:1022000000F2AD802B0B03F16F0003F16E0CC300E5
:10221000B3E6234430465A6842F001025A6008345B
:1022200000F0AAF98CE600BF34040010B4080010D6
:1022300084080010AC080010B00800103C04001026
:102240003C080010611945F0010E42F00105C4F888
:1022500004E03046C7E90411C1E902CC4D60E25008
:1022600000F08AF908346BE6E80805F108034FE648
:1022700008F1010818F0030F0EF1080E7FF4D0AE3C
:1022800052E019441C464A68DB6854F8085F42F083
:1022900001024A603046EB609D6000F06DF94FE648
:1022A0005A0A042A35D9142A6FD802F15C01C900F0
:1022B0005B3207EB010E7958AEF1080E8E4558D00F
:1022C0004A6822F003029A4202D989688E45F7D102
:1022D000D1F80CE07B68C4E9021ECEF80840CC605F
:1022E0008CE603F15C0003F15B0CC30045E6BC42E5
:1022F00072D0BC68626822F003029542A2EB05032B
:1023000002D80F2B3FF751AF304600F035F90024CB
:1023100016E69A0902F13901C9003832C9E7D9F83D
:102320000090994540F0838010F0030FA9F1080355
:1023300000F1FF30F3D17B6823EA04037B60640083
:102340009C423FF6ACAE1CB9A9E6640008F1040853
:102350001C42FAD040465FE608F11008BCE6B3F52F
:10236000AA7F26D8EB0B03F1780003F1770CC300AA
:1023700003E67B6892104FF0010808FA02F213435B
:102380007B60A8E74FF48053CEE6542A29D81A0B75
:1023900002F16F01C9006E328BE7C0F30B01002917
:1023A0007FF4AEAE09EB0802B96842F001024A6060
:1023B000ECE640F2545293421CD8AB0C03F17D0082
:1023C00003F17C0CC300D8E50123CBF804309BE774
:1023D00001214FF00008BAE6164A1368434413601F
:1023E0008EE6B2F5AA7F14D8DA0B02F17801C900A3
:1023F00077325EE74FF47E737F204FF07E0CBCE5B2
:1024000004F108013046019200F072F9019A136854
:10241000BCE640F254518A4205D89A0C02F17D0183
:10242000C9007C3245E74FF47E717E2241E77B682C
:1024300085E700BF84080010844641EA000313F0DA
:1024400003036DD1403A41D351F8043B40F8043BBB
:1024500051F8043B40F8043B51F8043B40F8043B7E
:1024600051F8043B40F8043B51F8043B40F8043B6E
:1024700051F8043B40F8043B51F8043B40F8043B5E
:1024800051F8043B40F8043B51F8043B40F8043B4E
:1024900051F8043B40F8043B51F8043B40F8043B3E
:1024A00051F8043B40F8043B51F8043B40F8043B2E
:1024B00051F8043B40F8043B51F8043B40F8043B1E
:1024C00051F8043B40F8043B403ABDD2303211D3BE
:1024D00051F8043B40F8043B51F8043B40F8043BFE
:1024E00051F8043B40F8043B51F8043B40F8043BEE
:1024F000103AEDD20C3205D351F8043B40F8043BBE
:10250000043AF9D2043208D0D2071CBF11F8013BBB
:1025100000F8013B01D30B8803806046704700BF81
:10252000082A13D38B078DD010F003038AD0C3F190
:102530000403D21ADB071CBF11F8013B00F8013B72
:1025400080D331F8023B20F8023B7BE7043AD9D331
:10255000013A11F8013B00F8013BF9D20B78037006
:102560004B7843708B788370604670470148FDF765
:1025700011BF00BFC80800100148FDF70DBF00BF24
:10258000C808001010B5034B0446196800F0CEF9D6
:10259000204610BD0000001038B5074C002305464A
:1025A00008462360FEF7DAFA431C00D038BD2368E2
:1025B000002BFBD02B6038BDE00800101F2938B578
:1025C00022D8D0F8DC3205460C466BB153F82120F6
:1025D00052B1012A12D0511C12D00025204643F8D6
:1025E00024509047284638BD284600F02FF8224650
:1025F00001462846BDE8384000F014B8002038BD38
:1026000016230360012038BD162303604FF0FF300E
:1026100038BD00BF024B01461868FFF7CFBF00BFAF
:102620000000001038B50B46074C05461146184609
:1026300000232360FEF7B8FA431C00D038BD23689E
:10264000002BFBD02B6038BDE0080010FEF7BEBAAF
:10265000F8B5244F0C460646FFF788FFBB685D6857
:10266000C4F57E610F3125F00305294421F47F6113
:1026700021F00F01A1F58054B4F5805F07DB002144
:102680003046FFF789FFBB682B44984204D03046A0
:10269000FFF772FF0020F8BD61423046FFF77CFF74
:1026A00001300DD0104BBA6819682D1B45F001059B
:1026B0003046091B55601960FFF75EFF0120F8BD29
:1026C00000213046FFF768FFBA68831A0F2BDEDD62
:1026D000064C0549246843F00103001B5360086061
:1026E000D5E700BF34040010840800103C08001037
:1026F000002953D0F8B50C460646FFF737FF54F8CB
:1027000004CC714F2CF00101A4F108056B18B868D6
:102710005A68984222F0030253D01CF0010F5A600D
:1027200003EB02003BD154F808CC4068A5EB0C0544
:1027300007F1080EAC687445614400F0010075D0E3
:10274000D5F80CC0C4F80CC0CCF8084060B341F018
:1027500001036B606950B1F5007F50D34B0A042B25
:1027600070D88B0903F13904E40003F138023819F9
:102770003B590838984278D05A6822F003028A42BE
:1027800071D99B689842F7D1C368C5E902039D607F
:10279000C5603046BDE8F840FFF7EEBE70474068C0
:1027A00000F001000028D2D19868484C1144A042A2
:1027B00041F0010262D0DB68C36098606A606950D2
:1027C000C9E71CF0010F0A4407D154F8083CED1A80
:1027D0001A44D5E90213CB6099603D4B1B6842F067
:1027E000010193426960BD6004D83A4B30461968D4
:1027F000FFF72EFF3046BDE8F840FFF7BDBEC90821
:1028000078684A1C012389108B40034307EBC201FF
:1028100057F832007B600839C5E9020147F83250A9
:10282000C5603046BDE8F840FFF7A6BE002845D198
:102830000A44D3E9021342F00100CB60996068605A
:10284000AA50D7E7142B08D9542B1ED80B0B03F131
:102850006F04E40003F16E0289E703F15C04E40015
:1028600003F15B0283E718468EE793107968012233
:1028700002FA03F30B437B60034686E7C7E904557E
:10288000C5E902006A606950B4E7B3F5AA7F06D8CB
:10289000CB0B03F17804E40003F1770267E740F221
:1028A0005452934206D88B0C03F17D04E40003F1EB
:1028B0007C025CE74FF47E747E2258E741F001020F
:1028C0006A60196096E700BF340400103C040010F1
:1028D00040080010B408001070B4124C04F5806574
:1028E00054F8083F5E6826F003060F2E3146D4BF29
:1028F00000200120E3689C4208D05A68DB6822F07F
:1029000003029C4200F101001144F6D10834A542B3
:10291000F0D1054B1A685860521AC3E90816DA61FB
:1029200070BC70473404001084080010F8B50B4DDB
:10293000064608460F46FFF719FEFFF7CDFF0FCDFD
:1029400034460FC40FCD0FC495E8030084E803009C
:102950003846FFF711FE3046F8BD00BF840800106E
:1029600000000000001BB700020205021400020A6A
:10297000000E1000020B010B1000020C010C1000E5
:10298000020005001400020105011400010000040A
:10299000500001010008500001020009500001062A
:1029A0000109500000010100090901000A090100A4
:1029B0000107010102090100060901000C090101DA
:1029C0000D0901000E0901000F09010010090100A5
:1029D000110901001209010013090100141101007D
:1029E000191101001A1101001B1101008100820060
:1029F000A100A200C201A201820162010000050043
:102A00000A0020002400090040004000050060008A
:102A1000A6000400C000C3000200E000E0000100C6
:102A200000010001030020012001060040014001D7
:102A30000C0042014201190062016201130082018F
:102A400082011200A201A2011100C201C201100004
:102A5000E201E2010F00020202020E002202220243
:102A60000D00230223021C0001020408030F0F0FB4
:042A7000FF00FFFF65
:042A7400F8B500BFF2
:042A7800F8B500BFEE
:102A7C0008000010FFFFFFFF00000000F402001030
:102A8C005C030010C40300100000000000000000F4
:102A9C00000000000000000000000000000000002A
:102AAC00000000000000000000000000000000001A
:102ABC00000000000000000000000000000000000A
:102ACC0000000000000000000000000000000000FA
:102ADC0000000000000000000000000000000000EA
:102AEC0000000000000000000000000000000000DA
:102AFC0000000000000000000000000000000000CA
:102B0C0000000000000000000000000000000000B9
:102B1C0000000000000000000000000000000000A9
:102B2C0001000000000000000E33CDAB34126DE646
:102B3C00ECDE05000B0000000000000000000000AF
:102B4C000000000000000000000000000000000079
:102B5C000000000000000000000000000000000069
:102B6C000000000000000000000000000000000059
:102B7C000000000000000000000000000000000049
:102EAC0000000810000000000000000034040010B6
:102EBC00340400103C0400103C04001044040010C6
:102ECC00440400104C0400104C0400105404001076
:102EDC00540400105C0400105C0400106404001026
:102EEC00640400106C0400106C04001074040010D6
:102EFC00740400107C0400107C0400108404001086
:102F0C00840400108C0400108C0400109404001035
:102F1C00940400109C0400109C040010A4040010E5
:102F2C00A4040010AC040010AC040010B404001095
:102F3C00B4040010BC040010BC040010C404001045
:102F4C00C4040010CC040010CC040010D4040010F5
:102F5C00D4040010DC040010DC040010E4040010A5
:102F6C00E4040010EC040010EC040010F404001055
:102F7C00F4040010FC040010FC0400100405001004
:102F8C00040500100C0500100C05001014050010B1
:102F9C00140500101C0500101C0500102405001061
:102FAC00240500102C0500102C0500103405001011
:102FBC00340500103C0500103C05001044050010C1
:102FCC00440500104C0500104C0500105405001071
:102FDC00540500105C0500105C0500106405001021
:102FEC00640500106C0500106C05001074050010D1
:102FFC00740500107C0500107C0500108405001081
:10300C00840500108C0500108C0500109405001030
:10301C00940500109C0500109C050010A4050010E0
:10302C00A4050010AC050010AC050010B405001090
:10303C00B4050010BC050010BC050010C405001040
:10304C00C4050010CC050010CC050010D4050010F0
:10305C00D4050010DC050010DC050010E4050010A0
:10306C00E4050010EC050010EC050010F405001050
:10307C00F4050010FC050010FC05001004060010FF
:10308C00040600100C0600100C06001014060010AC
:10309C00140600101C0600101C060010240600105C
:1030AC00240600102C0600102C060010340600100C
:1030BC00340600103C0600103C06001044060010BC
:1030CC00440600104C0600104C060010540600106C
:1030DC00540600105C0600105C060010640600101C
:1030EC00640600106C0600106C06001074060010CC
:1030FC00740600107C0600107C060010840600107C
:10310C00840600108C0600108C060010940600102B
:10311C00940600109C0600109C060010A4060010DB
:10312C00A4060010AC060010AC060010B40600108B
:10313C00B4060010BC060010BC060010C40600103B
:10314C00C4060010CC060010CC060010D4060010EB
:10315C00D4060010DC060010DC060010E40600109B
:10316C00E4060010EC060010EC060010F40600104B
:10317C00F4060010FC060010FC06001004070010FA
:10318C00040700100C0700100C07001014070010A7
:10319C00140700101C0700101C0700102407001057
:1031AC00240700102C0700102C0700103407001007
:1031BC00340700103C0700103C07001044070010B7
:1031CC00440700104C0700104C0700105407001067
:1031DC00540700105C0700105C0700106407001017
:1031EC00640700106C0700106C07001074070010C7
:1031FC00740700107C0700107C0700108407001077
:10320C00840700108C0700108C0700109407001026
:10321C00940700109C0700109C070010A4070010D6
:10322C00A4070010AC070010AC070010B407001086
:10323C00B4070010BC070010BC070010C407001036
:10324C00C4070010CC070010CC070010D4070010E6
:10325C00D4070010DC070010DC070010E407001096
:10326C00E4070010EC070010EC070010F407001046
:10327C00F4070010FC070010FC07001004080010F5
:10328C00040800100C0800100C08001014080010A2
:10329C00140800101C0800101C0800102408001052
:1032AC00240800102C0800102C080010FFFFFFFF52
:0432BC00000002000C
:040000051A0003BD1D
:00000001FF
